{
  "contractName": "K9WalletGuardians",
  "abi": [
    {
      "inputs": [
        {
          "internalType": "contract IERC20",
          "name": "_token",
          "type": "address"
        },
        {
          "internalType": "address",
          "name": "_dev",
          "type": "address"
        }
      ],
      "stateMutability": "nonpayable",
      "type": "constructor"
    },
    {
      "anonymous": false,
      "inputs": [
        {
          "indexed": true,
          "internalType": "address",
          "name": "owner",
          "type": "address"
        },
        {
          "indexed": true,
          "internalType": "address",
          "name": "approved",
          "type": "address"
        },
        {
          "indexed": true,
          "internalType": "uint256",
          "name": "tokenId",
          "type": "uint256"
        }
      ],
      "name": "Approval",
      "type": "event"
    },
    {
      "anonymous": false,
      "inputs": [
        {
          "indexed": true,
          "internalType": "address",
          "name": "owner",
          "type": "address"
        },
        {
          "indexed": true,
          "internalType": "address",
          "name": "operator",
          "type": "address"
        },
        {
          "indexed": false,
          "internalType": "bool",
          "name": "approved",
          "type": "bool"
        }
      ],
      "name": "ApprovalForAll",
      "type": "event"
    },
    {
      "anonymous": false,
      "inputs": [
        {
          "indexed": true,
          "internalType": "address",
          "name": "previousOwner",
          "type": "address"
        },
        {
          "indexed": true,
          "internalType": "address",
          "name": "newOwner",
          "type": "address"
        }
      ],
      "name": "OwnershipTransferred",
      "type": "event"
    },
    {
      "anonymous": false,
      "inputs": [
        {
          "indexed": true,
          "internalType": "address",
          "name": "from",
          "type": "address"
        },
        {
          "indexed": true,
          "internalType": "address",
          "name": "to",
          "type": "address"
        },
        {
          "indexed": true,
          "internalType": "uint256",
          "name": "tokenId",
          "type": "uint256"
        }
      ],
      "name": "Transfer",
      "type": "event"
    },
    {
      "inputs": [],
      "name": "MINT_LIMIT",
      "outputs": [
        {
          "internalType": "uint256",
          "name": "",
          "type": "uint256"
        }
      ],
      "stateMutability": "view",
      "type": "function"
    },
    {
      "inputs": [
        {
          "internalType": "address",
          "name": "to",
          "type": "address"
        },
        {
          "internalType": "uint256",
          "name": "tokenId",
          "type": "uint256"
        }
      ],
      "name": "approve",
      "outputs": [],
      "stateMutability": "nonpayable",
      "type": "function"
    },
    {
      "inputs": [
        {
          "internalType": "address",
          "name": "owner",
          "type": "address"
        }
      ],
      "name": "balanceOf",
      "outputs": [
        {
          "internalType": "uint256",
          "name": "",
          "type": "uint256"
        }
      ],
      "stateMutability": "view",
      "type": "function"
    },
    {
      "inputs": [],
      "name": "contractURI",
      "outputs": [
        {
          "internalType": "string",
          "name": "",
          "type": "string"
        }
      ],
      "stateMutability": "view",
      "type": "function"
    },
    {
      "inputs": [],
      "name": "darkThemeTokensLastID",
      "outputs": [
        {
          "internalType": "uint256",
          "name": "",
          "type": "uint256"
        }
      ],
      "stateMutability": "view",
      "type": "function"
    },
    {
      "inputs": [
        {
          "internalType": "uint256",
          "name": "tokenId",
          "type": "uint256"
        }
      ],
      "name": "getApproved",
      "outputs": [
        {
          "internalType": "address",
          "name": "",
          "type": "address"
        }
      ],
      "stateMutability": "view",
      "type": "function"
    },
    {
      "inputs": [
        {
          "internalType": "address",
          "name": "owner",
          "type": "address"
        },
        {
          "internalType": "address",
          "name": "operator",
          "type": "address"
        }
      ],
      "name": "isApprovedForAll",
      "outputs": [
        {
          "internalType": "bool",
          "name": "",
          "type": "bool"
        }
      ],
      "stateMutability": "view",
      "type": "function"
    },
    {
      "inputs": [],
      "name": "isSaleOn",
      "outputs": [
        {
          "internalType": "bool",
          "name": "",
          "type": "bool"
        }
      ],
      "stateMutability": "view",
      "type": "function"
    },
    {
      "inputs": [],
      "name": "limitedDarkThemeTokensEnabled",
      "outputs": [
        {
          "internalType": "bool",
          "name": "",
          "type": "bool"
        }
      ],
      "stateMutability": "view",
      "type": "function"
    },
    {
      "inputs": [],
      "name": "name",
      "outputs": [
        {
          "internalType": "string",
          "name": "",
          "type": "string"
        }
      ],
      "stateMutability": "view",
      "type": "function"
    },
    {
      "inputs": [],
      "name": "owner",
      "outputs": [
        {
          "internalType": "address",
          "name": "",
          "type": "address"
        }
      ],
      "stateMutability": "view",
      "type": "function"
    },
    {
      "inputs": [
        {
          "internalType": "uint256",
          "name": "tokenId",
          "type": "uint256"
        }
      ],
      "name": "ownerOf",
      "outputs": [
        {
          "internalType": "address",
          "name": "",
          "type": "address"
        }
      ],
      "stateMutability": "view",
      "type": "function"
    },
    {
      "inputs": [],
      "name": "renounceOwnership",
      "outputs": [],
      "stateMutability": "nonpayable",
      "type": "function"
    },
    {
      "inputs": [
        {
          "internalType": "address",
          "name": "from",
          "type": "address"
        },
        {
          "internalType": "address",
          "name": "to",
          "type": "address"
        },
        {
          "internalType": "uint256",
          "name": "tokenId",
          "type": "uint256"
        }
      ],
      "name": "safeTransferFrom",
      "outputs": [],
      "stateMutability": "nonpayable",
      "type": "function"
    },
    {
      "inputs": [
        {
          "internalType": "address",
          "name": "from",
          "type": "address"
        },
        {
          "internalType": "address",
          "name": "to",
          "type": "address"
        },
        {
          "internalType": "uint256",
          "name": "tokenId",
          "type": "uint256"
        },
        {
          "internalType": "bytes",
          "name": "_data",
          "type": "bytes"
        }
      ],
      "name": "safeTransferFrom",
      "outputs": [],
      "stateMutability": "nonpayable",
      "type": "function"
    },
    {
      "inputs": [
        {
          "internalType": "address",
          "name": "operator",
          "type": "address"
        },
        {
          "internalType": "bool",
          "name": "approved",
          "type": "bool"
        }
      ],
      "name": "setApprovalForAll",
      "outputs": [],
      "stateMutability": "nonpayable",
      "type": "function"
    },
    {
      "inputs": [
        {
          "internalType": "bytes4",
          "name": "interfaceId",
          "type": "bytes4"
        }
      ],
      "name": "supportsInterface",
      "outputs": [
        {
          "internalType": "bool",
          "name": "",
          "type": "bool"
        }
      ],
      "stateMutability": "view",
      "type": "function"
    },
    {
      "inputs": [],
      "name": "symbol",
      "outputs": [
        {
          "internalType": "string",
          "name": "",
          "type": "string"
        }
      ],
      "stateMutability": "view",
      "type": "function"
    },
    {
      "inputs": [
        {
          "internalType": "uint256",
          "name": "index",
          "type": "uint256"
        }
      ],
      "name": "tokenByIndex",
      "outputs": [
        {
          "internalType": "uint256",
          "name": "",
          "type": "uint256"
        }
      ],
      "stateMutability": "view",
      "type": "function"
    },
    {
      "inputs": [
        {
          "internalType": "address",
          "name": "owner",
          "type": "address"
        },
        {
          "internalType": "uint256",
          "name": "index",
          "type": "uint256"
        }
      ],
      "name": "tokenOfOwnerByIndex",
      "outputs": [
        {
          "internalType": "uint256",
          "name": "",
          "type": "uint256"
        }
      ],
      "stateMutability": "view",
      "type": "function"
    },
    {
      "inputs": [],
      "name": "totalSupply",
      "outputs": [
        {
          "internalType": "uint256",
          "name": "",
          "type": "uint256"
        }
      ],
      "stateMutability": "view",
      "type": "function"
    },
    {
      "inputs": [
        {
          "internalType": "address",
          "name": "from",
          "type": "address"
        },
        {
          "internalType": "address",
          "name": "to",
          "type": "address"
        },
        {
          "internalType": "uint256",
          "name": "tokenId",
          "type": "uint256"
        }
      ],
      "name": "transferFrom",
      "outputs": [],
      "stateMutability": "nonpayable",
      "type": "function"
    },
    {
      "inputs": [
        {
          "internalType": "address",
          "name": "newOwner",
          "type": "address"
        }
      ],
      "name": "transferOwnership",
      "outputs": [],
      "stateMutability": "nonpayable",
      "type": "function"
    },
    {
      "inputs": [
        {
          "internalType": "uint256",
          "name": "_numToMint",
          "type": "uint256"
        }
      ],
      "name": "buyWithETH",
      "outputs": [],
      "stateMutability": "payable",
      "type": "function"
    },
    {
      "inputs": [
        {
          "internalType": "uint256",
          "name": "_numToMint",
          "type": "uint256"
        }
      ],
      "name": "buyWithK9WT",
      "outputs": [],
      "stateMutability": "nonpayable",
      "type": "function"
    },
    {
      "inputs": [
        {
          "internalType": "address",
          "name": "buyer",
          "type": "address"
        }
      ],
      "name": "K9WTApprovalAmount",
      "outputs": [
        {
          "internalType": "uint256",
          "name": "",
          "type": "uint256"
        }
      ],
      "stateMutability": "view",
      "type": "function"
    },
    {
      "inputs": [
        {
          "internalType": "uint256",
          "name": "_numToMint",
          "type": "uint256"
        }
      ],
      "name": "getETHPriceForTokens",
      "outputs": [
        {
          "internalType": "uint256",
          "name": "",
          "type": "uint256"
        }
      ],
      "stateMutability": "view",
      "type": "function"
    },
    {
      "inputs": [
        {
          "internalType": "uint256",
          "name": "_numToMint",
          "type": "uint256"
        }
      ],
      "name": "getK9WTPriceForTokens",
      "outputs": [
        {
          "internalType": "uint256",
          "name": "",
          "type": "uint256"
        }
      ],
      "stateMutability": "view",
      "type": "function"
    },
    {
      "inputs": [],
      "name": "numMaxGuardians",
      "outputs": [
        {
          "internalType": "uint256",
          "name": "",
          "type": "uint256"
        }
      ],
      "stateMutability": "view",
      "type": "function"
    },
    {
      "inputs": [],
      "name": "currencK9WTRate",
      "outputs": [
        {
          "internalType": "uint256",
          "name": "",
          "type": "uint256"
        }
      ],
      "stateMutability": "view",
      "type": "function"
    },
    {
      "inputs": [
        {
          "internalType": "uint256",
          "name": "_numToMint",
          "type": "uint256"
        }
      ],
      "name": "mintToDeveloper",
      "outputs": [],
      "stateMutability": "nonpayable",
      "type": "function"
    },
    {
      "inputs": [
        {
          "internalType": "string",
          "name": "baseURI",
          "type": "string"
        }
      ],
      "name": "setBaseURI",
      "outputs": [],
      "stateMutability": "nonpayable",
      "type": "function"
    },
    {
      "inputs": [
        {
          "internalType": "string",
          "name": "darkURI",
          "type": "string"
        }
      ],
      "name": "setDarkThemeURI",
      "outputs": [],
      "stateMutability": "nonpayable",
      "type": "function"
    },
    {
      "inputs": [
        {
          "internalType": "uint256",
          "name": "_tokenId",
          "type": "uint256"
        }
      ],
      "name": "tokenURI",
      "outputs": [
        {
          "internalType": "string",
          "name": "",
          "type": "string"
        }
      ],
      "stateMutability": "view",
      "type": "function"
    },
    {
      "inputs": [],
      "name": "startSale",
      "outputs": [],
      "stateMutability": "nonpayable",
      "type": "function"
    },
    {
      "inputs": [],
      "name": "endSale",
      "outputs": [],
      "stateMutability": "nonpayable",
      "type": "function"
    },
    {
      "inputs": [],
      "name": "isSaleOpen",
      "outputs": [
        {
          "internalType": "bool",
          "name": "",
          "type": "bool"
        }
      ],
      "stateMutability": "view",
      "type": "function"
    },
    {
      "inputs": [
        {
          "internalType": "uint256",
          "name": "_newRate",
          "type": "uint256"
        }
      ],
      "name": "setK9WalletTokenRate",
      "outputs": [],
      "stateMutability": "nonpayable",
      "type": "function"
    },
    {
      "inputs": [],
      "name": "burnAvailableK9WT",
      "outputs": [],
      "stateMutability": "nonpayable",
      "type": "function"
    },
    {
      "inputs": [
        {
          "internalType": "string",
          "name": "_contractURI",
          "type": "string"
        }
      ],
      "name": "setContractURI",
      "outputs": [],
      "stateMutability": "nonpayable",
      "type": "function"
    },
    {
      "inputs": [
        {
          "internalType": "contract IERC20",
          "name": "token",
          "type": "address"
        }
      ],
      "name": "withdrawAnyERC20",
      "outputs": [],
      "stateMutability": "nonpayable",
      "type": "function"
    },
    {
      "inputs": [
        {
          "internalType": "bool",
          "name": "toDeveloper",
          "type": "bool"
        }
      ],
      "name": "withdrawMoney",
      "outputs": [],
      "stateMutability": "payable",
      "type": "function"
    }
  ],
  "bytecode": "0x60e0604052612710600c5566354a6ba7a18000608090815250612710600d556000601160006101000a81548160ff0219169083151502179055506000601360006101000a81548160ff021916908315150217905550606460c0908152503480156200006957600080fd5b5060405162006afe38038062006afe83398181016040528101906200008f919062000ec5565b6040518060400160405280601381526020017f4b392057616c6c657420477561726469616e73000000000000000000000000008152506040518060400160405280600481526020017f4b395747000000000000000000000000000000000000000000000000000000008152506200011b6200010f620001f460201b60201c565b620001fc60201b60201c565b81600190805190602001906200013392919062000d9e565b5080600290805190602001906200014c92919062000d9e565b5050506001600b819055508073ffffffffffffffffffffffffffffffffffffffff1660a08173ffffffffffffffffffffffffffffffffffffffff1660601b8152505081600f60006101000a81548173ffffffffffffffffffffffffffffffffffffffff021916908373ffffffffffffffffffffffffffffffffffffffff16021790555062030d40601081905550620001ec600a82620002c060201b60201c565b505062001595565b600033905090565b60008060009054906101000a900473ffffffffffffffffffffffffffffffffffffffff169050816000806101000a81548173ffffffffffffffffffffffffffffffffffffffff021916908373ffffffffffffffffffffffffffffffffffffffff1602179055508173ffffffffffffffffffffffffffffffffffffffff168173ffffffffffffffffffffffffffffffffffffffff167f8be0079c531659141344cd1fd0a4f28419497f9722a3daafe3b4186f6b6457e060405160405180910390a35050565b603282111562000307576040517f08c379a0000000000000000000000000000000000000000000000000000000008152600401620002fe906200110e565b60405180910390fd5b6000600c54905060005b838110156200038557600062000333600e6200039260201b6200244f1760201c565b9050620003478482620003a060201b60201c565b6200035e600e620003c660201b6200245d1760201c565b82806200036b90620012a9565b9350505080806200037c906200130e565b91505062000311565b5080600c81905550505050565b600081600001549050919050565b620003c2828260405180602001604052806000815250620003dc60201b60201c565b5050565b6001816000016000828254019250508190555050565b620003ee83836200044a60201b60201c565b6200040360008484846200063060201b60201c565b62000445576040517f08c379a00000000000000000000000000000000000000000000000000000000081526004016200043c9062001086565b60405180910390fd5b505050565b600073ffffffffffffffffffffffffffffffffffffffff168273ffffffffffffffffffffffffffffffffffffffff161415620004bd576040517f08c379a0000000000000000000000000000000000000000000000000000000008152600401620004b490620010ec565b60405180910390fd5b620004ce81620007ea60201b60201c565b1562000511576040517f08c379a00000000000000000000000000000000000000000000000000000000081526004016200050890620010a8565b60405180910390fd5b62000525600083836200085660201b60201c565b6001600460008473ffffffffffffffffffffffffffffffffffffffff1673ffffffffffffffffffffffffffffffffffffffff16815260200190815260200160002060008282546200057791906200115d565b92505081905550816003600083815260200190815260200160002060006101000a81548173ffffffffffffffffffffffffffffffffffffffff021916908373ffffffffffffffffffffffffffffffffffffffff160217905550808273ffffffffffffffffffffffffffffffffffffffff16600073ffffffffffffffffffffffffffffffffffffffff167fddf252ad1be2c89b69c2b068fc378daa952ba7f163c4a11628f55a4df523b3ef60405160405180910390a45050565b60006200065e8473ffffffffffffffffffffffffffffffffffffffff166200099d60201b620024731760201c565b15620007dd578373ffffffffffffffffffffffffffffffffffffffff1663150b7a0262000690620001f460201b60201c565b8786866040518563ffffffff1660e01b8152600401620006b4949392919062001032565b602060405180830381600087803b158015620006cf57600080fd5b505af19250505080156200070357506040513d601f19601f8201168201806040525081019062000700919062000e93565b60015b6200078c573d806000811462000736576040519150601f19603f3d011682016040523d82523d6000602084013e6200073b565b606091505b5060008151141562000784576040517f08c379a00000000000000000000000000000000000000000000000000000000081526004016200077b9062001086565b60405180910390fd5b805181602001fd5b63150b7a0260e01b7bffffffffffffffffffffffffffffffffffffffffffffffffffffffff1916817bffffffffffffffffffffffffffffffffffffffffffffffffffffffff191614915050620007e2565b600190505b949350505050565b60008073ffffffffffffffffffffffffffffffffffffffff166003600084815260200190815260200160002060009054906101000a900473ffffffffffffffffffffffffffffffffffffffff1673ffffffffffffffffffffffffffffffffffffffff1614159050919050565b6200086e838383620009b060201b620024861760201c565b600073ffffffffffffffffffffffffffffffffffffffff168373ffffffffffffffffffffffffffffffffffffffff161415620008bb57620008b581620009b560201b60201c565b62000903565b8173ffffffffffffffffffffffffffffffffffffffff168373ffffffffffffffffffffffffffffffffffffffff16146200090257620009018382620009fe60201b60201c565b5b5b600073ffffffffffffffffffffffffffffffffffffffff168273ffffffffffffffffffffffffffffffffffffffff16141562000950576200094a8162000b7b60201b60201c565b62000998565b8273ffffffffffffffffffffffffffffffffffffffff168273ffffffffffffffffffffffffffffffffffffffff1614620009975762000996828262000c5760201b60201c565b5b5b505050565b600080823b905060008111915050919050565b505050565b600980549050600a600083815260200190815260200160002081905550600981908060018154018082558091505060019003906000526020600020016000909190919091505550565b6000600162000a188462000ce360201b620018321760201c565b62000a249190620011ba565b905060006008600084815260200190815260200160002054905081811462000b0a576000600760008673ffffffffffffffffffffffffffffffffffffffff1673ffffffffffffffffffffffffffffffffffffffff168152602001908152602001600020600084815260200190815260200160002054905080600760008773ffffffffffffffffffffffffffffffffffffffff1673ffffffffffffffffffffffffffffffffffffffff168152602001908152602001600020600084815260200190815260200160002081905550816008600083815260200190815260200160002081905550505b6008600084815260200190815260200160002060009055600760008573ffffffffffffffffffffffffffffffffffffffff1673ffffffffffffffffffffffffffffffffffffffff16815260200190815260200160002060008381526020019081526020016000206000905550505050565b6000600160098054905062000b919190620011ba565b90506000600a600084815260200190815260200160002054905060006009838154811062000bc45762000bc3620013e9565b5b90600052602060002001549050806009838154811062000be95762000be8620013e9565b5b906000526020600020018190555081600a600083815260200190815260200160002081905550600a600085815260200190815260200160002060009055600980548062000c3b5762000c3a620013ba565b5b6001900381819060005260206000200160009055905550505050565b600062000c6f8362000ce360201b620018321760201c565b905081600760008573ffffffffffffffffffffffffffffffffffffffff1673ffffffffffffffffffffffffffffffffffffffff168152602001908152602001600020600083815260200190815260200160002081905550806008600084815260200190815260200160002081905550505050565b60008073ffffffffffffffffffffffffffffffffffffffff168273ffffffffffffffffffffffffffffffffffffffff16141562000d57576040517f08c379a000000000000000000000000000000000000000000000000000000000815260040162000d4e90620010ca565b60405180910390fd5b600460008373ffffffffffffffffffffffffffffffffffffffff1673ffffffffffffffffffffffffffffffffffffffff168152602001908152602001600020549050919050565b82805462000dac90620012d8565b90600052602060002090601f01602090048101928262000dd0576000855562000e1c565b82601f1062000deb57805160ff191683800117855562000e1c565b8280016001018555821562000e1c579182015b8281111562000e1b57825182559160200191906001019062000dfe565b5b50905062000e2b919062000e2f565b5090565b5b8082111562000e4a57600081600090555060010162000e30565b5090565b60008151905062000e5f8162001547565b92915050565b60008151905062000e768162001561565b92915050565b60008151905062000e8d816200157b565b92915050565b60006020828403121562000eac5762000eab62001418565b5b600062000ebc8482850162000e65565b91505092915050565b6000806040838503121562000edf5762000ede62001418565b5b600062000eef8582860162000e7c565b925050602062000f028582860162000e4e565b9150509250929050565b62000f1781620011f5565b82525050565b600062000f2a8262001130565b62000f3681856200113b565b935062000f4881856020860162001273565b62000f53816200141d565b840191505092915050565b600062000f6d6032836200114c565b915062000f7a826200142e565b604082019050919050565b600062000f94601c836200114c565b915062000fa1826200147d565b602082019050919050565b600062000fbb602a836200114c565b915062000fc882620014a6565b604082019050919050565b600062000fe26020836200114c565b915062000fef82620014f5565b602082019050919050565b6000620010096015836200114c565b915062001016826200151e565b602082019050919050565b6200102c8162001269565b82525050565b600060808201905062001049600083018762000f0c565b62001058602083018662000f0c565b62001067604083018562001021565b81810360608301526200107b818462000f1d565b905095945050505050565b60006020820190508181036000830152620010a18162000f5e565b9050919050565b60006020820190508181036000830152620010c38162000f85565b9050919050565b60006020820190508181036000830152620010e58162000fac565b9050919050565b60006020820190508181036000830152620011078162000fd3565b9050919050565b60006020820190508181036000830152620011298162000ffa565b9050919050565b600081519050919050565b600082825260208201905092915050565b600082825260208201905092915050565b60006200116a8262001269565b9150620011778362001269565b9250827fffffffffffffffffffffffffffffffffffffffffffffffffffffffffffffffff03821115620011af57620011ae6200135c565b5b828201905092915050565b6000620011c78262001269565b9150620011d48362001269565b925082821015620011ea57620011e96200135c565b5b828203905092915050565b6000620012028262001249565b9050919050565b60007fffffffff0000000000000000000000000000000000000000000000000000000082169050919050565b60006200124282620011f5565b9050919050565b600073ffffffffffffffffffffffffffffffffffffffff82169050919050565b6000819050919050565b60005b838110156200129357808201518184015260208101905062001276565b83811115620012a3576000848401525b50505050565b6000620012b68262001269565b91506000821415620012cd57620012cc6200135c565b5b600182039050919050565b60006002820490506001821680620012f157607f821691505b602082108114156200130857620013076200138b565b5b50919050565b60006200131b8262001269565b91507fffffffffffffffffffffffffffffffffffffffffffffffffffffffffffffffff8214156200135157620013506200135c565b5b600182019050919050565b7f4e487b7100000000000000000000000000000000000000000000000000000000600052601160045260246000fd5b7f4e487b7100000000000000000000000000000000000000000000000000000000600052602260045260246000fd5b7f4e487b7100000000000000000000000000000000000000000000000000000000600052603160045260246000fd5b7f4e487b7100000000000000000000000000000000000000000000000000000000600052603260045260246000fd5b600080fd5b6000601f19601f8301169050919050565b7f4552433732313a207472616e7366657220746f206e6f6e20455243373231526560008201527f63656976657220696d706c656d656e7465720000000000000000000000000000602082015250565b7f4552433732313a20746f6b656e20616c7265616479206d696e74656400000000600082015250565b7f4552433732313a2062616c616e636520717565727920666f7220746865207a6560008201527f726f206164647265737300000000000000000000000000000000000000000000602082015250565b7f4552433732313a206d696e7420746f20746865207a65726f2061646472657373600082015250565b7f4d696e74696e67204c696d697420526561636865640000000000000000000000600082015250565b6200155281620011f5565b81146200155e57600080fd5b50565b6200156c8162001209565b81146200157857600080fd5b50565b620015868162001235565b81146200159257600080fd5b50565b60805160a05160601c60c051615521620015dd6000396000818161157a0152612026015260008181610eed01528181611622015261214a0152600061180101526155216000f3fe6080604052600436106102515760003560e01c806368f1f2bc11610139578063a22cb465116100b6578063e41763321161007a578063e417633214610894578063e8a3d485146108bd578063e985e9c5146108e8578063f2fde38b14610925578063fd47d4fc1461094e578063ffe1b4261461097757610251565b8063a22cb465146107d7578063b66a0e5d14610800578063b88d4fde14610817578063c701d20d14610840578063c87b56dd1461085757610251565b80638a1783fe116100fd5780638a1783fe146106ff5780638da5cb5b1461073c578063938e3d7b1461076757806394dc9cf31461079057806395d89b41146107ac57610251565b806368f1f2bc146106275780636c281d611461064357806370a0823114610680578063715018a6146106bd578063779e170d146106d457610251565b8063369fa61d116101d25780634f6ccce7116101965780634f6ccce71461050557806355f804b3146105425780635c292b661461056b57806360233423146105945780636352211e146105bf57806365e80465146105fc57610251565b8063369fa61d1461043657806336eba11b1461045f578063380d831b1461049c57806342842e0e146104b357806344d9ebde146104dc57610251565b806318160ddd1161021957806318160ddd1461034f5780631a0813301461037a57806323b872dd146103a55780632f745c59146103ce578063340e30471461040b57610251565b806301ffc9a714610256578063027752401461029357806306fdde03146102be578063081812fc146102e9578063095ea7b314610326575b600080fd5b34801561026257600080fd5b5061027d60048036038101906102789190613da1565b6109a2565b60405161028a91906144ae565b60405180910390f35b34801561029f57600080fd5b506102a8610a1c565b6040516102b5919061486b565b60405180910390f35b3480156102ca57600080fd5b506102d3610a21565b6040516102e091906144c9565b60405180910390f35b3480156102f557600080fd5b50610310600480360381019061030b9190613e71565b610ab3565b60405161031d91906143be565b60405180910390f35b34801561033257600080fd5b5061034d60048036038101906103489190613d07565b610b38565b005b34801561035b57600080fd5b50610364610c50565b604051610371919061486b565b60405180910390f35b34801561038657600080fd5b5061038f610c5d565b60405161039c91906144ae565b60405180910390f35b3480156103b157600080fd5b506103cc60048036038101906103c79190613bf1565b610c74565b005b3480156103da57600080fd5b506103f560048036038101906103f09190613d07565b610cd4565b604051610402919061486b565b60405180910390f35b34801561041757600080fd5b50610420610d79565b60405161042d919061486b565b60405180910390f35b34801561044257600080fd5b5061045d60048036038101906104589190613dfb565b610d83565b005b34801561046b57600080fd5b5061048660048036038101906104819190613b84565b610f81565b604051610493919061486b565b60405180910390f35b3480156104a857600080fd5b506104b1611037565b005b3480156104bf57600080fd5b506104da60048036038101906104d59190613bf1565b6110d0565b005b3480156104e857600080fd5b5061050360048036038101906104fe9190613e71565b6110f0565b005b34801561051157600080fd5b5061052c60048036038101906105279190613e71565b611176565b604051610539919061486b565b60405180910390f35b34801561054e57600080fd5b5061056960048036038101906105649190613e28565b6111e7565b005b34801561057757600080fd5b50610592600480360381019061058d9190613e71565b61127d565b005b3480156105a057600080fd5b506105a96114bc565b6040516105b6919061486b565b60405180910390f35b3480156105cb57600080fd5b506105e660048036038101906105e19190613e71565b6114c6565b6040516105f391906143be565b60405180910390f35b34801561060857600080fd5b50610611611578565b60405161061e919061486b565b60405180910390f35b610641600480360381019061063c9190613d47565b61159c565b005b34801561064f57600080fd5b5061066a60048036038101906106659190613e71565b6117a1565b604051610677919061486b565b60405180910390f35b34801561068c57600080fd5b506106a760048036038101906106a29190613b84565b611832565b6040516106b4919061486b565b60405180910390f35b3480156106c957600080fd5b506106d26118ea565b005b3480156106e057600080fd5b506106e9611972565b6040516106f691906144ae565b60405180910390f35b34801561070b57600080fd5b5061072660048036038101906107219190613e71565b611985565b604051610733919061486b565b60405180910390f35b34801561074857600080fd5b506107516119f8565b60405161075e91906143be565b60405180910390f35b34801561077357600080fd5b5061078e60048036038101906107899190613e28565b611a21565b005b6107aa60048036038101906107a59190613e71565b611ab7565b005b3480156107b857600080fd5b506107c1611c1c565b6040516107ce91906144c9565b60405180910390f35b3480156107e357600080fd5b506107fe60048036038101906107f99190613cc7565b611cae565b005b34801561080c57600080fd5b50610815611e2f565b005b34801561082357600080fd5b5061083e60048036038101906108399190613c44565b611ec8565b005b34801561084c57600080fd5b50610855611f2a565b005b34801561086357600080fd5b5061087e60048036038101906108799190613e71565b61200b565b60405161088b91906144c9565b60405180910390f35b3480156108a057600080fd5b506108bb60048036038101906108b69190613e71565b612144565b005b3480156108c957600080fd5b506108d2612171565b6040516108df91906144c9565b60405180910390f35b3480156108f457600080fd5b5061090f600480360381019061090a9190613bb1565b6121ff565b60405161091c91906144ae565b60405180910390f35b34801561093157600080fd5b5061094c60048036038101906109479190613b84565b612293565b005b34801561095a57600080fd5b5061097560048036038101906109709190613e28565b61238b565b005b34801561098357600080fd5b5061098c61243c565b60405161099991906144ae565b60405180910390f35b60007f780e9d63000000000000000000000000000000000000000000000000000000007bffffffffffffffffffffffffffffffffffffffffffffffffffffffff1916827bffffffffffffffffffffffffffffffffffffffffffffffffffffffff19161480610a155750610a148261248b565b5b9050919050565b603281565b606060018054610a3090614b57565b80601f0160208091040260200160405190810160405280929190818152602001828054610a5c90614b57565b8015610aa95780601f10610a7e57610100808354040283529160200191610aa9565b820191906000526020600020905b815481529060010190602001808311610a8c57829003601f168201915b5050505050905090565b6000610abe8261256d565b610afd576040517f08c379a0000000000000000000000000000000000000000000000000000000008152600401610af49061470b565b60405180910390fd5b6005600083815260200190815260200160002060009054906101000a900473ffffffffffffffffffffffffffffffffffffffff169050919050565b6000610b43826114c6565b90508073ffffffffffffffffffffffffffffffffffffffff168373ffffffffffffffffffffffffffffffffffffffff161415610bb4576040517f08c379a0000000000000000000000000000000000000000000000000000000008152600401610bab9061476b565b60405180910390fd5b8073ffffffffffffffffffffffffffffffffffffffff16610bd36125d9565b73ffffffffffffffffffffffffffffffffffffffff161480610c025750610c0181610bfc6125d9565b6121ff565b5b610c41576040517f08c379a0000000000000000000000000000000000000000000000000000000008152600401610c389061464b565b60405180910390fd5b610c4b83836125e1565b505050565b6000600980549050905090565b6000601160009054906101000a900460ff16905090565b610c85610c7f6125d9565b8261269a565b610cc4576040517f08c379a0000000000000000000000000000000000000000000000000000000008152600401610cbb906147cb565b60405180910390fd5b610ccf838383612778565b505050565b6000610cdf83611832565b8210610d20576040517f08c379a0000000000000000000000000000000000000000000000000000000008152600401610d179061452b565b60405180910390fd5b600760008473ffffffffffffffffffffffffffffffffffffffff1673ffffffffffffffffffffffffffffffffffffffff168152602001908152602001600020600083815260200190815260200160002054905092915050565b6000600d54905090565b610d8b6125d9565b73ffffffffffffffffffffffffffffffffffffffff16610da96119f8565b73ffffffffffffffffffffffffffffffffffffffff1614610dff576040517f08c379a0000000000000000000000000000000000000000000000000000000008152600401610df69061472b565b60405180910390fd5b60008173ffffffffffffffffffffffffffffffffffffffff166370a08231306040518263ffffffff1660e01b8152600401610e3a91906143be565b60206040518083038186803b158015610e5257600080fd5b505afa158015610e66573d6000803e3d6000fd5b505050506040513d601f19601f82011682018060405250810190610e8a9190613e9e565b905060008111610ecf576040517f08c379a0000000000000000000000000000000000000000000000000000000008152600401610ec6906146cb565b60405180910390fd5b8173ffffffffffffffffffffffffffffffffffffffff1663a9059cbb7f0000000000000000000000000000000000000000000000000000000000000000836040518363ffffffff1660e01b8152600401610f2a929190614485565b602060405180830381600087803b158015610f4457600080fd5b505af1158015610f58573d6000803e3d6000fd5b505050506040513d601f19601f82011682018060405250810190610f7c9190613d74565b505050565b6000600f60009054906101000a900473ffffffffffffffffffffffffffffffffffffffff1673ffffffffffffffffffffffffffffffffffffffff1663dd62ed3e83306040518363ffffffff1660e01b8152600401610fe09291906143d9565b60206040518083038186803b158015610ff857600080fd5b505afa15801561100c573d6000803e3d6000fd5b505050506040513d601f19601f820116820180604052508101906110309190613e9e565b9050919050565b61103f6125d9565b73ffffffffffffffffffffffffffffffffffffffff1661105d6119f8565b73ffffffffffffffffffffffffffffffffffffffff16146110b3576040517f08c379a00000000000000000000000000000000000000000000000000000000081526004016110aa9061472b565b60405180910390fd5b6000601160006101000a81548160ff021916908315150217905550565b6110eb83838360405180602001604052806000815250611ec8565b505050565b6110f86125d9565b73ffffffffffffffffffffffffffffffffffffffff166111166119f8565b73ffffffffffffffffffffffffffffffffffffffff161461116c576040517f08c379a00000000000000000000000000000000000000000000000000000000081526004016111639061472b565b60405180910390fd5b8060108190555050565b6000611180610c50565b82106111c1576040517f08c379a00000000000000000000000000000000000000000000000000000000081526004016111b89061480b565b60405180910390fd5b600982815481106111d5576111d4614cf0565b5b90600052602060002001549050919050565b6111ef6125d9565b73ffffffffffffffffffffffffffffffffffffffff1661120d6119f8565b73ffffffffffffffffffffffffffffffffffffffff1614611263576040517f08c379a000000000000000000000000000000000000000000000000000000000815260040161125a9061472b565b60405180910390fd5b8060149080519060200190611279929190613959565b5050565b6002600b5414156112c3576040517f08c379a00000000000000000000000000000000000000000000000000000000081526004016112ba9061484b565b60405180910390fd5b6002600b81905550601160009054906101000a900460ff1661131a576040517f08c379a0000000000000000000000000000000000000000000000000000000008152600401611311906144eb565b60405180910390fd5b6000611324610c50565b905061132e610d79565b828261133a9190614950565b111561137b576040517f08c379a0000000000000000000000000000000000000000000000000000000008152600401611372906145ab565b60405180910390fd5b600061138683611985565b905080600f60009054906101000a900473ffffffffffffffffffffffffffffffffffffffff1673ffffffffffffffffffffffffffffffffffffffff1663dd62ed3e33306040518363ffffffff1660e01b81526004016113e69291906143d9565b60206040518083038186803b1580156113fe57600080fd5b505afa158015611412573d6000803e3d6000fd5b505050506040513d601f19601f820116820180604052508101906114369190613e9e565b1015611477576040517f08c379a000000000000000000000000000000000000000000000000000000000815260040161146e9061450b565b60405180910390fd5b6114a5600f60009054906101000a900473ffffffffffffffffffffffffffffffffffffffff163330846129d4565b6114af8333612a5d565b50506001600b8190555050565b6000601054905090565b6000806003600084815260200190815260200160002060009054906101000a900473ffffffffffffffffffffffffffffffffffffffff169050600073ffffffffffffffffffffffffffffffffffffffff168173ffffffffffffffffffffffffffffffffffffffff16141561156f576040517f08c379a00000000000000000000000000000000000000000000000000000000081526004016115669061468b565b60405180910390fd5b80915050919050565b7f000000000000000000000000000000000000000000000000000000000000000081565b6115a46125d9565b73ffffffffffffffffffffffffffffffffffffffff166115c26119f8565b73ffffffffffffffffffffffffffffffffffffffff1614611618576040517f08c379a000000000000000000000000000000000000000000000000000000000815260040161160f9061472b565b60405180910390fd5b80156116f05760007f000000000000000000000000000000000000000000000000000000000000000073ffffffffffffffffffffffffffffffffffffffff1647604051611664906143a9565b60006040518083038185875af1925050503d80600081146116a1576040519150601f19603f3d011682016040523d82523d6000602084013e6116a6565b606091505b50509050806116ea576040517f08c379a00000000000000000000000000000000000000000000000000000000081526004016116e1906147ab565b60405180910390fd5b5061179e565b60003373ffffffffffffffffffffffffffffffffffffffff1647604051611716906143a9565b60006040518083038185875af1925050503d8060008114611753576040519150601f19603f3d011682016040523d82523d6000602084013e611758565b606091505b505090508061179c576040517f08c379a0000000000000000000000000000000000000000000000000000000008152600401611793906147ab565b60405180910390fd5b505b50565b60006117ab610d79565b826117b4610c50565b6117be9190614950565b11156117ff576040517f08c379a00000000000000000000000000000000000000000000000000000000081526004016117f6906145ab565b60405180910390fd5b7f00000000000000000000000000000000000000000000000000000000000000008261182b91906149d7565b9050919050565b60008073ffffffffffffffffffffffffffffffffffffffff168273ffffffffffffffffffffffffffffffffffffffff1614156118a3576040517f08c379a000000000000000000000000000000000000000000000000000000000815260040161189a9061466b565b60405180910390fd5b600460008373ffffffffffffffffffffffffffffffffffffffff1673ffffffffffffffffffffffffffffffffffffffff168152602001908152602001600020549050919050565b6118f26125d9565b73ffffffffffffffffffffffffffffffffffffffff166119106119f8565b73ffffffffffffffffffffffffffffffffffffffff1614611966576040517f08c379a000000000000000000000000000000000000000000000000000000000815260040161195d9061472b565b60405180910390fd5b6119706000612b04565b565b601160009054906101000a900460ff1681565b600061198f610d79565b82611998610c50565b6119a29190614950565b11156119e3576040517f08c379a00000000000000000000000000000000000000000000000000000000081526004016119da906145ab565b60405180910390fd5b601054826119f191906149d7565b9050919050565b60008060009054906101000a900473ffffffffffffffffffffffffffffffffffffffff16905090565b611a296125d9565b73ffffffffffffffffffffffffffffffffffffffff16611a476119f8565b73ffffffffffffffffffffffffffffffffffffffff1614611a9d576040517f08c379a0000000000000000000000000000000000000000000000000000000008152600401611a949061472b565b60405180910390fd5b8060129080519060200190611ab3929190613959565b5050565b6002600b541415611afd576040517f08c379a0000000000000000000000000000000000000000000000000000000008152600401611af49061484b565b60405180910390fd5b6002600b81905550601160009054906101000a900460ff16611b54576040517f08c379a0000000000000000000000000000000000000000000000000000000008152600401611b4b906144eb565b60405180910390fd5b6000611b5e610c50565b9050611b68610d79565b8282611b749190614950565b1115611bb5576040517f08c379a0000000000000000000000000000000000000000000000000000000008152600401611bac906145ab565b60405180910390fd5b6000611bc0836117a1565b905080341015611c05576040517f08c379a0000000000000000000000000000000000000000000000000000000008152600401611bfc906146ab565b60405180910390fd5b611c0f8333612a5d565b50506001600b8190555050565b606060028054611c2b90614b57565b80601f0160208091040260200160405190810160405280929190818152602001828054611c5790614b57565b8015611ca45780601f10611c7957610100808354040283529160200191611ca4565b820191906000526020600020905b815481529060010190602001808311611c8757829003601f168201915b5050505050905090565b611cb66125d9565b73ffffffffffffffffffffffffffffffffffffffff168273ffffffffffffffffffffffffffffffffffffffff161415611d24576040517f08c379a0000000000000000000000000000000000000000000000000000000008152600401611d1b906145eb565b60405180910390fd5b8060066000611d316125d9565b73ffffffffffffffffffffffffffffffffffffffff1673ffffffffffffffffffffffffffffffffffffffff16815260200190815260200160002060008473ffffffffffffffffffffffffffffffffffffffff1673ffffffffffffffffffffffffffffffffffffffff16815260200190815260200160002060006101000a81548160ff0219169083151502179055508173ffffffffffffffffffffffffffffffffffffffff16611dde6125d9565b73ffffffffffffffffffffffffffffffffffffffff167f17307eab39ab6107e8899845ad3d59bd9653f200f220920489ca2b5937696c3183604051611e2391906144ae565b60405180910390a35050565b611e376125d9565b73ffffffffffffffffffffffffffffffffffffffff16611e556119f8565b73ffffffffffffffffffffffffffffffffffffffff1614611eab576040517f08c379a0000000000000000000000000000000000000000000000000000000008152600401611ea29061472b565b60405180910390fd5b6001601160006101000a81548160ff021916908315150217905550565b611ed9611ed36125d9565b8361269a565b611f18576040517f08c379a0000000000000000000000000000000000000000000000000000000008152600401611f0f906147cb565b60405180910390fd5b611f2484848484612bc8565b50505050565b6000600f60009054906101000a900473ffffffffffffffffffffffffffffffffffffffff1673ffffffffffffffffffffffffffffffffffffffff166370a08231306040518263ffffffff1660e01b8152600401611f8791906143be565b60206040518083038186803b158015611f9f57600080fd5b505afa158015611fb3573d6000803e3d6000fd5b505050506040513d601f19601f82011682018060405250810190611fd79190613e9e565b9050612008600f60009054906101000a900473ffffffffffffffffffffffffffffffffffffffff1661dead83612c24565b50565b6060601360009054906101000a900460ff16801561204957507f00000000000000000000000000000000000000000000000000000000000000008211155b1561210d5760006015805461205d90614b57565b9050141561207b57600061207083612caa565b90508091505061213f565b6015805461208890614b57565b80601f01602080910402602001604051908101604052809291908181526020018280546120b490614b57565b80156121015780601f106120d657610100808354040283529160200191612101565b820191906000526020600020905b8154815290600101906020018083116120e457829003601f168201915b5050505050905061213f565b6000612117612e0b565b905060008151141561213a57600061212e84612caa565b9050809250505061213f565b809150505b919050565b61216e817f0000000000000000000000000000000000000000000000000000000000000000612a5d565b50565b6012805461217e90614b57565b80601f01602080910402602001604051908101604052809291908181526020018280546121aa90614b57565b80156121f75780601f106121cc576101008083540402835291602001916121f7565b820191906000526020600020905b8154815290600101906020018083116121da57829003601f168201915b505050505081565b6000600660008473ffffffffffffffffffffffffffffffffffffffff1673ffffffffffffffffffffffffffffffffffffffff16815260200190815260200160002060008373ffffffffffffffffffffffffffffffffffffffff1673ffffffffffffffffffffffffffffffffffffffff16815260200190815260200160002060009054906101000a900460ff16905092915050565b61229b6125d9565b73ffffffffffffffffffffffffffffffffffffffff166122b96119f8565b73ffffffffffffffffffffffffffffffffffffffff161461230f576040517f08c379a00000000000000000000000000000000000000000000000000000000081526004016123069061472b565b60405180910390fd5b600073ffffffffffffffffffffffffffffffffffffffff168173ffffffffffffffffffffffffffffffffffffffff16141561237f576040517f08c379a00000000000000000000000000000000000000000000000000000000081526004016123769061456b565b60405180910390fd5b61238881612b04565b50565b6123936125d9565b73ffffffffffffffffffffffffffffffffffffffff166123b16119f8565b73ffffffffffffffffffffffffffffffffffffffff1614612407576040517f08c379a00000000000000000000000000000000000000000000000000000000081526004016123fe9061472b565b60405180910390fd5b806015908051906020019061241d929190613959565b506001601360006101000a81548160ff02191690831515021790555050565b601360009054906101000a900460ff1681565b600081600001549050919050565b6001816000016000828254019250508190555050565b600080823b905060008111915050919050565b505050565b60007f80ac58cd000000000000000000000000000000000000000000000000000000007bffffffffffffffffffffffffffffffffffffffffffffffffffffffff1916827bffffffffffffffffffffffffffffffffffffffffffffffffffffffff1916148061255657507f5b5e139f000000000000000000000000000000000000000000000000000000007bffffffffffffffffffffffffffffffffffffffffffffffffffffffff1916827bffffffffffffffffffffffffffffffffffffffffffffffffffffffff1916145b80612566575061256582612e9d565b5b9050919050565b60008073ffffffffffffffffffffffffffffffffffffffff166003600084815260200190815260200160002060009054906101000a900473ffffffffffffffffffffffffffffffffffffffff1673ffffffffffffffffffffffffffffffffffffffff1614159050919050565b600033905090565b816005600083815260200190815260200160002060006101000a81548173ffffffffffffffffffffffffffffffffffffffff021916908373ffffffffffffffffffffffffffffffffffffffff160217905550808273ffffffffffffffffffffffffffffffffffffffff16612654836114c6565b73ffffffffffffffffffffffffffffffffffffffff167f8c5be1e5ebec7d5bd14f71427d1e84f3dd0314c0f7b2291e5b200ac8c7c3b92560405160405180910390a45050565b60006126a58261256d565b6126e4576040517f08c379a00000000000000000000000000000000000000000000000000000000081526004016126db9061462b565b60405180910390fd5b60006126ef836114c6565b90508073ffffffffffffffffffffffffffffffffffffffff168473ffffffffffffffffffffffffffffffffffffffff16148061275e57508373ffffffffffffffffffffffffffffffffffffffff1661274684610ab3565b73ffffffffffffffffffffffffffffffffffffffff16145b8061276f575061276e81856121ff565b5b91505092915050565b8273ffffffffffffffffffffffffffffffffffffffff16612798826114c6565b73ffffffffffffffffffffffffffffffffffffffff16146127ee576040517f08c379a00000000000000000000000000000000000000000000000000000000081526004016127e59061474b565b60405180910390fd5b600073ffffffffffffffffffffffffffffffffffffffff168273ffffffffffffffffffffffffffffffffffffffff16141561285e576040517f08c379a0000000000000000000000000000000000000000000000000000000008152600401612855906145cb565b60405180910390fd5b612869838383612f07565b6128746000826125e1565b6001600460008573ffffffffffffffffffffffffffffffffffffffff1673ffffffffffffffffffffffffffffffffffffffff16815260200190815260200160002060008282546128c49190614a31565b925050819055506001600460008473ffffffffffffffffffffffffffffffffffffffff1673ffffffffffffffffffffffffffffffffffffffff168152602001908152602001600020600082825461291b9190614950565b92505081905550816003600083815260200190815260200160002060006101000a81548173ffffffffffffffffffffffffffffffffffffffff021916908373ffffffffffffffffffffffffffffffffffffffff160217905550808273ffffffffffffffffffffffffffffffffffffffff168473ffffffffffffffffffffffffffffffffffffffff167fddf252ad1be2c89b69c2b068fc378daa952ba7f163c4a11628f55a4df523b3ef60405160405180910390a4505050565b612a57846323b872dd60e01b8585856040516024016129f593929190614402565b604051602081830303815290604052907bffffffffffffffffffffffffffffffffffffffffffffffffffffffff19166020820180517bffffffffffffffffffffffffffffffffffffffffffffffffffffffff838183161783525050505061301b565b50505050565b6032821115612aa1576040517f08c379a0000000000000000000000000000000000000000000000000000000008152600401612a989061478b565b60405180910390fd5b6000600c54905060005b83811015612af7576000612abf600e61244f565b9050612acb84826130e2565b612ad5600e61245d565b8280612ae090614b2d565b935050508080612aef90614bba565b915050612aab565b5080600c81905550505050565b60008060009054906101000a900473ffffffffffffffffffffffffffffffffffffffff169050816000806101000a81548173ffffffffffffffffffffffffffffffffffffffff021916908373ffffffffffffffffffffffffffffffffffffffff1602179055508173ffffffffffffffffffffffffffffffffffffffff168173ffffffffffffffffffffffffffffffffffffffff167f8be0079c531659141344cd1fd0a4f28419497f9722a3daafe3b4186f6b6457e060405160405180910390a35050565b612bd3848484612778565b612bdf84848484613100565b612c1e576040517f08c379a0000000000000000000000000000000000000000000000000000000008152600401612c159061454b565b60405180910390fd5b50505050565b612ca58363a9059cbb60e01b8484604051602401612c43929190614485565b604051602081830303815290604052907bffffffffffffffffffffffffffffffffffffffffffffffffffffffff19166020820180517bffffffffffffffffffffffffffffffffffffffffffffffffffffffff838183161783525050505061301b565b505050565b60606000821415612cf2576040518060400160405280600181526020017f30000000000000000000000000000000000000000000000000000000000000008152509050612e06565b600082905060005b60008214612d24578080612d0d90614bba565b915050600a82612d1d91906149a6565b9150612cfa565b60008167ffffffffffffffff811115612d4057612d3f614d1f565b5b6040519080825280601f01601f191660200182016040528015612d725781602001600182028036833780820191505090505b5090505b60008514612dff57600182612d8b9190614a31565b9150600a85612d9a9190614c03565b6030612da69190614950565b60f81b818381518110612dbc57612dbb614cf0565b5b60200101907effffffffffffffffffffffffffffffffffffffffffffffffffffffffffffff1916908160001a905350600a85612df891906149a6565b9450612d76565b8093505050505b919050565b606060148054612e1a90614b57565b80601f0160208091040260200160405190810160405280929190818152602001828054612e4690614b57565b8015612e935780601f10612e6857610100808354040283529160200191612e93565b820191906000526020600020905b815481529060010190602001808311612e7657829003601f168201915b5050505050905090565b60007f01ffc9a7000000000000000000000000000000000000000000000000000000007bffffffffffffffffffffffffffffffffffffffffffffffffffffffff1916827bffffffffffffffffffffffffffffffffffffffffffffffffffffffff1916149050919050565b612f12838383612486565b600073ffffffffffffffffffffffffffffffffffffffff168373ffffffffffffffffffffffffffffffffffffffff161415612f5557612f5081613297565b612f94565b8173ffffffffffffffffffffffffffffffffffffffff168373ffffffffffffffffffffffffffffffffffffffff1614612f9357612f9283826132e0565b5b5b600073ffffffffffffffffffffffffffffffffffffffff168273ffffffffffffffffffffffffffffffffffffffff161415612fd757612fd28161344d565b613016565b8273ffffffffffffffffffffffffffffffffffffffff168273ffffffffffffffffffffffffffffffffffffffff161461301557613014828261351e565b5b5b505050565b600061307d826040518060400160405280602081526020017f5361666545524332303a206c6f772d6c6576656c2063616c6c206661696c65648152508573ffffffffffffffffffffffffffffffffffffffff1661359d9092919063ffffffff16565b90506000815111156130dd578080602001905181019061309d9190613d74565b6130dc576040517f08c379a00000000000000000000000000000000000000000000000000000000081526004016130d39061482b565b60405180910390fd5b5b505050565b6130fc8282604051806020016040528060008152506135b5565b5050565b60006131218473ffffffffffffffffffffffffffffffffffffffff16612473565b1561328a578373ffffffffffffffffffffffffffffffffffffffff1663150b7a0261314a6125d9565b8786866040518563ffffffff1660e01b815260040161316c9493929190614439565b602060405180830381600087803b15801561318657600080fd5b505af19250505080156131b757506040513d601f19601f820116820180604052508101906131b49190613dce565b60015b61323a573d80600081146131e7576040519150601f19603f3d011682016040523d82523d6000602084013e6131ec565b606091505b50600081511415613232576040517f08c379a00000000000000000000000000000000000000000000000000000000081526004016132299061454b565b60405180910390fd5b805181602001fd5b63150b7a0260e01b7bffffffffffffffffffffffffffffffffffffffffffffffffffffffff1916817bffffffffffffffffffffffffffffffffffffffffffffffffffffffff19161491505061328f565b600190505b949350505050565b600980549050600a600083815260200190815260200160002081905550600981908060018154018082558091505060019003906000526020600020016000909190919091505550565b600060016132ed84611832565b6132f79190614a31565b90506000600860008481526020019081526020016000205490508181146133dc576000600760008673ffffffffffffffffffffffffffffffffffffffff1673ffffffffffffffffffffffffffffffffffffffff168152602001908152602001600020600084815260200190815260200160002054905080600760008773ffffffffffffffffffffffffffffffffffffffff1673ffffffffffffffffffffffffffffffffffffffff168152602001908152602001600020600084815260200190815260200160002081905550816008600083815260200190815260200160002081905550505b6008600084815260200190815260200160002060009055600760008573ffffffffffffffffffffffffffffffffffffffff1673ffffffffffffffffffffffffffffffffffffffff16815260200190815260200160002060008381526020019081526020016000206000905550505050565b600060016009805490506134619190614a31565b90506000600a600084815260200190815260200160002054905060006009838154811061349157613490614cf0565b5b9060005260206000200154905080600983815481106134b3576134b2614cf0565b5b906000526020600020018190555081600a600083815260200190815260200160002081905550600a600085815260200190815260200160002060009055600980548061350257613501614cc1565b5b6001900381819060005260206000200160009055905550505050565b600061352983611832565b905081600760008573ffffffffffffffffffffffffffffffffffffffff1673ffffffffffffffffffffffffffffffffffffffff168152602001908152602001600020600083815260200190815260200160002081905550806008600084815260200190815260200160002081905550505050565b60606135ac8484600085613610565b90509392505050565b6135bf8383613724565b6135cc6000848484613100565b61360b576040517f08c379a00000000000000000000000000000000000000000000000000000000081526004016136029061454b565b60405180910390fd5b505050565b606082471015613655576040517f08c379a000000000000000000000000000000000000000000000000000000000815260040161364c9061460b565b60405180910390fd5b61365e85612473565b61369d576040517f08c379a0000000000000000000000000000000000000000000000000000000008152600401613694906147eb565b60405180910390fd5b6000808673ffffffffffffffffffffffffffffffffffffffff1685876040516136c69190614392565b60006040518083038185875af1925050503d8060008114613703576040519150601f19603f3d011682016040523d82523d6000602084013e613708565b606091505b50915091506137188282866138f2565b92505050949350505050565b600073ffffffffffffffffffffffffffffffffffffffff168273ffffffffffffffffffffffffffffffffffffffff161415613794576040517f08c379a000000000000000000000000000000000000000000000000000000000815260040161378b906146eb565b60405180910390fd5b61379d8161256d565b156137dd576040517f08c379a00000000000000000000000000000000000000000000000000000000081526004016137d49061458b565b60405180910390fd5b6137e960008383612f07565b6001600460008473ffffffffffffffffffffffffffffffffffffffff1673ffffffffffffffffffffffffffffffffffffffff16815260200190815260200160002060008282546138399190614950565b92505081905550816003600083815260200190815260200160002060006101000a81548173ffffffffffffffffffffffffffffffffffffffff021916908373ffffffffffffffffffffffffffffffffffffffff160217905550808273ffffffffffffffffffffffffffffffffffffffff16600073ffffffffffffffffffffffffffffffffffffffff167fddf252ad1be2c89b69c2b068fc378daa952ba7f163c4a11628f55a4df523b3ef60405160405180910390a45050565b6060831561390257829050613952565b6000835111156139155782518084602001fd5b816040517f08c379a000000000000000000000000000000000000000000000000000000000815260040161394991906144c9565b60405180910390fd5b9392505050565b82805461396590614b57565b90600052602060002090601f01602090048101928261398757600085556139ce565b82601f106139a057805160ff19168380011785556139ce565b828001600101855582156139ce579182015b828111156139cd5782518255916020019190600101906139b2565b5b5090506139db91906139df565b5090565b5b808211156139f85760008160009055506001016139e0565b5090565b6000613a0f613a0a846148ab565b614886565b905082815260208101848484011115613a2b57613a2a614d53565b5b613a36848285614aeb565b509392505050565b6000613a51613a4c846148dc565b614886565b905082815260208101848484011115613a6d57613a6c614d53565b5b613a78848285614aeb565b509392505050565b600081359050613a8f81615478565b92915050565b600081359050613aa48161548f565b92915050565b600081519050613ab98161548f565b92915050565b600081359050613ace816154a6565b92915050565b600081519050613ae3816154a6565b92915050565b600082601f830112613afe57613afd614d4e565b5b8135613b0e8482602086016139fc565b91505092915050565b600081359050613b26816154bd565b92915050565b600082601f830112613b4157613b40614d4e565b5b8135613b51848260208601613a3e565b91505092915050565b600081359050613b69816154d4565b92915050565b600081519050613b7e816154d4565b92915050565b600060208284031215613b9a57613b99614d5d565b5b6000613ba884828501613a80565b91505092915050565b60008060408385031215613bc857613bc7614d5d565b5b6000613bd685828601613a80565b9250506020613be785828601613a80565b9150509250929050565b600080600060608486031215613c0a57613c09614d5d565b5b6000613c1886828701613a80565b9350506020613c2986828701613a80565b9250506040613c3a86828701613b5a565b9150509250925092565b60008060008060808587031215613c5e57613c5d614d5d565b5b6000613c6c87828801613a80565b9450506020613c7d87828801613a80565b9350506040613c8e87828801613b5a565b925050606085013567ffffffffffffffff811115613caf57613cae614d58565b5b613cbb87828801613ae9565b91505092959194509250565b60008060408385031215613cde57613cdd614d5d565b5b6000613cec85828601613a80565b9250506020613cfd85828601613a95565b9150509250929050565b60008060408385031215613d1e57613d1d614d5d565b5b6000613d2c85828601613a80565b9250506020613d3d85828601613b5a565b9150509250929050565b600060208284031215613d5d57613d5c614d5d565b5b6000613d6b84828501613a95565b91505092915050565b600060208284031215613d8a57613d89614d5d565b5b6000613d9884828501613aaa565b91505092915050565b600060208284031215613db757613db6614d5d565b5b6000613dc584828501613abf565b91505092915050565b600060208284031215613de457613de3614d5d565b5b6000613df284828501613ad4565b91505092915050565b600060208284031215613e1157613e10614d5d565b5b6000613e1f84828501613b17565b91505092915050565b600060208284031215613e3e57613e3d614d5d565b5b600082013567ffffffffffffffff811115613e5c57613e5b614d58565b5b613e6884828501613b2c565b91505092915050565b600060208284031215613e8757613e86614d5d565b5b6000613e9584828501613b5a565b91505092915050565b600060208284031215613eb457613eb3614d5d565b5b6000613ec284828501613b6f565b91505092915050565b613ed481614a65565b82525050565b613ee381614a77565b82525050565b6000613ef48261490d565b613efe8185614923565b9350613f0e818560208601614afa565b613f1781614d62565b840191505092915050565b6000613f2d8261490d565b613f378185614934565b9350613f47818560208601614afa565b80840191505092915050565b6000613f5e82614918565b613f68818561493f565b9350613f78818560208601614afa565b613f8181614d62565b840191505092915050565b6000613f9960148361493f565b9150613fa482614d73565b602082019050919050565b6000613fbc60198361493f565b9150613fc782614d9c565b602082019050919050565b6000613fdf602b8361493f565b9150613fea82614dc5565b604082019050919050565b600061400260328361493f565b915061400d82614e14565b604082019050919050565b600061402560268361493f565b915061403082614e63565b604082019050919050565b6000614048601c8361493f565b915061405382614eb2565b602082019050919050565b600061406b60238361493f565b915061407682614edb565b604082019050919050565b600061408e60248361493f565b915061409982614f2a565b604082019050919050565b60006140b160198361493f565b91506140bc82614f79565b602082019050919050565b60006140d460268361493f565b91506140df82614fa2565b604082019050919050565b60006140f7602c8361493f565b915061410282614ff1565b604082019050919050565b600061411a60388361493f565b915061412582615040565b604082019050919050565b600061413d602a8361493f565b91506141488261508f565b604082019050919050565b600061416060298361493f565b915061416b826150de565b604082019050919050565b600061418360268361493f565b915061418e8261512d565b604082019050919050565b60006141a660158361493f565b91506141b18261517c565b602082019050919050565b60006141c960208361493f565b91506141d4826151a5565b602082019050919050565b60006141ec602c8361493f565b91506141f7826151ce565b604082019050919050565b600061420f60208361493f565b915061421a8261521d565b602082019050919050565b600061423260298361493f565b915061423d82615246565b604082019050919050565b600061425560218361493f565b915061426082615295565b604082019050919050565b600061427860158361493f565b9150614283826152e4565b602082019050919050565b600061429b600083614934565b91506142a68261530d565b600082019050919050565b60006142be60108361493f565b91506142c982615310565b602082019050919050565b60006142e160318361493f565b91506142ec82615339565b604082019050919050565b6000614304601d8361493f565b915061430f82615388565b602082019050919050565b6000614327602c8361493f565b9150614332826153b1565b604082019050919050565b600061434a602a8361493f565b915061435582615400565b604082019050919050565b600061436d601f8361493f565b91506143788261544f565b602082019050919050565b61438c81614ae1565b82525050565b600061439e8284613f22565b915081905092915050565b60006143b48261428e565b9150819050919050565b60006020820190506143d36000830184613ecb565b92915050565b60006040820190506143ee6000830185613ecb565b6143fb6020830184613ecb565b9392505050565b60006060820190506144176000830186613ecb565b6144246020830185613ecb565b6144316040830184614383565b949350505050565b600060808201905061444e6000830187613ecb565b61445b6020830186613ecb565b6144686040830185614383565b818103606083015261447a8184613ee9565b905095945050505050565b600060408201905061449a6000830185613ecb565b6144a76020830184614383565b9392505050565b60006020820190506144c36000830184613eda565b92915050565b600060208201905081810360008301526144e38184613f53565b905092915050565b6000602082019050818103600083015261450481613f8c565b9050919050565b6000602082019050818103600083015261452481613faf565b9050919050565b6000602082019050818103600083015261454481613fd2565b9050919050565b6000602082019050818103600083015261456481613ff5565b9050919050565b6000602082019050818103600083015261458481614018565b9050919050565b600060208201905081810360008301526145a48161403b565b9050919050565b600060208201905081810360008301526145c48161405e565b9050919050565b600060208201905081810360008301526145e481614081565b9050919050565b60006020820190508181036000830152614604816140a4565b9050919050565b60006020820190508181036000830152614624816140c7565b9050919050565b60006020820190508181036000830152614644816140ea565b9050919050565b600060208201905081810360008301526146648161410d565b9050919050565b6000602082019050818103600083015261468481614130565b9050919050565b600060208201905081810360008301526146a481614153565b9050919050565b600060208201905081810360008301526146c481614176565b9050919050565b600060208201905081810360008301526146e481614199565b9050919050565b60006020820190508181036000830152614704816141bc565b9050919050565b60006020820190508181036000830152614724816141df565b9050919050565b6000602082019050818103600083015261474481614202565b9050919050565b6000602082019050818103600083015261476481614225565b9050919050565b6000602082019050818103600083015261478481614248565b9050919050565b600060208201905081810360008301526147a48161426b565b9050919050565b600060208201905081810360008301526147c4816142b1565b9050919050565b600060208201905081810360008301526147e4816142d4565b9050919050565b60006020820190508181036000830152614804816142f7565b9050919050565b600060208201905081810360008301526148248161431a565b9050919050565b600060208201905081810360008301526148448161433d565b9050919050565b6000602082019050818103600083015261486481614360565b9050919050565b60006020820190506148806000830184614383565b92915050565b60006148906148a1565b905061489c8282614b89565b919050565b6000604051905090565b600067ffffffffffffffff8211156148c6576148c5614d1f565b5b6148cf82614d62565b9050602081019050919050565b600067ffffffffffffffff8211156148f7576148f6614d1f565b5b61490082614d62565b9050602081019050919050565b600081519050919050565b600081519050919050565b600082825260208201905092915050565b600081905092915050565b600082825260208201905092915050565b600061495b82614ae1565b915061496683614ae1565b9250827fffffffffffffffffffffffffffffffffffffffffffffffffffffffffffffffff0382111561499b5761499a614c34565b5b828201905092915050565b60006149b182614ae1565b91506149bc83614ae1565b9250826149cc576149cb614c63565b5b828204905092915050565b60006149e282614ae1565b91506149ed83614ae1565b9250817fffffffffffffffffffffffffffffffffffffffffffffffffffffffffffffffff0483118215151615614a2657614a25614c34565b5b828202905092915050565b6000614a3c82614ae1565b9150614a4783614ae1565b925082821015614a5a57614a59614c34565b5b828203905092915050565b6000614a7082614ac1565b9050919050565b60008115159050919050565b60007fffffffff0000000000000000000000000000000000000000000000000000000082169050919050565b6000614aba82614a65565b9050919050565b600073ffffffffffffffffffffffffffffffffffffffff82169050919050565b6000819050919050565b82818337600083830152505050565b60005b83811015614b18578082015181840152602081019050614afd565b83811115614b27576000848401525b50505050565b6000614b3882614ae1565b91506000821415614b4c57614b4b614c34565b5b600182039050919050565b60006002820490506001821680614b6f57607f821691505b60208210811415614b8357614b82614c92565b5b50919050565b614b9282614d62565b810181811067ffffffffffffffff82111715614bb157614bb0614d1f565b5b80604052505050565b6000614bc582614ae1565b91507fffffffffffffffffffffffffffffffffffffffffffffffffffffffffffffffff821415614bf857614bf7614c34565b5b600182019050919050565b6000614c0e82614ae1565b9150614c1983614ae1565b925082614c2957614c28614c63565b5b828206905092915050565b7f4e487b7100000000000000000000000000000000000000000000000000000000600052601160045260246000fd5b7f4e487b7100000000000000000000000000000000000000000000000000000000600052601260045260246000fd5b7f4e487b7100000000000000000000000000000000000000000000000000000000600052602260045260246000fd5b7f4e487b7100000000000000000000000000000000000000000000000000000000600052603160045260246000fd5b7f4e487b7100000000000000000000000000000000000000000000000000000000600052603260045260246000fd5b7f4e487b7100000000000000000000000000000000000000000000000000000000600052604160045260246000fd5b600080fd5b600080fd5b600080fd5b600080fd5b6000601f19601f8301169050919050565b7f53616c65206861736e277420737461727465642e000000000000000000000000600082015250565b7f417070726f7665204b39575420666f72207370656e64696e6700000000000000600082015250565b7f455243373231456e756d657261626c653a206f776e657220696e646578206f7560008201527f74206f6620626f756e6473000000000000000000000000000000000000000000602082015250565b7f4552433732313a207472616e7366657220746f206e6f6e20455243373231526560008201527f63656976657220696d706c656d656e7465720000000000000000000000000000602082015250565b7f4f776e61626c653a206e6577206f776e657220697320746865207a65726f206160008201527f6464726573730000000000000000000000000000000000000000000000000000602082015250565b7f4552433732313a20746f6b656e20616c7265616479206d696e74656400000000600082015250565b7f5468657265206172656e27742074686973206d616e7920746f6b656e73206c6560008201527f66742e0000000000000000000000000000000000000000000000000000000000602082015250565b7f4552433732313a207472616e7366657220746f20746865207a65726f2061646460008201527f7265737300000000000000000000000000000000000000000000000000000000602082015250565b7f4552433732313a20617070726f766520746f2063616c6c657200000000000000600082015250565b7f416464726573733a20696e73756666696369656e742062616c616e636520666f60008201527f722063616c6c0000000000000000000000000000000000000000000000000000602082015250565b7f4552433732313a206f70657261746f7220717565727920666f72206e6f6e657860008201527f697374656e7420746f6b656e0000000000000000000000000000000000000000602082015250565b7f4552433732313a20617070726f76652063616c6c6572206973206e6f74206f7760008201527f6e6572206e6f7220617070726f76656420666f7220616c6c0000000000000000602082015250565b7f4552433732313a2062616c616e636520717565727920666f7220746865207a6560008201527f726f206164647265737300000000000000000000000000000000000000000000602082015250565b7f4552433732313a206f776e657220717565727920666f72206e6f6e657869737460008201527f656e7420746f6b656e0000000000000000000000000000000000000000000000602082015250565b7f546f6f206c6974746c652073656e742c20706c656173652073656e64206d6f7260008201527f65206574682e0000000000000000000000000000000000000000000000000000602082015250565b7f4e6f20746f6b656e7320746f2077697468647261770000000000000000000000600082015250565b7f4552433732313a206d696e7420746f20746865207a65726f2061646472657373600082015250565b7f4552433732313a20617070726f76656420717565727920666f72206e6f6e657860008201527f697374656e7420746f6b656e0000000000000000000000000000000000000000602082015250565b7f4f776e61626c653a2063616c6c6572206973206e6f7420746865206f776e6572600082015250565b7f4552433732313a207472616e73666572206f6620746f6b656e2074686174206960008201527f73206e6f74206f776e0000000000000000000000000000000000000000000000602082015250565b7f4552433732313a20617070726f76616c20746f2063757272656e74206f776e6560008201527f7200000000000000000000000000000000000000000000000000000000000000602082015250565b7f4d696e74696e67204c696d697420526561636865640000000000000000000000600082015250565b50565b7f5472616e73666572206661696c65642e00000000000000000000000000000000600082015250565b7f4552433732313a207472616e736665722063616c6c6572206973206e6f74206f60008201527f776e6572206e6f7220617070726f766564000000000000000000000000000000602082015250565b7f416464726573733a2063616c6c20746f206e6f6e2d636f6e7472616374000000600082015250565b7f455243373231456e756d657261626c653a20676c6f62616c20696e646578206f60008201527f7574206f6620626f756e64730000000000000000000000000000000000000000602082015250565b7f5361666545524332303a204552433230206f7065726174696f6e20646964206e60008201527f6f74207375636365656400000000000000000000000000000000000000000000602082015250565b7f5265656e7472616e637947756172643a207265656e7472616e742063616c6c00600082015250565b61548181614a65565b811461548c57600080fd5b50565b61549881614a77565b81146154a357600080fd5b50565b6154af81614a83565b81146154ba57600080fd5b50565b6154c681614aaf565b81146154d157600080fd5b50565b6154dd81614ae1565b81146154e857600080fd5b5056fea26469706673582212200cb6946e26049aa7725ee111bb8e518d6b36a08484938454c28738bd1c27aa1964736f6c63430008070033",
  "immutableReferences": {
    "2481": [
      {
        "length": 32,
        "start": 6145
      }
    ],
    "2497": [
      {
        "length": 32,
        "start": 3821
      },
      {
        "length": 32,
        "start": 5666
      },
      {
        "length": 32,
        "start": 8522
      }
    ],
    "2505": [
      {
        "length": 32,
        "start": 5498
      },
      {
        "length": 32,
        "start": 8230
      }
    ]
  },
  "source": "// SPDX-License-Identifier: MIT\n\npragma solidity ^0.8.7;\n\nimport \"@openzeppelin/contracts/access/Ownable.sol\";\nimport \"@openzeppelin/contracts/token/ERC721/ERC721.sol\";\nimport \"@openzeppelin/contracts/token/ERC721/extensions/ERC721Enumerable.sol\";\nimport \"@openzeppelin/contracts/security/ReentrancyGuard.sol\";\nimport \"@openzeppelin/contracts/utils/Counters.sol\";\nimport \"@openzeppelin/contracts/token/ERC20/IERC20.sol\";\nimport \"@openzeppelin/contracts/token/ERC20/utils/SafeERC20.sol\";\n\ncontract K9WalletGuardians is Ownable, ERC721Enumerable, ReentrancyGuard {\n    using Counters for Counters.Counter;\n\n    constructor(IERC20 _token, address _dev)\n        ERC721(\"K9 Wallet Guardians\", \"K9WG\")\n    {\n        _developer = _dev;\n        _k9WalletToken = _token;\n        // Set initial Rate to 200,000 K9WT\n        _K9WTRate = 200000;\n\n        // mint the first 10 to developer\n        _mint(10, _dev);\n    }\n\n    uint256 public constant MINT_LIMIT = 50;\n    uint256 private _numAvailableTokens = 10000;\n    // 0.015 ETH per token\n    uint256 private immutable _ethRate = 0.015 ether;\n    // max Guardians available\n    uint256 private _maxGuardians = 10000;\n    Counters.Counter private _tokenIdTracker;\n    IERC20 private _k9WalletToken;\n    // K9Wallet Tokens per Guardian\n    uint256 private _K9WTRate;\n    bool public isSaleOn = false;\n    address private immutable _developer;\n    // contract metadata URI for opensea\n    string public contractURI;\n\n    bool public limitedDarkThemeTokensEnabled = false;\n    // Only Tokens with id 1 - 100 are Dark Theme enabled\n    uint256 public immutable darkThemeTokensLastID = 100;\n\n    function buyWithETH(uint256 _numToMint) public payable nonReentrant {\n        require(isSaleOn, \"Sale hasn't started.\");\n        uint256 totalSupply = totalSupply();\n        require(\n            totalSupply + _numToMint <= numMaxGuardians(),\n            \"There aren't this many tokens left.\"\n        );\n        uint256 nftCost = getETHPriceForTokens(_numToMint);\n        require(\n            msg.value >= nftCost,\n            \"Too little sent, please send more eth.\"\n        );\n        _mint(_numToMint, msg.sender);\n    }\n\n    function buyWithK9WT(uint256 _numToMint) public nonReentrant {\n        require(isSaleOn, \"Sale hasn't started.\");\n        uint256 totalSupply = totalSupply();\n        require(\n            totalSupply + _numToMint <= numMaxGuardians(),\n            \"There aren't this many tokens left.\"\n        );\n        uint256 costForMintingTokens = getK9WTPriceForTokens(_numToMint);\n\n        require(\n            _k9WalletToken.allowance(msg.sender, address(this)) >=\n                costForMintingTokens,\n            \"Approve K9WT for spending\"\n        );\n\n        SafeERC20.safeTransferFrom(\n            _k9WalletToken,\n            msg.sender,\n            address(this),\n            costForMintingTokens\n        );\n\n        _mint(_numToMint, msg.sender);\n    }\n\n    function K9WTApprovalAmount(address buyer) external view returns (uint256) {\n        return _k9WalletToken.allowance(buyer, address(this));\n    }\n\n    // internal minting function\n    function _mint(uint256 _numToMint, address reciever) internal {\n        require(_numToMint <= MINT_LIMIT, \"Minting Limit Reached\");\n\n        uint256 updatedNumAvailableTokens = _numAvailableTokens;\n        for (uint256 i = 0; i < _numToMint; i++) {\n            uint256 newTokenId = _tokenIdTracker.current();\n            _safeMint(reciever, newTokenId);\n            _tokenIdTracker.increment();\n            updatedNumAvailableTokens--;\n        }\n        _numAvailableTokens = updatedNumAvailableTokens;\n    }\n\n    function getETHPriceForTokens(uint256 _numToMint)\n        public\n        view\n        returns (uint256)\n    {\n        require(\n            totalSupply() + _numToMint <= numMaxGuardians(),\n            \"There aren't this many tokens left.\"\n        );\n\n        return _numToMint * _ethRate;\n    }\n\n    function getK9WTPriceForTokens(uint256 _numToMint)\n        public\n        view\n        returns (uint256)\n    {\n        require(\n            totalSupply() + _numToMint <= numMaxGuardians(),\n            \"There aren't this many tokens left.\"\n        );\n\n        return _numToMint * _K9WTRate;\n    }\n\n    function numMaxGuardians() public view virtual returns (uint256) {\n        return _maxGuardians;\n    }\n\n    function currencK9WTRate() public view virtual returns (uint256) {\n        return _K9WTRate;\n    }\n\n    /*\n     * Dev stuff\n     */\n\n    // metadata URI\n    string private _baseTokenURI;\n    string private _darkThemeURI;\n\n    function _baseURI() internal view virtual override returns (string memory) {\n        return _baseTokenURI;\n    }\n\n    function mintToDeveloper(uint256 _numToMint) external {\n        _mint(_numToMint, _developer);\n    }\n\n    function setBaseURI(string memory baseURI) external onlyOwner {\n        _baseTokenURI = baseURI;\n    }\n\n    function setDarkThemeURI(string memory darkURI) external onlyOwner {\n        _darkThemeURI = darkURI;\n        limitedDarkThemeTokensEnabled = true;\n    }\n\n    function tokenURI(uint256 _tokenId)\n        public\n        view\n        override\n        returns (string memory)\n    {\n        if (\n            limitedDarkThemeTokensEnabled && _tokenId <= darkThemeTokensLastID\n        ) {\n            if (bytes(_darkThemeURI).length == 0) {\n                string memory _darkTokenURI = Strings.toString(_tokenId);\n                return _darkTokenURI;\n            }\n\n            return _darkThemeURI;\n        }\n        string memory base = _baseURI();\n        \n\n        // If there is no base URI, return the token URI.\n        if (bytes(base).length == 0) {\n            string memory _tokenURI = Strings.toString(_tokenId);\n            return _tokenURI;\n        }\n\n        return base;\n    }\n\n    function startSale() public onlyOwner {\n        isSaleOn = true;\n    }\n\n    function endSale() public onlyOwner {\n        isSaleOn = false;\n    }\n\n    function isSaleOpen() public view returns (bool) {\n       return isSaleOn;\n    }\n\n    // Given the fluctuating price of K9WT, the rate may need to be updated\n    function setK9WalletTokenRate(uint256 _newRate) public onlyOwner {\n        _K9WTRate = _newRate;\n    }\n\n    function burnAvailableK9WT() public {\n        uint256 amount = _k9WalletToken.balanceOf(address(this));\n        SafeERC20.safeTransfer(\n            _k9WalletToken,\n            0x000000000000000000000000000000000000dEaD,\n            amount\n        );\n    }\n\n    function setContractURI(string memory _contractURI) external onlyOwner {\n        contractURI = _contractURI;\n    }\n\n    // withdraw ERC20 tokens\n    function withdrawAnyERC20(IERC20 token) external onlyOwner {\n        uint256 amount = token.balanceOf(address(this));\n        require(amount > 0, \"No tokens to withdraw\");\n        token.transfer(_developer, amount);\n    }\n\n    function withdrawMoney(bool toDeveloper) public payable onlyOwner {\n        if (toDeveloper) {\n            (bool success, ) = _developer.call{value: address(this).balance}(\n                \"\"\n            );\n            require(success, \"Transfer failed.\");\n        } else {\n            (bool success, ) = msg.sender.call{value: address(this).balance}(\n                \"\"\n            );\n            require(success, \"Transfer failed.\");\n        }\n    }\n}\n",
  "sourcePath": "/Users/edgartremillo/Dev/blockchain/k9wallet_nft/contracts/K9WalletGuardians.sol",
  "compiler": {
    "name": "solc",
    "version": "0.8.7+commit.e28d00a7.Emscripten.clang"
  },
  "schemaVersion": "3.4.3",
  "updatedAt": "2021-08-20T10:44:37.419Z",
  "devdoc": {
    "kind": "dev",
    "methods": {
      "approve(address,uint256)": {
        "details": "See {IERC721-approve}."
      },
      "balanceOf(address)": {
        "details": "See {IERC721-balanceOf}."
      },
      "getApproved(uint256)": {
        "details": "See {IERC721-getApproved}."
      },
      "isApprovedForAll(address,address)": {
        "details": "See {IERC721-isApprovedForAll}."
      },
      "name()": {
        "details": "See {IERC721Metadata-name}."
      },
      "owner()": {
        "details": "Returns the address of the current owner."
      },
      "ownerOf(uint256)": {
        "details": "See {IERC721-ownerOf}."
      },
      "renounceOwnership()": {
        "details": "Leaves the contract without owner. It will not be possible to call `onlyOwner` functions anymore. Can only be called by the current owner. NOTE: Renouncing ownership will leave the contract without an owner, thereby removing any functionality that is only available to the owner."
      },
      "safeTransferFrom(address,address,uint256)": {
        "details": "See {IERC721-safeTransferFrom}."
      },
      "safeTransferFrom(address,address,uint256,bytes)": {
        "details": "See {IERC721-safeTransferFrom}."
      },
      "setApprovalForAll(address,bool)": {
        "details": "See {IERC721-setApprovalForAll}."
      },
      "supportsInterface(bytes4)": {
        "details": "See {IERC165-supportsInterface}."
      },
      "symbol()": {
        "details": "See {IERC721Metadata-symbol}."
      },
      "tokenByIndex(uint256)": {
        "details": "See {IERC721Enumerable-tokenByIndex}."
      },
      "tokenOfOwnerByIndex(address,uint256)": {
        "details": "See {IERC721Enumerable-tokenOfOwnerByIndex}."
      },
      "totalSupply()": {
        "details": "See {IERC721Enumerable-totalSupply}."
      },
      "transferFrom(address,address,uint256)": {
        "details": "See {IERC721-transferFrom}."
      },
      "transferOwnership(address)": {
        "details": "Transfers ownership of the contract to a new account (`newOwner`). Can only be called by the current owner."
      }
    },
    "version": 1
  },
  "userdoc": {
    "kind": "user",
    "methods": {},
    "version": 1
  }
}