{
  "contractName": "K9WalletGuardians",
  "abi": [
    {
      "inputs": [
        {
          "internalType": "contract IERC20",
          "name": "_token",
          "type": "address"
        },
        {
          "internalType": "address",
          "name": "_dev",
          "type": "address"
        }
      ],
      "stateMutability": "nonpayable",
      "type": "constructor"
    },
    {
      "anonymous": false,
      "inputs": [
        {
          "indexed": true,
          "internalType": "address",
          "name": "owner",
          "type": "address"
        },
        {
          "indexed": true,
          "internalType": "address",
          "name": "approved",
          "type": "address"
        },
        {
          "indexed": true,
          "internalType": "uint256",
          "name": "tokenId",
          "type": "uint256"
        }
      ],
      "name": "Approval",
      "type": "event"
    },
    {
      "anonymous": false,
      "inputs": [
        {
          "indexed": true,
          "internalType": "address",
          "name": "owner",
          "type": "address"
        },
        {
          "indexed": true,
          "internalType": "address",
          "name": "operator",
          "type": "address"
        },
        {
          "indexed": false,
          "internalType": "bool",
          "name": "approved",
          "type": "bool"
        }
      ],
      "name": "ApprovalForAll",
      "type": "event"
    },
    {
      "anonymous": false,
      "inputs": [
        {
          "indexed": true,
          "internalType": "address",
          "name": "previousOwner",
          "type": "address"
        },
        {
          "indexed": true,
          "internalType": "address",
          "name": "newOwner",
          "type": "address"
        }
      ],
      "name": "OwnershipTransferred",
      "type": "event"
    },
    {
      "anonymous": false,
      "inputs": [
        {
          "indexed": true,
          "internalType": "address",
          "name": "from",
          "type": "address"
        },
        {
          "indexed": true,
          "internalType": "address",
          "name": "to",
          "type": "address"
        },
        {
          "indexed": true,
          "internalType": "uint256",
          "name": "tokenId",
          "type": "uint256"
        }
      ],
      "name": "Transfer",
      "type": "event"
    },
    {
      "inputs": [],
      "name": "MINT_LIMIT",
      "outputs": [
        {
          "internalType": "uint256",
          "name": "",
          "type": "uint256"
        }
      ],
      "stateMutability": "view",
      "type": "function"
    },
    {
      "inputs": [
        {
          "internalType": "address",
          "name": "to",
          "type": "address"
        },
        {
          "internalType": "uint256",
          "name": "tokenId",
          "type": "uint256"
        }
      ],
      "name": "approve",
      "outputs": [],
      "stateMutability": "nonpayable",
      "type": "function"
    },
    {
      "inputs": [
        {
          "internalType": "address",
          "name": "owner",
          "type": "address"
        }
      ],
      "name": "balanceOf",
      "outputs": [
        {
          "internalType": "uint256",
          "name": "",
          "type": "uint256"
        }
      ],
      "stateMutability": "view",
      "type": "function"
    },
    {
      "inputs": [],
      "name": "contractURI",
      "outputs": [
        {
          "internalType": "string",
          "name": "",
          "type": "string"
        }
      ],
      "stateMutability": "view",
      "type": "function"
    },
    {
      "inputs": [],
      "name": "darkThemeTokensLastID",
      "outputs": [
        {
          "internalType": "uint256",
          "name": "",
          "type": "uint256"
        }
      ],
      "stateMutability": "view",
      "type": "function"
    },
    {
      "inputs": [
        {
          "internalType": "uint256",
          "name": "tokenId",
          "type": "uint256"
        }
      ],
      "name": "getApproved",
      "outputs": [
        {
          "internalType": "address",
          "name": "",
          "type": "address"
        }
      ],
      "stateMutability": "view",
      "type": "function"
    },
    {
      "inputs": [
        {
          "internalType": "address",
          "name": "owner",
          "type": "address"
        },
        {
          "internalType": "address",
          "name": "operator",
          "type": "address"
        }
      ],
      "name": "isApprovedForAll",
      "outputs": [
        {
          "internalType": "bool",
          "name": "",
          "type": "bool"
        }
      ],
      "stateMutability": "view",
      "type": "function"
    },
    {
      "inputs": [],
      "name": "isSaleOn",
      "outputs": [
        {
          "internalType": "bool",
          "name": "",
          "type": "bool"
        }
      ],
      "stateMutability": "view",
      "type": "function"
    },
    {
      "inputs": [],
      "name": "limitedDarkThemeTokensEnabled",
      "outputs": [
        {
          "internalType": "bool",
          "name": "",
          "type": "bool"
        }
      ],
      "stateMutability": "view",
      "type": "function"
    },
    {
      "inputs": [],
      "name": "name",
      "outputs": [
        {
          "internalType": "string",
          "name": "",
          "type": "string"
        }
      ],
      "stateMutability": "view",
      "type": "function"
    },
    {
      "inputs": [],
      "name": "owner",
      "outputs": [
        {
          "internalType": "address",
          "name": "",
          "type": "address"
        }
      ],
      "stateMutability": "view",
      "type": "function"
    },
    {
      "inputs": [
        {
          "internalType": "uint256",
          "name": "tokenId",
          "type": "uint256"
        }
      ],
      "name": "ownerOf",
      "outputs": [
        {
          "internalType": "address",
          "name": "",
          "type": "address"
        }
      ],
      "stateMutability": "view",
      "type": "function"
    },
    {
      "inputs": [],
      "name": "renounceOwnership",
      "outputs": [],
      "stateMutability": "nonpayable",
      "type": "function"
    },
    {
      "inputs": [
        {
          "internalType": "address",
          "name": "from",
          "type": "address"
        },
        {
          "internalType": "address",
          "name": "to",
          "type": "address"
        },
        {
          "internalType": "uint256",
          "name": "tokenId",
          "type": "uint256"
        }
      ],
      "name": "safeTransferFrom",
      "outputs": [],
      "stateMutability": "nonpayable",
      "type": "function"
    },
    {
      "inputs": [
        {
          "internalType": "address",
          "name": "from",
          "type": "address"
        },
        {
          "internalType": "address",
          "name": "to",
          "type": "address"
        },
        {
          "internalType": "uint256",
          "name": "tokenId",
          "type": "uint256"
        },
        {
          "internalType": "bytes",
          "name": "_data",
          "type": "bytes"
        }
      ],
      "name": "safeTransferFrom",
      "outputs": [],
      "stateMutability": "nonpayable",
      "type": "function"
    },
    {
      "inputs": [
        {
          "internalType": "address",
          "name": "operator",
          "type": "address"
        },
        {
          "internalType": "bool",
          "name": "approved",
          "type": "bool"
        }
      ],
      "name": "setApprovalForAll",
      "outputs": [],
      "stateMutability": "nonpayable",
      "type": "function"
    },
    {
      "inputs": [
        {
          "internalType": "bytes4",
          "name": "interfaceId",
          "type": "bytes4"
        }
      ],
      "name": "supportsInterface",
      "outputs": [
        {
          "internalType": "bool",
          "name": "",
          "type": "bool"
        }
      ],
      "stateMutability": "view",
      "type": "function"
    },
    {
      "inputs": [],
      "name": "symbol",
      "outputs": [
        {
          "internalType": "string",
          "name": "",
          "type": "string"
        }
      ],
      "stateMutability": "view",
      "type": "function"
    },
    {
      "inputs": [
        {
          "internalType": "uint256",
          "name": "index",
          "type": "uint256"
        }
      ],
      "name": "tokenByIndex",
      "outputs": [
        {
          "internalType": "uint256",
          "name": "",
          "type": "uint256"
        }
      ],
      "stateMutability": "view",
      "type": "function"
    },
    {
      "inputs": [
        {
          "internalType": "address",
          "name": "owner",
          "type": "address"
        },
        {
          "internalType": "uint256",
          "name": "index",
          "type": "uint256"
        }
      ],
      "name": "tokenOfOwnerByIndex",
      "outputs": [
        {
          "internalType": "uint256",
          "name": "",
          "type": "uint256"
        }
      ],
      "stateMutability": "view",
      "type": "function"
    },
    {
      "inputs": [],
      "name": "totalSupply",
      "outputs": [
        {
          "internalType": "uint256",
          "name": "",
          "type": "uint256"
        }
      ],
      "stateMutability": "view",
      "type": "function"
    },
    {
      "inputs": [
        {
          "internalType": "address",
          "name": "from",
          "type": "address"
        },
        {
          "internalType": "address",
          "name": "to",
          "type": "address"
        },
        {
          "internalType": "uint256",
          "name": "tokenId",
          "type": "uint256"
        }
      ],
      "name": "transferFrom",
      "outputs": [],
      "stateMutability": "nonpayable",
      "type": "function"
    },
    {
      "inputs": [
        {
          "internalType": "address",
          "name": "newOwner",
          "type": "address"
        }
      ],
      "name": "transferOwnership",
      "outputs": [],
      "stateMutability": "nonpayable",
      "type": "function"
    },
    {
      "inputs": [
        {
          "internalType": "uint256",
          "name": "_numToMint",
          "type": "uint256"
        }
      ],
      "name": "buyWithETH",
      "outputs": [],
      "stateMutability": "payable",
      "type": "function"
    },
    {
      "inputs": [
        {
          "internalType": "uint256",
          "name": "_numToMint",
          "type": "uint256"
        }
      ],
      "name": "buyWithK9WT",
      "outputs": [],
      "stateMutability": "nonpayable",
      "type": "function"
    },
    {
      "inputs": [
        {
          "internalType": "uint256",
          "name": "_numToPurchase",
          "type": "uint256"
        }
      ],
      "name": "approveK9WTForPurchasing",
      "outputs": [],
      "stateMutability": "nonpayable",
      "type": "function"
    },
    {
      "inputs": [
        {
          "internalType": "address",
          "name": "buyer",
          "type": "address"
        }
      ],
      "name": "K9WTApprovalAmount",
      "outputs": [
        {
          "internalType": "uint256",
          "name": "",
          "type": "uint256"
        }
      ],
      "stateMutability": "view",
      "type": "function"
    },
    {
      "inputs": [
        {
          "internalType": "uint256",
          "name": "_numToMint",
          "type": "uint256"
        }
      ],
      "name": "getETHPriceForTokens",
      "outputs": [
        {
          "internalType": "uint256",
          "name": "",
          "type": "uint256"
        }
      ],
      "stateMutability": "view",
      "type": "function"
    },
    {
      "inputs": [
        {
          "internalType": "uint256",
          "name": "_numToMint",
          "type": "uint256"
        }
      ],
      "name": "getK9WTPriceForTokens",
      "outputs": [
        {
          "internalType": "uint256",
          "name": "",
          "type": "uint256"
        }
      ],
      "stateMutability": "view",
      "type": "function"
    },
    {
      "inputs": [],
      "name": "numMaxGuardians",
      "outputs": [
        {
          "internalType": "uint256",
          "name": "",
          "type": "uint256"
        }
      ],
      "stateMutability": "view",
      "type": "function"
    },
    {
      "inputs": [],
      "name": "currencK9WTRate",
      "outputs": [
        {
          "internalType": "uint256",
          "name": "",
          "type": "uint256"
        }
      ],
      "stateMutability": "view",
      "type": "function"
    },
    {
      "inputs": [
        {
          "internalType": "string",
          "name": "baseURI",
          "type": "string"
        }
      ],
      "name": "setBaseURI",
      "outputs": [],
      "stateMutability": "nonpayable",
      "type": "function"
    },
    {
      "inputs": [
        {
          "internalType": "string",
          "name": "darkURI",
          "type": "string"
        }
      ],
      "name": "setDarkThemeURI",
      "outputs": [],
      "stateMutability": "nonpayable",
      "type": "function"
    },
    {
      "inputs": [
        {
          "internalType": "uint256",
          "name": "_tokenId",
          "type": "uint256"
        }
      ],
      "name": "tokenURI",
      "outputs": [
        {
          "internalType": "string",
          "name": "",
          "type": "string"
        }
      ],
      "stateMutability": "view",
      "type": "function"
    },
    {
      "inputs": [],
      "name": "startSale",
      "outputs": [],
      "stateMutability": "nonpayable",
      "type": "function"
    },
    {
      "inputs": [],
      "name": "endSale",
      "outputs": [],
      "stateMutability": "nonpayable",
      "type": "function"
    },
    {
      "inputs": [],
      "name": "isSaleOpen",
      "outputs": [
        {
          "internalType": "bool",
          "name": "",
          "type": "bool"
        }
      ],
      "stateMutability": "view",
      "type": "function"
    },
    {
      "inputs": [
        {
          "internalType": "uint256",
          "name": "_newRate",
          "type": "uint256"
        }
      ],
      "name": "setK9WalletTokenRate",
      "outputs": [],
      "stateMutability": "nonpayable",
      "type": "function"
    },
    {
      "inputs": [],
      "name": "burnAvailableK9WT",
      "outputs": [],
      "stateMutability": "nonpayable",
      "type": "function"
    },
    {
      "inputs": [
        {
          "internalType": "string",
          "name": "_contractURI",
          "type": "string"
        }
      ],
      "name": "setContractURI",
      "outputs": [],
      "stateMutability": "nonpayable",
      "type": "function"
    },
    {
      "inputs": [
        {
          "internalType": "contract IERC20",
          "name": "token",
          "type": "address"
        }
      ],
      "name": "withdrawAnyERC20",
      "outputs": [],
      "stateMutability": "nonpayable",
      "type": "function"
    },
    {
      "inputs": [
        {
          "internalType": "bool",
          "name": "toDeveloper",
          "type": "bool"
        }
      ],
      "name": "withdrawMoney",
      "outputs": [],
      "stateMutability": "payable",
      "type": "function"
    }
  ],
  "bytecode": "0x60e0604052612710600c5566354a6ba7a18000608090815250612710600d556000601160006101000a81548160ff0219169083151502179055506000601360006101000a81548160ff021916908315150217905550606460c0908152503480156200006957600080fd5b5060405162006bcb38038062006bcb83398181016040528101906200008f919062000ec5565b6040518060400160405280601381526020017f4b392057616c6c657420477561726469616e73000000000000000000000000008152506040518060400160405280600481526020017f4b395747000000000000000000000000000000000000000000000000000000008152506200011b6200010f620001f460201b60201c565b620001fc60201b60201c565b81600190805190602001906200013392919062000d9e565b5080600290805190602001906200014c92919062000d9e565b5050506001600b819055508073ffffffffffffffffffffffffffffffffffffffff1660a08173ffffffffffffffffffffffffffffffffffffffff1660601b8152505081600f60006101000a81548173ffffffffffffffffffffffffffffffffffffffff021916908373ffffffffffffffffffffffffffffffffffffffff16021790555062030d40601081905550620001ec601482620002c060201b60201c565b505062001595565b600033905090565b60008060009054906101000a900473ffffffffffffffffffffffffffffffffffffffff169050816000806101000a81548173ffffffffffffffffffffffffffffffffffffffff021916908373ffffffffffffffffffffffffffffffffffffffff1602179055508173ffffffffffffffffffffffffffffffffffffffff168173ffffffffffffffffffffffffffffffffffffffff167f8be0079c531659141344cd1fd0a4f28419497f9722a3daafe3b4186f6b6457e060405160405180910390a35050565b603282111562000307576040517f08c379a0000000000000000000000000000000000000000000000000000000008152600401620002fe906200110e565b60405180910390fd5b6000600c54905060005b838110156200038557600062000333600e6200039260201b620025231760201c565b9050620003478482620003a060201b60201c565b6200035e600e620003c660201b620025311760201c565b82806200036b90620012a9565b9350505080806200037c906200130e565b91505062000311565b5080600c81905550505050565b600081600001549050919050565b620003c2828260405180602001604052806000815250620003dc60201b60201c565b5050565b6001816000016000828254019250508190555050565b620003ee83836200044a60201b60201c565b6200040360008484846200063060201b60201c565b62000445576040517f08c379a00000000000000000000000000000000000000000000000000000000081526004016200043c9062001086565b60405180910390fd5b505050565b600073ffffffffffffffffffffffffffffffffffffffff168273ffffffffffffffffffffffffffffffffffffffff161415620004bd576040517f08c379a0000000000000000000000000000000000000000000000000000000008152600401620004b490620010ec565b60405180910390fd5b620004ce81620007ea60201b60201c565b1562000511576040517f08c379a00000000000000000000000000000000000000000000000000000000081526004016200050890620010a8565b60405180910390fd5b62000525600083836200085660201b60201c565b6001600460008473ffffffffffffffffffffffffffffffffffffffff1673ffffffffffffffffffffffffffffffffffffffff16815260200190815260200160002060008282546200057791906200115d565b92505081905550816003600083815260200190815260200160002060006101000a81548173ffffffffffffffffffffffffffffffffffffffff021916908373ffffffffffffffffffffffffffffffffffffffff160217905550808273ffffffffffffffffffffffffffffffffffffffff16600073ffffffffffffffffffffffffffffffffffffffff167fddf252ad1be2c89b69c2b068fc378daa952ba7f163c4a11628f55a4df523b3ef60405160405180910390a45050565b60006200065e8473ffffffffffffffffffffffffffffffffffffffff166200099d60201b620025471760201c565b15620007dd578373ffffffffffffffffffffffffffffffffffffffff1663150b7a0262000690620001f460201b60201c565b8786866040518563ffffffff1660e01b8152600401620006b4949392919062001032565b602060405180830381600087803b158015620006cf57600080fd5b505af19250505080156200070357506040513d601f19601f8201168201806040525081019062000700919062000e93565b60015b6200078c573d806000811462000736576040519150601f19603f3d011682016040523d82523d6000602084013e6200073b565b606091505b5060008151141562000784576040517f08c379a00000000000000000000000000000000000000000000000000000000081526004016200077b9062001086565b60405180910390fd5b805181602001fd5b63150b7a0260e01b7bffffffffffffffffffffffffffffffffffffffffffffffffffffffff1916817bffffffffffffffffffffffffffffffffffffffffffffffffffffffff191614915050620007e2565b600190505b949350505050565b60008073ffffffffffffffffffffffffffffffffffffffff166003600084815260200190815260200160002060009054906101000a900473ffffffffffffffffffffffffffffffffffffffff1673ffffffffffffffffffffffffffffffffffffffff1614159050919050565b6200086e838383620009b060201b6200255a1760201c565b600073ffffffffffffffffffffffffffffffffffffffff168373ffffffffffffffffffffffffffffffffffffffff161415620008bb57620008b581620009b560201b60201c565b62000903565b8173ffffffffffffffffffffffffffffffffffffffff168373ffffffffffffffffffffffffffffffffffffffff16146200090257620009018382620009fe60201b60201c565b5b5b600073ffffffffffffffffffffffffffffffffffffffff168273ffffffffffffffffffffffffffffffffffffffff16141562000950576200094a8162000b7b60201b60201c565b62000998565b8273ffffffffffffffffffffffffffffffffffffffff168273ffffffffffffffffffffffffffffffffffffffff1614620009975762000996828262000c5760201b60201c565b5b5b505050565b600080823b905060008111915050919050565b505050565b600980549050600a600083815260200190815260200160002081905550600981908060018154018082558091505060019003906000526020600020016000909190919091505550565b6000600162000a188462000ce360201b620018321760201c565b62000a249190620011ba565b905060006008600084815260200190815260200160002054905081811462000b0a576000600760008673ffffffffffffffffffffffffffffffffffffffff1673ffffffffffffffffffffffffffffffffffffffff168152602001908152602001600020600084815260200190815260200160002054905080600760008773ffffffffffffffffffffffffffffffffffffffff1673ffffffffffffffffffffffffffffffffffffffff168152602001908152602001600020600084815260200190815260200160002081905550816008600083815260200190815260200160002081905550505b6008600084815260200190815260200160002060009055600760008573ffffffffffffffffffffffffffffffffffffffff1673ffffffffffffffffffffffffffffffffffffffff16815260200190815260200160002060008381526020019081526020016000206000905550505050565b6000600160098054905062000b919190620011ba565b90506000600a600084815260200190815260200160002054905060006009838154811062000bc45762000bc3620013e9565b5b90600052602060002001549050806009838154811062000be95762000be8620013e9565b5b906000526020600020018190555081600a600083815260200190815260200160002081905550600a600085815260200190815260200160002060009055600980548062000c3b5762000c3a620013ba565b5b6001900381819060005260206000200160009055905550505050565b600062000c6f8362000ce360201b620018321760201c565b905081600760008573ffffffffffffffffffffffffffffffffffffffff1673ffffffffffffffffffffffffffffffffffffffff168152602001908152602001600020600083815260200190815260200160002081905550806008600084815260200190815260200160002081905550505050565b60008073ffffffffffffffffffffffffffffffffffffffff168273ffffffffffffffffffffffffffffffffffffffff16141562000d57576040517f08c379a000000000000000000000000000000000000000000000000000000000815260040162000d4e90620010ca565b60405180910390fd5b600460008373ffffffffffffffffffffffffffffffffffffffff1673ffffffffffffffffffffffffffffffffffffffff168152602001908152602001600020549050919050565b82805462000dac90620012d8565b90600052602060002090601f01602090048101928262000dd0576000855562000e1c565b82601f1062000deb57805160ff191683800117855562000e1c565b8280016001018555821562000e1c579182015b8281111562000e1b57825182559160200191906001019062000dfe565b5b50905062000e2b919062000e2f565b5090565b5b8082111562000e4a57600081600090555060010162000e30565b5090565b60008151905062000e5f8162001547565b92915050565b60008151905062000e768162001561565b92915050565b60008151905062000e8d816200157b565b92915050565b60006020828403121562000eac5762000eab62001418565b5b600062000ebc8482850162000e65565b91505092915050565b6000806040838503121562000edf5762000ede62001418565b5b600062000eef8582860162000e7c565b925050602062000f028582860162000e4e565b9150509250929050565b62000f1781620011f5565b82525050565b600062000f2a8262001130565b62000f3681856200113b565b935062000f4881856020860162001273565b62000f53816200141d565b840191505092915050565b600062000f6d6032836200114c565b915062000f7a826200142e565b604082019050919050565b600062000f94601c836200114c565b915062000fa1826200147d565b602082019050919050565b600062000fbb602a836200114c565b915062000fc882620014a6565b604082019050919050565b600062000fe26020836200114c565b915062000fef82620014f5565b602082019050919050565b6000620010096015836200114c565b915062001016826200151e565b602082019050919050565b6200102c8162001269565b82525050565b600060808201905062001049600083018762000f0c565b62001058602083018662000f0c565b62001067604083018562001021565b81810360608301526200107b818462000f1d565b905095945050505050565b60006020820190508181036000830152620010a18162000f5e565b9050919050565b60006020820190508181036000830152620010c38162000f85565b9050919050565b60006020820190508181036000830152620010e58162000fac565b9050919050565b60006020820190508181036000830152620011078162000fd3565b9050919050565b60006020820190508181036000830152620011298162000ffa565b9050919050565b600081519050919050565b600082825260208201905092915050565b600082825260208201905092915050565b60006200116a8262001269565b9150620011778362001269565b9250827fffffffffffffffffffffffffffffffffffffffffffffffffffffffffffffffff03821115620011af57620011ae6200135c565b5b828201905092915050565b6000620011c78262001269565b9150620011d48362001269565b925082821015620011ea57620011e96200135c565b5b828203905092915050565b6000620012028262001249565b9050919050565b60007fffffffff0000000000000000000000000000000000000000000000000000000082169050919050565b60006200124282620011f5565b9050919050565b600073ffffffffffffffffffffffffffffffffffffffff82169050919050565b6000819050919050565b60005b838110156200129357808201518184015260208101905062001276565b83811115620012a3576000848401525b50505050565b6000620012b68262001269565b91506000821415620012cd57620012cc6200135c565b5b600182039050919050565b60006002820490506001821680620012f157607f821691505b602082108114156200130857620013076200138b565b5b50919050565b60006200131b8262001269565b91507fffffffffffffffffffffffffffffffffffffffffffffffffffffffffffffffff8214156200135157620013506200135c565b5b600182019050919050565b7f4e487b7100000000000000000000000000000000000000000000000000000000600052601160045260246000fd5b7f4e487b7100000000000000000000000000000000000000000000000000000000600052602260045260246000fd5b7f4e487b7100000000000000000000000000000000000000000000000000000000600052603160045260246000fd5b7f4e487b7100000000000000000000000000000000000000000000000000000000600052603260045260246000fd5b600080fd5b6000601f19601f8301169050919050565b7f4552433732313a207472616e7366657220746f206e6f6e20455243373231526560008201527f63656976657220696d706c656d656e7465720000000000000000000000000000602082015250565b7f4552433732313a20746f6b656e20616c7265616479206d696e74656400000000600082015250565b7f4552433732313a2062616c616e636520717565727920666f7220746865207a6560008201527f726f206164647265737300000000000000000000000000000000000000000000602082015250565b7f4552433732313a206d696e7420746f20746865207a65726f2061646472657373600082015250565b7f4d696e74696e67204c696d697420526561636865640000000000000000000000600082015250565b6200155281620011f5565b81146200155e57600080fd5b50565b6200156c8162001209565b81146200157857600080fd5b50565b620015868162001235565b81146200159257600080fd5b50565b60805160a05160601c60c0516155f5620015d66000396000818161157a0152612142015260008181610eed01526116220152600061180101526155f56000f3fe6080604052600436106102515760003560e01c806368f1f2bc11610139578063a22cb465116100b6578063c87b56dd1161007a578063c87b56dd14610880578063e8a3d485146108bd578063e985e9c5146108e8578063f2fde38b14610925578063fd47d4fc1461094e578063ffe1b4261461097757610251565b8063a22cb465146107d7578063b13b469514610800578063b66a0e5d14610829578063b88d4fde14610840578063c701d20d1461086957610251565b80638a1783fe116100fd5780638a1783fe146106ff5780638da5cb5b1461073c578063938e3d7b1461076757806394dc9cf31461079057806395d89b41146107ac57610251565b806368f1f2bc146106275780636c281d611461064357806370a0823114610680578063715018a6146106bd578063779e170d146106d457610251565b8063369fa61d116101d25780634f6ccce7116101965780634f6ccce71461050557806355f804b3146105425780635c292b661461056b57806360233423146105945780636352211e146105bf57806365e80465146105fc57610251565b8063369fa61d1461043657806336eba11b1461045f578063380d831b1461049c57806342842e0e146104b357806344d9ebde146104dc57610251565b806318160ddd1161021957806318160ddd1461034f5780631a0813301461037a57806323b872dd146103a55780632f745c59146103ce578063340e30471461040b57610251565b806301ffc9a714610256578063027752401461029357806306fdde03146102be578063081812fc146102e9578063095ea7b314610326575b600080fd5b34801561026257600080fd5b5061027d60048036038101906102789190613e75565b6109a2565b60405161028a9190614582565b60405180910390f35b34801561029f57600080fd5b506102a8610a1c565b6040516102b5919061493f565b60405180910390f35b3480156102ca57600080fd5b506102d3610a21565b6040516102e0919061459d565b60405180910390f35b3480156102f557600080fd5b50610310600480360381019061030b9190613f45565b610ab3565b60405161031d9190614492565b60405180910390f35b34801561033257600080fd5b5061034d60048036038101906103489190613ddb565b610b38565b005b34801561035b57600080fd5b50610364610c50565b604051610371919061493f565b60405180910390f35b34801561038657600080fd5b5061038f610c5d565b60405161039c9190614582565b60405180910390f35b3480156103b157600080fd5b506103cc60048036038101906103c79190613cc5565b610c74565b005b3480156103da57600080fd5b506103f560048036038101906103f09190613ddb565b610cd4565b604051610402919061493f565b60405180910390f35b34801561041757600080fd5b50610420610d79565b60405161042d919061493f565b60405180910390f35b34801561044257600080fd5b5061045d60048036038101906104589190613ecf565b610d83565b005b34801561046b57600080fd5b5061048660048036038101906104819190613c58565b610f81565b604051610493919061493f565b60405180910390f35b3480156104a857600080fd5b506104b1611037565b005b3480156104bf57600080fd5b506104da60048036038101906104d59190613cc5565b6110d0565b005b3480156104e857600080fd5b5061050360048036038101906104fe9190613f45565b6110f0565b005b34801561051157600080fd5b5061052c60048036038101906105279190613f45565b611176565b604051610539919061493f565b60405180910390f35b34801561054e57600080fd5b5061056960048036038101906105649190613efc565b6111e7565b005b34801561057757600080fd5b50610592600480360381019061058d9190613f45565b61127d565b005b3480156105a057600080fd5b506105a96114bc565b6040516105b6919061493f565b60405180910390f35b3480156105cb57600080fd5b506105e660048036038101906105e19190613f45565b6114c6565b6040516105f39190614492565b60405180910390f35b34801561060857600080fd5b50610611611578565b60405161061e919061493f565b60405180910390f35b610641600480360381019061063c9190613e1b565b61159c565b005b34801561064f57600080fd5b5061066a60048036038101906106659190613f45565b6117a1565b604051610677919061493f565b60405180910390f35b34801561068c57600080fd5b506106a760048036038101906106a29190613c58565b611832565b6040516106b4919061493f565b60405180910390f35b3480156106c957600080fd5b506106d26118ea565b005b3480156106e057600080fd5b506106e9611972565b6040516106f69190614582565b60405180910390f35b34801561070b57600080fd5b5061072660048036038101906107219190613f45565b611985565b604051610733919061493f565b60405180910390f35b34801561074857600080fd5b506107516119f8565b60405161075e9190614492565b60405180910390f35b34801561077357600080fd5b5061078e60048036038101906107899190613efc565b611a21565b005b6107aa60048036038101906107a59190613f45565b611ab7565b005b3480156107b857600080fd5b506107c1611c77565b6040516107ce919061459d565b60405180910390f35b3480156107e357600080fd5b506107fe60048036038101906107f99190613d9b565b611d09565b005b34801561080c57600080fd5b5061082760048036038101906108229190613f45565b611e8a565b005b34801561083557600080fd5b5061083e611f4b565b005b34801561084c57600080fd5b5061086760048036038101906108629190613d18565b611fe4565b005b34801561087557600080fd5b5061087e612046565b005b34801561088c57600080fd5b506108a760048036038101906108a29190613f45565b612127565b6040516108b4919061459d565b60405180910390f35b3480156108c957600080fd5b506108d2612260565b6040516108df919061459d565b60405180910390f35b3480156108f457600080fd5b5061090f600480360381019061090a9190613c85565b6122ee565b60405161091c9190614582565b60405180910390f35b34801561093157600080fd5b5061094c60048036038101906109479190613c58565b612382565b005b34801561095a57600080fd5b5061097560048036038101906109709190613efc565b61247a565b005b34801561098357600080fd5b5061098c612510565b6040516109999190614582565b60405180910390f35b60007f780e9d63000000000000000000000000000000000000000000000000000000007bffffffffffffffffffffffffffffffffffffffffffffffffffffffff1916827bffffffffffffffffffffffffffffffffffffffffffffffffffffffff19161480610a155750610a148261255f565b5b9050919050565b603281565b606060018054610a3090614c2b565b80601f0160208091040260200160405190810160405280929190818152602001828054610a5c90614c2b565b8015610aa95780601f10610a7e57610100808354040283529160200191610aa9565b820191906000526020600020905b815481529060010190602001808311610a8c57829003601f168201915b5050505050905090565b6000610abe82612641565b610afd576040517f08c379a0000000000000000000000000000000000000000000000000000000008152600401610af4906147df565b60405180910390fd5b6005600083815260200190815260200160002060009054906101000a900473ffffffffffffffffffffffffffffffffffffffff169050919050565b6000610b43826114c6565b90508073ffffffffffffffffffffffffffffffffffffffff168373ffffffffffffffffffffffffffffffffffffffff161415610bb4576040517f08c379a0000000000000000000000000000000000000000000000000000000008152600401610bab9061483f565b60405180910390fd5b8073ffffffffffffffffffffffffffffffffffffffff16610bd36126ad565b73ffffffffffffffffffffffffffffffffffffffff161480610c025750610c0181610bfc6126ad565b6122ee565b5b610c41576040517f08c379a0000000000000000000000000000000000000000000000000000000008152600401610c389061471f565b60405180910390fd5b610c4b83836126b5565b505050565b6000600980549050905090565b6000601160009054906101000a900460ff16905090565b610c85610c7f6126ad565b8261276e565b610cc4576040517f08c379a0000000000000000000000000000000000000000000000000000000008152600401610cbb9061489f565b60405180910390fd5b610ccf83838361284c565b505050565b6000610cdf83611832565b8210610d20576040517f08c379a0000000000000000000000000000000000000000000000000000000008152600401610d17906145ff565b60405180910390fd5b600760008473ffffffffffffffffffffffffffffffffffffffff1673ffffffffffffffffffffffffffffffffffffffff168152602001908152602001600020600083815260200190815260200160002054905092915050565b6000600d54905090565b610d8b6126ad565b73ffffffffffffffffffffffffffffffffffffffff16610da96119f8565b73ffffffffffffffffffffffffffffffffffffffff1614610dff576040517f08c379a0000000000000000000000000000000000000000000000000000000008152600401610df6906147ff565b60405180910390fd5b60008173ffffffffffffffffffffffffffffffffffffffff166370a08231306040518263ffffffff1660e01b8152600401610e3a9190614492565b60206040518083038186803b158015610e5257600080fd5b505afa158015610e66573d6000803e3d6000fd5b505050506040513d601f19601f82011682018060405250810190610e8a9190613f72565b905060008111610ecf576040517f08c379a0000000000000000000000000000000000000000000000000000000008152600401610ec69061479f565b60405180910390fd5b8173ffffffffffffffffffffffffffffffffffffffff1663a9059cbb7f0000000000000000000000000000000000000000000000000000000000000000836040518363ffffffff1660e01b8152600401610f2a929190614559565b602060405180830381600087803b158015610f4457600080fd5b505af1158015610f58573d6000803e3d6000fd5b505050506040513d601f19601f82011682018060405250810190610f7c9190613e48565b505050565b6000600f60009054906101000a900473ffffffffffffffffffffffffffffffffffffffff1673ffffffffffffffffffffffffffffffffffffffff1663dd62ed3e83306040518363ffffffff1660e01b8152600401610fe09291906144ad565b60206040518083038186803b158015610ff857600080fd5b505afa15801561100c573d6000803e3d6000fd5b505050506040513d601f19601f820116820180604052508101906110309190613f72565b9050919050565b61103f6126ad565b73ffffffffffffffffffffffffffffffffffffffff1661105d6119f8565b73ffffffffffffffffffffffffffffffffffffffff16146110b3576040517f08c379a00000000000000000000000000000000000000000000000000000000081526004016110aa906147ff565b60405180910390fd5b6000601160006101000a81548160ff021916908315150217905550565b6110eb83838360405180602001604052806000815250611fe4565b505050565b6110f86126ad565b73ffffffffffffffffffffffffffffffffffffffff166111166119f8565b73ffffffffffffffffffffffffffffffffffffffff161461116c576040517f08c379a0000000000000000000000000000000000000000000000000000000008152600401611163906147ff565b60405180910390fd5b8060108190555050565b6000611180610c50565b82106111c1576040517f08c379a00000000000000000000000000000000000000000000000000000000081526004016111b8906148df565b60405180910390fd5b600982815481106111d5576111d4614dc4565b5b90600052602060002001549050919050565b6111ef6126ad565b73ffffffffffffffffffffffffffffffffffffffff1661120d6119f8565b73ffffffffffffffffffffffffffffffffffffffff1614611263576040517f08c379a000000000000000000000000000000000000000000000000000000000815260040161125a906147ff565b60405180910390fd5b8060149080519060200190611279929190613a2d565b5050565b6002600b5414156112c3576040517f08c379a00000000000000000000000000000000000000000000000000000000081526004016112ba9061491f565b60405180910390fd5b6002600b81905550601160009054906101000a900460ff1661131a576040517f08c379a0000000000000000000000000000000000000000000000000000000008152600401611311906145bf565b60405180910390fd5b6000611324610c50565b905061132e610d79565b828261133a9190614a24565b111561137b576040517f08c379a00000000000000000000000000000000000000000000000000000000081526004016113729061467f565b60405180910390fd5b600061138683611985565b905080600f60009054906101000a900473ffffffffffffffffffffffffffffffffffffffff1673ffffffffffffffffffffffffffffffffffffffff1663dd62ed3e33306040518363ffffffff1660e01b81526004016113e69291906144ad565b60206040518083038186803b1580156113fe57600080fd5b505afa158015611412573d6000803e3d6000fd5b505050506040513d601f19601f820116820180604052508101906114369190613f72565b1015611477576040517f08c379a000000000000000000000000000000000000000000000000000000000815260040161146e906145df565b60405180910390fd5b6114a5600f60009054906101000a900473ffffffffffffffffffffffffffffffffffffffff16333084612aa8565b6114af8333612b31565b50506001600b8190555050565b6000601054905090565b6000806003600084815260200190815260200160002060009054906101000a900473ffffffffffffffffffffffffffffffffffffffff169050600073ffffffffffffffffffffffffffffffffffffffff168173ffffffffffffffffffffffffffffffffffffffff16141561156f576040517f08c379a00000000000000000000000000000000000000000000000000000000081526004016115669061475f565b60405180910390fd5b80915050919050565b7f000000000000000000000000000000000000000000000000000000000000000081565b6115a46126ad565b73ffffffffffffffffffffffffffffffffffffffff166115c26119f8565b73ffffffffffffffffffffffffffffffffffffffff1614611618576040517f08c379a000000000000000000000000000000000000000000000000000000000815260040161160f906147ff565b60405180910390fd5b80156116f05760007f000000000000000000000000000000000000000000000000000000000000000073ffffffffffffffffffffffffffffffffffffffff16476040516116649061447d565b60006040518083038185875af1925050503d80600081146116a1576040519150601f19603f3d011682016040523d82523d6000602084013e6116a6565b606091505b50509050806116ea576040517f08c379a00000000000000000000000000000000000000000000000000000000081526004016116e19061487f565b60405180910390fd5b5061179e565b60003373ffffffffffffffffffffffffffffffffffffffff16476040516117169061447d565b60006040518083038185875af1925050503d8060008114611753576040519150601f19603f3d011682016040523d82523d6000602084013e611758565b606091505b505090508061179c576040517f08c379a00000000000000000000000000000000000000000000000000000000081526004016117939061487f565b60405180910390fd5b505b50565b60006117ab610d79565b826117b4610c50565b6117be9190614a24565b11156117ff576040517f08c379a00000000000000000000000000000000000000000000000000000000081526004016117f69061467f565b60405180910390fd5b7f00000000000000000000000000000000000000000000000000000000000000008261182b9190614aab565b9050919050565b60008073ffffffffffffffffffffffffffffffffffffffff168273ffffffffffffffffffffffffffffffffffffffff1614156118a3576040517f08c379a000000000000000000000000000000000000000000000000000000000815260040161189a9061473f565b60405180910390fd5b600460008373ffffffffffffffffffffffffffffffffffffffff1673ffffffffffffffffffffffffffffffffffffffff168152602001908152602001600020549050919050565b6118f26126ad565b73ffffffffffffffffffffffffffffffffffffffff166119106119f8565b73ffffffffffffffffffffffffffffffffffffffff1614611966576040517f08c379a000000000000000000000000000000000000000000000000000000000815260040161195d906147ff565b60405180910390fd5b6119706000612bd8565b565b601160009054906101000a900460ff1681565b600061198f610d79565b82611998610c50565b6119a29190614a24565b11156119e3576040517f08c379a00000000000000000000000000000000000000000000000000000000081526004016119da9061467f565b60405180910390fd5b601054826119f19190614aab565b9050919050565b60008060009054906101000a900473ffffffffffffffffffffffffffffffffffffffff16905090565b611a296126ad565b73ffffffffffffffffffffffffffffffffffffffff16611a476119f8565b73ffffffffffffffffffffffffffffffffffffffff1614611a9d576040517f08c379a0000000000000000000000000000000000000000000000000000000008152600401611a94906147ff565b60405180910390fd5b8060129080519060200190611ab3929190613a2d565b5050565b6002600b541415611afd576040517f08c379a0000000000000000000000000000000000000000000000000000000008152600401611af49061491f565b60405180910390fd5b6002600b81905550601160009054906101000a900460ff16611b54576040517f08c379a0000000000000000000000000000000000000000000000000000000008152600401611b4b906145bf565b60405180910390fd5b6000611b5e610c50565b9050611b68610d79565b8282611b749190614a24565b1115611bb5576040517f08c379a0000000000000000000000000000000000000000000000000000000008152600401611bac9061467f565b60405180910390fd5b6000611bc0836117a1565b905080341015611c05576040517f08c379a0000000000000000000000000000000000000000000000000000000008152600401611bfc9061477f565b60405180910390fd5b80341115611c60573373ffffffffffffffffffffffffffffffffffffffff166108fc8234611c339190614b05565b9081150290604051600060405180830381858888f19350505050158015611c5e573d6000803e3d6000fd5b505b611c6a8333612b31565b50506001600b8190555050565b606060028054611c8690614c2b565b80601f0160208091040260200160405190810160405280929190818152602001828054611cb290614c2b565b8015611cff5780601f10611cd457610100808354040283529160200191611cff565b820191906000526020600020905b815481529060010190602001808311611ce257829003601f168201915b5050505050905090565b611d116126ad565b73ffffffffffffffffffffffffffffffffffffffff168273ffffffffffffffffffffffffffffffffffffffff161415611d7f576040517f08c379a0000000000000000000000000000000000000000000000000000000008152600401611d76906146bf565b60405180910390fd5b8060066000611d8c6126ad565b73ffffffffffffffffffffffffffffffffffffffff1673ffffffffffffffffffffffffffffffffffffffff16815260200190815260200160002060008473ffffffffffffffffffffffffffffffffffffffff1673ffffffffffffffffffffffffffffffffffffffff16815260200190815260200160002060006101000a81548160ff0219169083151502179055508173ffffffffffffffffffffffffffffffffffffffff16611e396126ad565b73ffffffffffffffffffffffffffffffffffffffff167f17307eab39ab6107e8899845ad3d59bd9653f200f220920489ca2b5937696c3183604051611e7e9190614582565b60405180910390a35050565b6000611e9582611985565b9050600f60009054906101000a900473ffffffffffffffffffffffffffffffffffffffff1673ffffffffffffffffffffffffffffffffffffffff1663095ea7b330836040518363ffffffff1660e01b8152600401611ef4929190614559565b602060405180830381600087803b158015611f0e57600080fd5b505af1158015611f22573d6000803e3d6000fd5b505050506040513d601f19601f82011682018060405250810190611f469190613e48565b505050565b611f536126ad565b73ffffffffffffffffffffffffffffffffffffffff16611f716119f8565b73ffffffffffffffffffffffffffffffffffffffff1614611fc7576040517f08c379a0000000000000000000000000000000000000000000000000000000008152600401611fbe906147ff565b60405180910390fd5b6001601160006101000a81548160ff021916908315150217905550565b611ff5611fef6126ad565b8361276e565b612034576040517f08c379a000000000000000000000000000000000000000000000000000000000815260040161202b9061489f565b60405180910390fd5b61204084848484612c9c565b50505050565b6000600f60009054906101000a900473ffffffffffffffffffffffffffffffffffffffff1673ffffffffffffffffffffffffffffffffffffffff166370a08231306040518263ffffffff1660e01b81526004016120a39190614492565b60206040518083038186803b1580156120bb57600080fd5b505afa1580156120cf573d6000803e3d6000fd5b505050506040513d601f19601f820116820180604052508101906120f39190613f72565b9050612124600f60009054906101000a900473ffffffffffffffffffffffffffffffffffffffff1661dead83612cf8565b50565b6060601360009054906101000a900460ff16801561216557507f00000000000000000000000000000000000000000000000000000000000000008211155b156122295760006015805461217990614c2b565b9050141561219757600061218c83612d7e565b90508091505061225b565b601580546121a490614c2b565b80601f01602080910402602001604051908101604052809291908181526020018280546121d090614c2b565b801561221d5780601f106121f25761010080835404028352916020019161221d565b820191906000526020600020905b81548152906001019060200180831161220057829003601f168201915b5050505050905061225b565b6000612233612edf565b905060008151141561225657600061224a84612d7e565b9050809250505061225b565b809150505b919050565b6012805461226d90614c2b565b80601f016020809104026020016040519081016040528092919081815260200182805461229990614c2b565b80156122e65780601f106122bb576101008083540402835291602001916122e6565b820191906000526020600020905b8154815290600101906020018083116122c957829003601f168201915b505050505081565b6000600660008473ffffffffffffffffffffffffffffffffffffffff1673ffffffffffffffffffffffffffffffffffffffff16815260200190815260200160002060008373ffffffffffffffffffffffffffffffffffffffff1673ffffffffffffffffffffffffffffffffffffffff16815260200190815260200160002060009054906101000a900460ff16905092915050565b61238a6126ad565b73ffffffffffffffffffffffffffffffffffffffff166123a86119f8565b73ffffffffffffffffffffffffffffffffffffffff16146123fe576040517f08c379a00000000000000000000000000000000000000000000000000000000081526004016123f5906147ff565b60405180910390fd5b600073ffffffffffffffffffffffffffffffffffffffff168173ffffffffffffffffffffffffffffffffffffffff16141561246e576040517f08c379a00000000000000000000000000000000000000000000000000000000081526004016124659061463f565b60405180910390fd5b61247781612bd8565b50565b6124826126ad565b73ffffffffffffffffffffffffffffffffffffffff166124a06119f8565b73ffffffffffffffffffffffffffffffffffffffff16146124f6576040517f08c379a00000000000000000000000000000000000000000000000000000000081526004016124ed906147ff565b60405180910390fd5b806015908051906020019061250c929190613a2d565b5050565b601360009054906101000a900460ff1681565b600081600001549050919050565b6001816000016000828254019250508190555050565b600080823b905060008111915050919050565b505050565b60007f80ac58cd000000000000000000000000000000000000000000000000000000007bffffffffffffffffffffffffffffffffffffffffffffffffffffffff1916827bffffffffffffffffffffffffffffffffffffffffffffffffffffffff1916148061262a57507f5b5e139f000000000000000000000000000000000000000000000000000000007bffffffffffffffffffffffffffffffffffffffffffffffffffffffff1916827bffffffffffffffffffffffffffffffffffffffffffffffffffffffff1916145b8061263a575061263982612f71565b5b9050919050565b60008073ffffffffffffffffffffffffffffffffffffffff166003600084815260200190815260200160002060009054906101000a900473ffffffffffffffffffffffffffffffffffffffff1673ffffffffffffffffffffffffffffffffffffffff1614159050919050565b600033905090565b816005600083815260200190815260200160002060006101000a81548173ffffffffffffffffffffffffffffffffffffffff021916908373ffffffffffffffffffffffffffffffffffffffff160217905550808273ffffffffffffffffffffffffffffffffffffffff16612728836114c6565b73ffffffffffffffffffffffffffffffffffffffff167f8c5be1e5ebec7d5bd14f71427d1e84f3dd0314c0f7b2291e5b200ac8c7c3b92560405160405180910390a45050565b600061277982612641565b6127b8576040517f08c379a00000000000000000000000000000000000000000000000000000000081526004016127af906146ff565b60405180910390fd5b60006127c3836114c6565b90508073ffffffffffffffffffffffffffffffffffffffff168473ffffffffffffffffffffffffffffffffffffffff16148061283257508373ffffffffffffffffffffffffffffffffffffffff1661281a84610ab3565b73ffffffffffffffffffffffffffffffffffffffff16145b80612843575061284281856122ee565b5b91505092915050565b8273ffffffffffffffffffffffffffffffffffffffff1661286c826114c6565b73ffffffffffffffffffffffffffffffffffffffff16146128c2576040517f08c379a00000000000000000000000000000000000000000000000000000000081526004016128b99061481f565b60405180910390fd5b600073ffffffffffffffffffffffffffffffffffffffff168273ffffffffffffffffffffffffffffffffffffffff161415612932576040517f08c379a00000000000000000000000000000000000000000000000000000000081526004016129299061469f565b60405180910390fd5b61293d838383612fdb565b6129486000826126b5565b6001600460008573ffffffffffffffffffffffffffffffffffffffff1673ffffffffffffffffffffffffffffffffffffffff16815260200190815260200160002060008282546129989190614b05565b925050819055506001600460008473ffffffffffffffffffffffffffffffffffffffff1673ffffffffffffffffffffffffffffffffffffffff16815260200190815260200160002060008282546129ef9190614a24565b92505081905550816003600083815260200190815260200160002060006101000a81548173ffffffffffffffffffffffffffffffffffffffff021916908373ffffffffffffffffffffffffffffffffffffffff160217905550808273ffffffffffffffffffffffffffffffffffffffff168473ffffffffffffffffffffffffffffffffffffffff167fddf252ad1be2c89b69c2b068fc378daa952ba7f163c4a11628f55a4df523b3ef60405160405180910390a4505050565b612b2b846323b872dd60e01b858585604051602401612ac9939291906144d6565b604051602081830303815290604052907bffffffffffffffffffffffffffffffffffffffffffffffffffffffff19166020820180517bffffffffffffffffffffffffffffffffffffffffffffffffffffffff83818316178352505050506130ef565b50505050565b6032821115612b75576040517f08c379a0000000000000000000000000000000000000000000000000000000008152600401612b6c9061485f565b60405180910390fd5b6000600c54905060005b83811015612bcb576000612b93600e612523565b9050612b9f84826131b6565b612ba9600e612531565b8280612bb490614c01565b935050508080612bc390614c8e565b915050612b7f565b5080600c81905550505050565b60008060009054906101000a900473ffffffffffffffffffffffffffffffffffffffff169050816000806101000a81548173ffffffffffffffffffffffffffffffffffffffff021916908373ffffffffffffffffffffffffffffffffffffffff1602179055508173ffffffffffffffffffffffffffffffffffffffff168173ffffffffffffffffffffffffffffffffffffffff167f8be0079c531659141344cd1fd0a4f28419497f9722a3daafe3b4186f6b6457e060405160405180910390a35050565b612ca784848461284c565b612cb3848484846131d4565b612cf2576040517f08c379a0000000000000000000000000000000000000000000000000000000008152600401612ce99061461f565b60405180910390fd5b50505050565b612d798363a9059cbb60e01b8484604051602401612d17929190614559565b604051602081830303815290604052907bffffffffffffffffffffffffffffffffffffffffffffffffffffffff19166020820180517bffffffffffffffffffffffffffffffffffffffffffffffffffffffff83818316178352505050506130ef565b505050565b60606000821415612dc6576040518060400160405280600181526020017f30000000000000000000000000000000000000000000000000000000000000008152509050612eda565b600082905060005b60008214612df8578080612de190614c8e565b915050600a82612df19190614a7a565b9150612dce565b60008167ffffffffffffffff811115612e1457612e13614df3565b5b6040519080825280601f01601f191660200182016040528015612e465781602001600182028036833780820191505090505b5090505b60008514612ed357600182612e5f9190614b05565b9150600a85612e6e9190614cd7565b6030612e7a9190614a24565b60f81b818381518110612e9057612e8f614dc4565b5b60200101907effffffffffffffffffffffffffffffffffffffffffffffffffffffffffffff1916908160001a905350600a85612ecc9190614a7a565b9450612e4a565b8093505050505b919050565b606060148054612eee90614c2b565b80601f0160208091040260200160405190810160405280929190818152602001828054612f1a90614c2b565b8015612f675780601f10612f3c57610100808354040283529160200191612f67565b820191906000526020600020905b815481529060010190602001808311612f4a57829003601f168201915b5050505050905090565b60007f01ffc9a7000000000000000000000000000000000000000000000000000000007bffffffffffffffffffffffffffffffffffffffffffffffffffffffff1916827bffffffffffffffffffffffffffffffffffffffffffffffffffffffff1916149050919050565b612fe683838361255a565b600073ffffffffffffffffffffffffffffffffffffffff168373ffffffffffffffffffffffffffffffffffffffff161415613029576130248161336b565b613068565b8173ffffffffffffffffffffffffffffffffffffffff168373ffffffffffffffffffffffffffffffffffffffff16146130675761306683826133b4565b5b5b600073ffffffffffffffffffffffffffffffffffffffff168273ffffffffffffffffffffffffffffffffffffffff1614156130ab576130a681613521565b6130ea565b8273ffffffffffffffffffffffffffffffffffffffff168273ffffffffffffffffffffffffffffffffffffffff16146130e9576130e882826135f2565b5b5b505050565b6000613151826040518060400160405280602081526020017f5361666545524332303a206c6f772d6c6576656c2063616c6c206661696c65648152508573ffffffffffffffffffffffffffffffffffffffff166136719092919063ffffffff16565b90506000815111156131b157808060200190518101906131719190613e48565b6131b0576040517f08c379a00000000000000000000000000000000000000000000000000000000081526004016131a7906148ff565b60405180910390fd5b5b505050565b6131d0828260405180602001604052806000815250613689565b5050565b60006131f58473ffffffffffffffffffffffffffffffffffffffff16612547565b1561335e578373ffffffffffffffffffffffffffffffffffffffff1663150b7a0261321e6126ad565b8786866040518563ffffffff1660e01b8152600401613240949392919061450d565b602060405180830381600087803b15801561325a57600080fd5b505af192505050801561328b57506040513d601f19601f820116820180604052508101906132889190613ea2565b60015b61330e573d80600081146132bb576040519150601f19603f3d011682016040523d82523d6000602084013e6132c0565b606091505b50600081511415613306576040517f08c379a00000000000000000000000000000000000000000000000000000000081526004016132fd9061461f565b60405180910390fd5b805181602001fd5b63150b7a0260e01b7bffffffffffffffffffffffffffffffffffffffffffffffffffffffff1916817bffffffffffffffffffffffffffffffffffffffffffffffffffffffff191614915050613363565b600190505b949350505050565b600980549050600a600083815260200190815260200160002081905550600981908060018154018082558091505060019003906000526020600020016000909190919091505550565b600060016133c184611832565b6133cb9190614b05565b90506000600860008481526020019081526020016000205490508181146134b0576000600760008673ffffffffffffffffffffffffffffffffffffffff1673ffffffffffffffffffffffffffffffffffffffff168152602001908152602001600020600084815260200190815260200160002054905080600760008773ffffffffffffffffffffffffffffffffffffffff1673ffffffffffffffffffffffffffffffffffffffff168152602001908152602001600020600084815260200190815260200160002081905550816008600083815260200190815260200160002081905550505b6008600084815260200190815260200160002060009055600760008573ffffffffffffffffffffffffffffffffffffffff1673ffffffffffffffffffffffffffffffffffffffff16815260200190815260200160002060008381526020019081526020016000206000905550505050565b600060016009805490506135359190614b05565b90506000600a600084815260200190815260200160002054905060006009838154811061356557613564614dc4565b5b90600052602060002001549050806009838154811061358757613586614dc4565b5b906000526020600020018190555081600a600083815260200190815260200160002081905550600a60008581526020019081526020016000206000905560098054806135d6576135d5614d95565b5b6001900381819060005260206000200160009055905550505050565b60006135fd83611832565b905081600760008573ffffffffffffffffffffffffffffffffffffffff1673ffffffffffffffffffffffffffffffffffffffff168152602001908152602001600020600083815260200190815260200160002081905550806008600084815260200190815260200160002081905550505050565b606061368084846000856136e4565b90509392505050565b61369383836137f8565b6136a060008484846131d4565b6136df576040517f08c379a00000000000000000000000000000000000000000000000000000000081526004016136d69061461f565b60405180910390fd5b505050565b606082471015613729576040517f08c379a0000000000000000000000000000000000000000000000000000000008152600401613720906146df565b60405180910390fd5b61373285612547565b613771576040517f08c379a0000000000000000000000000000000000000000000000000000000008152600401613768906148bf565b60405180910390fd5b6000808673ffffffffffffffffffffffffffffffffffffffff16858760405161379a9190614466565b60006040518083038185875af1925050503d80600081146137d7576040519150601f19603f3d011682016040523d82523d6000602084013e6137dc565b606091505b50915091506137ec8282866139c6565b92505050949350505050565b600073ffffffffffffffffffffffffffffffffffffffff168273ffffffffffffffffffffffffffffffffffffffff161415613868576040517f08c379a000000000000000000000000000000000000000000000000000000000815260040161385f906147bf565b60405180910390fd5b61387181612641565b156138b1576040517f08c379a00000000000000000000000000000000000000000000000000000000081526004016138a89061465f565b60405180910390fd5b6138bd60008383612fdb565b6001600460008473ffffffffffffffffffffffffffffffffffffffff1673ffffffffffffffffffffffffffffffffffffffff168152602001908152602001600020600082825461390d9190614a24565b92505081905550816003600083815260200190815260200160002060006101000a81548173ffffffffffffffffffffffffffffffffffffffff021916908373ffffffffffffffffffffffffffffffffffffffff160217905550808273ffffffffffffffffffffffffffffffffffffffff16600073ffffffffffffffffffffffffffffffffffffffff167fddf252ad1be2c89b69c2b068fc378daa952ba7f163c4a11628f55a4df523b3ef60405160405180910390a45050565b606083156139d657829050613a26565b6000835111156139e95782518084602001fd5b816040517f08c379a0000000000000000000000000000000000000000000000000000000008152600401613a1d919061459d565b60405180910390fd5b9392505050565b828054613a3990614c2b565b90600052602060002090601f016020900481019282613a5b5760008555613aa2565b82601f10613a7457805160ff1916838001178555613aa2565b82800160010185558215613aa2579182015b82811115613aa1578251825591602001919060010190613a86565b5b509050613aaf9190613ab3565b5090565b5b80821115613acc576000816000905550600101613ab4565b5090565b6000613ae3613ade8461497f565b61495a565b905082815260208101848484011115613aff57613afe614e27565b5b613b0a848285614bbf565b509392505050565b6000613b25613b20846149b0565b61495a565b905082815260208101848484011115613b4157613b40614e27565b5b613b4c848285614bbf565b509392505050565b600081359050613b638161554c565b92915050565b600081359050613b7881615563565b92915050565b600081519050613b8d81615563565b92915050565b600081359050613ba28161557a565b92915050565b600081519050613bb78161557a565b92915050565b600082601f830112613bd257613bd1614e22565b5b8135613be2848260208601613ad0565b91505092915050565b600081359050613bfa81615591565b92915050565b600082601f830112613c1557613c14614e22565b5b8135613c25848260208601613b12565b91505092915050565b600081359050613c3d816155a8565b92915050565b600081519050613c52816155a8565b92915050565b600060208284031215613c6e57613c6d614e31565b5b6000613c7c84828501613b54565b91505092915050565b60008060408385031215613c9c57613c9b614e31565b5b6000613caa85828601613b54565b9250506020613cbb85828601613b54565b9150509250929050565b600080600060608486031215613cde57613cdd614e31565b5b6000613cec86828701613b54565b9350506020613cfd86828701613b54565b9250506040613d0e86828701613c2e565b9150509250925092565b60008060008060808587031215613d3257613d31614e31565b5b6000613d4087828801613b54565b9450506020613d5187828801613b54565b9350506040613d6287828801613c2e565b925050606085013567ffffffffffffffff811115613d8357613d82614e2c565b5b613d8f87828801613bbd565b91505092959194509250565b60008060408385031215613db257613db1614e31565b5b6000613dc085828601613b54565b9250506020613dd185828601613b69565b9150509250929050565b60008060408385031215613df257613df1614e31565b5b6000613e0085828601613b54565b9250506020613e1185828601613c2e565b9150509250929050565b600060208284031215613e3157613e30614e31565b5b6000613e3f84828501613b69565b91505092915050565b600060208284031215613e5e57613e5d614e31565b5b6000613e6c84828501613b7e565b91505092915050565b600060208284031215613e8b57613e8a614e31565b5b6000613e9984828501613b93565b91505092915050565b600060208284031215613eb857613eb7614e31565b5b6000613ec684828501613ba8565b91505092915050565b600060208284031215613ee557613ee4614e31565b5b6000613ef384828501613beb565b91505092915050565b600060208284031215613f1257613f11614e31565b5b600082013567ffffffffffffffff811115613f3057613f2f614e2c565b5b613f3c84828501613c00565b91505092915050565b600060208284031215613f5b57613f5a614e31565b5b6000613f6984828501613c2e565b91505092915050565b600060208284031215613f8857613f87614e31565b5b6000613f9684828501613c43565b91505092915050565b613fa881614b39565b82525050565b613fb781614b4b565b82525050565b6000613fc8826149e1565b613fd281856149f7565b9350613fe2818560208601614bce565b613feb81614e36565b840191505092915050565b6000614001826149e1565b61400b8185614a08565b935061401b818560208601614bce565b80840191505092915050565b6000614032826149ec565b61403c8185614a13565b935061404c818560208601614bce565b61405581614e36565b840191505092915050565b600061406d601483614a13565b915061407882614e47565b602082019050919050565b6000614090601983614a13565b915061409b82614e70565b602082019050919050565b60006140b3602b83614a13565b91506140be82614e99565b604082019050919050565b60006140d6603283614a13565b91506140e182614ee8565b604082019050919050565b60006140f9602683614a13565b915061410482614f37565b604082019050919050565b600061411c601c83614a13565b915061412782614f86565b602082019050919050565b600061413f602383614a13565b915061414a82614faf565b604082019050919050565b6000614162602483614a13565b915061416d82614ffe565b604082019050919050565b6000614185601983614a13565b91506141908261504d565b602082019050919050565b60006141a8602683614a13565b91506141b382615076565b604082019050919050565b60006141cb602c83614a13565b91506141d6826150c5565b604082019050919050565b60006141ee603883614a13565b91506141f982615114565b604082019050919050565b6000614211602a83614a13565b915061421c82615163565b604082019050919050565b6000614234602983614a13565b915061423f826151b2565b604082019050919050565b6000614257602683614a13565b915061426282615201565b604082019050919050565b600061427a601583614a13565b915061428582615250565b602082019050919050565b600061429d602083614a13565b91506142a882615279565b602082019050919050565b60006142c0602c83614a13565b91506142cb826152a2565b604082019050919050565b60006142e3602083614a13565b91506142ee826152f1565b602082019050919050565b6000614306602983614a13565b91506143118261531a565b604082019050919050565b6000614329602183614a13565b915061433482615369565b604082019050919050565b600061434c601583614a13565b9150614357826153b8565b602082019050919050565b600061436f600083614a08565b915061437a826153e1565b600082019050919050565b6000614392601083614a13565b915061439d826153e4565b602082019050919050565b60006143b5603183614a13565b91506143c08261540d565b604082019050919050565b60006143d8601d83614a13565b91506143e38261545c565b602082019050919050565b60006143fb602c83614a13565b915061440682615485565b604082019050919050565b600061441e602a83614a13565b9150614429826154d4565b604082019050919050565b6000614441601f83614a13565b915061444c82615523565b602082019050919050565b61446081614bb5565b82525050565b60006144728284613ff6565b915081905092915050565b600061448882614362565b9150819050919050565b60006020820190506144a76000830184613f9f565b92915050565b60006040820190506144c26000830185613f9f565b6144cf6020830184613f9f565b9392505050565b60006060820190506144eb6000830186613f9f565b6144f86020830185613f9f565b6145056040830184614457565b949350505050565b60006080820190506145226000830187613f9f565b61452f6020830186613f9f565b61453c6040830185614457565b818103606083015261454e8184613fbd565b905095945050505050565b600060408201905061456e6000830185613f9f565b61457b6020830184614457565b9392505050565b60006020820190506145976000830184613fae565b92915050565b600060208201905081810360008301526145b78184614027565b905092915050565b600060208201905081810360008301526145d881614060565b9050919050565b600060208201905081810360008301526145f881614083565b9050919050565b60006020820190508181036000830152614618816140a6565b9050919050565b60006020820190508181036000830152614638816140c9565b9050919050565b60006020820190508181036000830152614658816140ec565b9050919050565b600060208201905081810360008301526146788161410f565b9050919050565b6000602082019050818103600083015261469881614132565b9050919050565b600060208201905081810360008301526146b881614155565b9050919050565b600060208201905081810360008301526146d881614178565b9050919050565b600060208201905081810360008301526146f88161419b565b9050919050565b60006020820190508181036000830152614718816141be565b9050919050565b60006020820190508181036000830152614738816141e1565b9050919050565b6000602082019050818103600083015261475881614204565b9050919050565b6000602082019050818103600083015261477881614227565b9050919050565b600060208201905081810360008301526147988161424a565b9050919050565b600060208201905081810360008301526147b88161426d565b9050919050565b600060208201905081810360008301526147d881614290565b9050919050565b600060208201905081810360008301526147f8816142b3565b9050919050565b60006020820190508181036000830152614818816142d6565b9050919050565b60006020820190508181036000830152614838816142f9565b9050919050565b600060208201905081810360008301526148588161431c565b9050919050565b600060208201905081810360008301526148788161433f565b9050919050565b6000602082019050818103600083015261489881614385565b9050919050565b600060208201905081810360008301526148b8816143a8565b9050919050565b600060208201905081810360008301526148d8816143cb565b9050919050565b600060208201905081810360008301526148f8816143ee565b9050919050565b6000602082019050818103600083015261491881614411565b9050919050565b6000602082019050818103600083015261493881614434565b9050919050565b60006020820190506149546000830184614457565b92915050565b6000614964614975565b90506149708282614c5d565b919050565b6000604051905090565b600067ffffffffffffffff82111561499a57614999614df3565b5b6149a382614e36565b9050602081019050919050565b600067ffffffffffffffff8211156149cb576149ca614df3565b5b6149d482614e36565b9050602081019050919050565b600081519050919050565b600081519050919050565b600082825260208201905092915050565b600081905092915050565b600082825260208201905092915050565b6000614a2f82614bb5565b9150614a3a83614bb5565b9250827fffffffffffffffffffffffffffffffffffffffffffffffffffffffffffffffff03821115614a6f57614a6e614d08565b5b828201905092915050565b6000614a8582614bb5565b9150614a9083614bb5565b925082614aa057614a9f614d37565b5b828204905092915050565b6000614ab682614bb5565b9150614ac183614bb5565b9250817fffffffffffffffffffffffffffffffffffffffffffffffffffffffffffffffff0483118215151615614afa57614af9614d08565b5b828202905092915050565b6000614b1082614bb5565b9150614b1b83614bb5565b925082821015614b2e57614b2d614d08565b5b828203905092915050565b6000614b4482614b95565b9050919050565b60008115159050919050565b60007fffffffff0000000000000000000000000000000000000000000000000000000082169050919050565b6000614b8e82614b39565b9050919050565b600073ffffffffffffffffffffffffffffffffffffffff82169050919050565b6000819050919050565b82818337600083830152505050565b60005b83811015614bec578082015181840152602081019050614bd1565b83811115614bfb576000848401525b50505050565b6000614c0c82614bb5565b91506000821415614c2057614c1f614d08565b5b600182039050919050565b60006002820490506001821680614c4357607f821691505b60208210811415614c5757614c56614d66565b5b50919050565b614c6682614e36565b810181811067ffffffffffffffff82111715614c8557614c84614df3565b5b80604052505050565b6000614c9982614bb5565b91507fffffffffffffffffffffffffffffffffffffffffffffffffffffffffffffffff821415614ccc57614ccb614d08565b5b600182019050919050565b6000614ce282614bb5565b9150614ced83614bb5565b925082614cfd57614cfc614d37565b5b828206905092915050565b7f4e487b7100000000000000000000000000000000000000000000000000000000600052601160045260246000fd5b7f4e487b7100000000000000000000000000000000000000000000000000000000600052601260045260246000fd5b7f4e487b7100000000000000000000000000000000000000000000000000000000600052602260045260246000fd5b7f4e487b7100000000000000000000000000000000000000000000000000000000600052603160045260246000fd5b7f4e487b7100000000000000000000000000000000000000000000000000000000600052603260045260246000fd5b7f4e487b7100000000000000000000000000000000000000000000000000000000600052604160045260246000fd5b600080fd5b600080fd5b600080fd5b600080fd5b6000601f19601f8301169050919050565b7f53616c65206861736e277420737461727465642e000000000000000000000000600082015250565b7f417070726f7665204b39575420666f72207370656e64696e6700000000000000600082015250565b7f455243373231456e756d657261626c653a206f776e657220696e646578206f7560008201527f74206f6620626f756e6473000000000000000000000000000000000000000000602082015250565b7f4552433732313a207472616e7366657220746f206e6f6e20455243373231526560008201527f63656976657220696d706c656d656e7465720000000000000000000000000000602082015250565b7f4f776e61626c653a206e6577206f776e657220697320746865207a65726f206160008201527f6464726573730000000000000000000000000000000000000000000000000000602082015250565b7f4552433732313a20746f6b656e20616c7265616479206d696e74656400000000600082015250565b7f5468657265206172656e27742074686973206d616e7920746f6b656e73206c6560008201527f66742e0000000000000000000000000000000000000000000000000000000000602082015250565b7f4552433732313a207472616e7366657220746f20746865207a65726f2061646460008201527f7265737300000000000000000000000000000000000000000000000000000000602082015250565b7f4552433732313a20617070726f766520746f2063616c6c657200000000000000600082015250565b7f416464726573733a20696e73756666696369656e742062616c616e636520666f60008201527f722063616c6c0000000000000000000000000000000000000000000000000000602082015250565b7f4552433732313a206f70657261746f7220717565727920666f72206e6f6e657860008201527f697374656e7420746f6b656e0000000000000000000000000000000000000000602082015250565b7f4552433732313a20617070726f76652063616c6c6572206973206e6f74206f7760008201527f6e6572206e6f7220617070726f76656420666f7220616c6c0000000000000000602082015250565b7f4552433732313a2062616c616e636520717565727920666f7220746865207a6560008201527f726f206164647265737300000000000000000000000000000000000000000000602082015250565b7f4552433732313a206f776e657220717565727920666f72206e6f6e657869737460008201527f656e7420746f6b656e0000000000000000000000000000000000000000000000602082015250565b7f546f6f206c6974746c652073656e742c20706c656173652073656e64206d6f7260008201527f65206574682e0000000000000000000000000000000000000000000000000000602082015250565b7f4e6f20746f6b656e7320746f2077697468647261770000000000000000000000600082015250565b7f4552433732313a206d696e7420746f20746865207a65726f2061646472657373600082015250565b7f4552433732313a20617070726f76656420717565727920666f72206e6f6e657860008201527f697374656e7420746f6b656e0000000000000000000000000000000000000000602082015250565b7f4f776e61626c653a2063616c6c6572206973206e6f7420746865206f776e6572600082015250565b7f4552433732313a207472616e73666572206f6620746f6b656e2074686174206960008201527f73206e6f74206f776e0000000000000000000000000000000000000000000000602082015250565b7f4552433732313a20617070726f76616c20746f2063757272656e74206f776e6560008201527f7200000000000000000000000000000000000000000000000000000000000000602082015250565b7f4d696e74696e67204c696d697420526561636865640000000000000000000000600082015250565b50565b7f5472616e73666572206661696c65642e00000000000000000000000000000000600082015250565b7f4552433732313a207472616e736665722063616c6c6572206973206e6f74206f60008201527f776e6572206e6f7220617070726f766564000000000000000000000000000000602082015250565b7f416464726573733a2063616c6c20746f206e6f6e2d636f6e7472616374000000600082015250565b7f455243373231456e756d657261626c653a20676c6f62616c20696e646578206f60008201527f7574206f6620626f756e64730000000000000000000000000000000000000000602082015250565b7f5361666545524332303a204552433230206f7065726174696f6e20646964206e60008201527f6f74207375636365656400000000000000000000000000000000000000000000602082015250565b7f5265656e7472616e637947756172643a207265656e7472616e742063616c6c00600082015250565b61555581614b39565b811461556057600080fd5b50565b61556c81614b4b565b811461557757600080fd5b50565b61558381614b57565b811461558e57600080fd5b50565b61559a81614b83565b81146155a557600080fd5b50565b6155b181614bb5565b81146155bc57600080fd5b5056fea26469706673582212207191a6e1a49148cdd397df57c6203e363155a660e5ae438ab15fe8af8e91ed1b64736f6c63430008070033",
  "immutableReferences": {
    "2506": [
      {
        "length": 32,
        "start": 6145
      }
    ],
    "2522": [
      {
        "length": 32,
        "start": 3821
      },
      {
        "length": 32,
        "start": 5666
      }
    ],
    "2530": [
      {
        "length": 32,
        "start": 5498
      },
      {
        "length": 32,
        "start": 8514
      }
    ]
  },
  "source": "// SPDX-License-Identifier: MIT\n\npragma solidity ^0.8.7;\n\nimport \"@openzeppelin/contracts/access/Ownable.sol\";\nimport \"@openzeppelin/contracts/token/ERC721/ERC721.sol\";\nimport \"@openzeppelin/contracts/token/ERC721/extensions/ERC721Enumerable.sol\";\nimport \"@openzeppelin/contracts/security/ReentrancyGuard.sol\";\nimport \"@openzeppelin/contracts/utils/Counters.sol\";\nimport \"@openzeppelin/contracts/token/ERC20/IERC20.sol\";\nimport \"@openzeppelin/contracts/token/ERC20/utils/SafeERC20.sol\";\n\ncontract K9WalletGuardians is Ownable, ERC721Enumerable, ReentrancyGuard {\n    using Counters for Counters.Counter;\n\n    constructor(IERC20 _token, address _dev)\n        ERC721(\"K9 Wallet Guardians\", \"K9WG\")\n    {\n        _developer = _dev;\n        _k9WalletToken = _token;\n        // Set initial Rate to 200,000 K9WT\n        _K9WTRate = 200000;\n\n        // mint the first 110 to developer\n        _mint(20, _dev);\n    }\n\n    uint256 public constant MINT_LIMIT = 50;\n    uint256 private _numAvailableTokens = 10000;\n    // 0.015 ETH per token\n    uint256 private immutable _ethRate = 0.015 ether;\n    // max Guardians available\n    uint256 private _maxGuardians = 10000;\n    Counters.Counter private _tokenIdTracker;\n    IERC20 private _k9WalletToken;\n    // K9Wallet Tokens per Guardian\n    uint256 private _K9WTRate;\n    bool public isSaleOn = false;\n    address private immutable _developer;\n    // contract metadata URI for opensea\n    string public contractURI;\n\n    bool public limitedDarkThemeTokensEnabled = false;\n    // Only Tokens with id 1 - 100 are Dark Theme enabled\n    uint256 public immutable darkThemeTokensLastID = 100;\n\n    function buyWithETH(uint256 _numToMint) public payable nonReentrant {\n        require(isSaleOn, \"Sale hasn't started.\");\n        uint256 totalSupply = totalSupply();\n        require(\n            totalSupply + _numToMint <= numMaxGuardians(),\n            \"There aren't this many tokens left.\"\n        );\n        uint256 costForMintingTokens = getETHPriceForTokens(_numToMint);\n        require(\n            msg.value >= costForMintingTokens,\n            \"Too little sent, please send more eth.\"\n        );\n        if (msg.value > costForMintingTokens) {\n            payable(msg.sender).transfer(msg.value - costForMintingTokens);\n        }\n\n        _mint(_numToMint, msg.sender);\n    }\n\n    function buyWithK9WT(uint256 _numToMint) public nonReentrant {\n        require(isSaleOn, \"Sale hasn't started.\");\n        uint256 totalSupply = totalSupply();\n        require(\n            totalSupply + _numToMint <= numMaxGuardians(),\n            \"There aren't this many tokens left.\"\n        );\n        uint256 costForMintingTokens = getK9WTPriceForTokens(_numToMint);\n\n        require(\n            _k9WalletToken.allowance(msg.sender, address(this)) >=\n                costForMintingTokens,\n            \"Approve K9WT for spending\"\n        );\n\n        SafeERC20.safeTransferFrom(\n            _k9WalletToken,\n            msg.sender,\n            address(this),\n            costForMintingTokens\n        );\n\n        _mint(_numToMint, msg.sender);\n    }\n\n    function approveK9WTForPurchasing(uint256 _numToPurchase) external {\n        uint256 costForMintingTokens = getK9WTPriceForTokens(_numToPurchase);\n        _k9WalletToken.approve(address(this), costForMintingTokens);\n    }\n\n    function K9WTApprovalAmount(address buyer) external view returns (uint256) {\n        return _k9WalletToken.allowance(buyer, address(this));\n    }\n\n    // internal minting function\n    function _mint(uint256 _numToMint, address reciever) internal {\n        require(_numToMint <= MINT_LIMIT, \"Minting Limit Reached\");\n\n        uint256 updatedNumAvailableTokens = _numAvailableTokens;\n        for (uint256 i = 0; i < _numToMint; i++) {\n            uint256 newTokenId = _tokenIdTracker.current();\n            _safeMint(reciever, newTokenId);\n            _tokenIdTracker.increment();\n            updatedNumAvailableTokens--;\n        }\n        _numAvailableTokens = updatedNumAvailableTokens;\n    }\n\n    function getETHPriceForTokens(uint256 _numToMint)\n        public\n        view\n        returns (uint256)\n    {\n        require(\n            totalSupply() + _numToMint <= numMaxGuardians(),\n            \"There aren't this many tokens left.\"\n        );\n\n        return _numToMint * _ethRate;\n    }\n\n    function getK9WTPriceForTokens(uint256 _numToMint)\n        public\n        view\n        returns (uint256)\n    {\n        require(\n            totalSupply() + _numToMint <= numMaxGuardians(),\n            \"There aren't this many tokens left.\"\n        );\n\n        return _numToMint * _K9WTRate;\n    }\n\n    function numMaxGuardians() public view virtual returns (uint256) {\n        return _maxGuardians;\n    }\n\n    function currencK9WTRate() public view virtual returns (uint256) {\n        return _K9WTRate;\n    }\n\n    /*\n     * Dev stuff\n     */\n\n    // metadata URI\n    string private _baseTokenURI;\n    string private _darkThemeURI;\n\n    function _baseURI() internal view virtual override returns (string memory) {\n        return _baseTokenURI;\n    }\n\n    function setBaseURI(string memory baseURI) external onlyOwner {\n        _baseTokenURI = baseURI;\n    }\n\n    function setDarkThemeURI(string memory darkURI) external onlyOwner {\n        _darkThemeURI = darkURI;\n    }\n\n    function tokenURI(uint256 _tokenId)\n        public\n        view\n        override\n        returns (string memory)\n    {\n        if (\n            limitedDarkThemeTokensEnabled && _tokenId <= darkThemeTokensLastID\n        ) {\n            if (bytes(_darkThemeURI).length == 0) {\n                string memory _darkTokenURI = Strings.toString(_tokenId);\n                return _darkTokenURI;\n            }\n\n            return _darkThemeURI;\n        }\n        string memory base = _baseURI();\n        \n\n        // If there is no base URI, return the token URI.\n        if (bytes(base).length == 0) {\n            string memory _tokenURI = Strings.toString(_tokenId);\n            return _tokenURI;\n        }\n\n        return base;\n    }\n\n    function startSale() public onlyOwner {\n        isSaleOn = true;\n    }\n\n    function endSale() public onlyOwner {\n        isSaleOn = false;\n    }\n\n    function isSaleOpen() public view returns (bool) {\n       return isSaleOn;\n    }\n\n    // Given the fluctuating price of K9WT, the rate may need to be updated\n    function setK9WalletTokenRate(uint256 _newRate) public onlyOwner {\n        _K9WTRate = _newRate;\n    }\n\n    function burnAvailableK9WT() public {\n        uint256 amount = _k9WalletToken.balanceOf(address(this));\n        SafeERC20.safeTransfer(\n            _k9WalletToken,\n            0x000000000000000000000000000000000000dEaD,\n            amount\n        );\n    }\n\n    function setContractURI(string memory _contractURI) external onlyOwner {\n        contractURI = _contractURI;\n    }\n\n    // withdraw ERC20 tokens\n    function withdrawAnyERC20(IERC20 token) external onlyOwner {\n        uint256 amount = token.balanceOf(address(this));\n        require(amount > 0, \"No tokens to withdraw\");\n        token.transfer(_developer, amount);\n    }\n\n    function withdrawMoney(bool toDeveloper) public payable onlyOwner {\n        if (toDeveloper) {\n            (bool success, ) = _developer.call{value: address(this).balance}(\n                \"\"\n            );\n            require(success, \"Transfer failed.\");\n        } else {\n            (bool success, ) = msg.sender.call{value: address(this).balance}(\n                \"\"\n            );\n            require(success, \"Transfer failed.\");\n        }\n    }\n}\n",
  "sourcePath": "/Users/edgartremillo/Dev/blockchain/k9wallet_nft/contracts/K9WalletGuardians.sol",
  "compiler": {
    "name": "solc",
    "version": "0.8.7+commit.e28d00a7.Emscripten.clang"
  },
  "schemaVersion": "3.4.3",
  "updatedAt": "2021-08-19T10:27:13.164Z",
  "devdoc": {
    "kind": "dev",
    "methods": {
      "approve(address,uint256)": {
        "details": "See {IERC721-approve}."
      },
      "balanceOf(address)": {
        "details": "See {IERC721-balanceOf}."
      },
      "getApproved(uint256)": {
        "details": "See {IERC721-getApproved}."
      },
      "isApprovedForAll(address,address)": {
        "details": "See {IERC721-isApprovedForAll}."
      },
      "name()": {
        "details": "See {IERC721Metadata-name}."
      },
      "owner()": {
        "details": "Returns the address of the current owner."
      },
      "ownerOf(uint256)": {
        "details": "See {IERC721-ownerOf}."
      },
      "renounceOwnership()": {
        "details": "Leaves the contract without owner. It will not be possible to call `onlyOwner` functions anymore. Can only be called by the current owner. NOTE: Renouncing ownership will leave the contract without an owner, thereby removing any functionality that is only available to the owner."
      },
      "safeTransferFrom(address,address,uint256)": {
        "details": "See {IERC721-safeTransferFrom}."
      },
      "safeTransferFrom(address,address,uint256,bytes)": {
        "details": "See {IERC721-safeTransferFrom}."
      },
      "setApprovalForAll(address,bool)": {
        "details": "See {IERC721-setApprovalForAll}."
      },
      "supportsInterface(bytes4)": {
        "details": "See {IERC165-supportsInterface}."
      },
      "symbol()": {
        "details": "See {IERC721Metadata-symbol}."
      },
      "tokenByIndex(uint256)": {
        "details": "See {IERC721Enumerable-tokenByIndex}."
      },
      "tokenOfOwnerByIndex(address,uint256)": {
        "details": "See {IERC721Enumerable-tokenOfOwnerByIndex}."
      },
      "totalSupply()": {
        "details": "See {IERC721Enumerable-totalSupply}."
      },
      "transferFrom(address,address,uint256)": {
        "details": "See {IERC721-transferFrom}."
      },
      "transferOwnership(address)": {
        "details": "Transfers ownership of the contract to a new account (`newOwner`). Can only be called by the current owner."
      }
    },
    "version": 1
  },
  "userdoc": {
    "kind": "user",
    "methods": {},
    "version": 1
  }
}