{
  "contractName": "K9WalletGuardians",
  "abi": [
    {
      "inputs": [
        {
          "internalType": "contract IERC20",
          "name": "_token",
          "type": "address"
        },
        {
          "internalType": "address",
          "name": "_dev",
          "type": "address"
        }
      ],
      "stateMutability": "nonpayable",
      "type": "constructor"
    },
    {
      "anonymous": false,
      "inputs": [
        {
          "indexed": true,
          "internalType": "address",
          "name": "owner",
          "type": "address"
        },
        {
          "indexed": true,
          "internalType": "address",
          "name": "approved",
          "type": "address"
        },
        {
          "indexed": true,
          "internalType": "uint256",
          "name": "tokenId",
          "type": "uint256"
        }
      ],
      "name": "Approval",
      "type": "event"
    },
    {
      "anonymous": false,
      "inputs": [
        {
          "indexed": true,
          "internalType": "address",
          "name": "owner",
          "type": "address"
        },
        {
          "indexed": true,
          "internalType": "address",
          "name": "operator",
          "type": "address"
        },
        {
          "indexed": false,
          "internalType": "bool",
          "name": "approved",
          "type": "bool"
        }
      ],
      "name": "ApprovalForAll",
      "type": "event"
    },
    {
      "anonymous": false,
      "inputs": [
        {
          "indexed": true,
          "internalType": "address",
          "name": "previousOwner",
          "type": "address"
        },
        {
          "indexed": true,
          "internalType": "address",
          "name": "newOwner",
          "type": "address"
        }
      ],
      "name": "OwnershipTransferred",
      "type": "event"
    },
    {
      "anonymous": false,
      "inputs": [
        {
          "indexed": true,
          "internalType": "address",
          "name": "from",
          "type": "address"
        },
        {
          "indexed": true,
          "internalType": "address",
          "name": "to",
          "type": "address"
        },
        {
          "indexed": true,
          "internalType": "uint256",
          "name": "tokenId",
          "type": "uint256"
        }
      ],
      "name": "Transfer",
      "type": "event"
    },
    {
      "inputs": [],
      "name": "MINT_LIMIT",
      "outputs": [
        {
          "internalType": "uint256",
          "name": "",
          "type": "uint256"
        }
      ],
      "stateMutability": "view",
      "type": "function"
    },
    {
      "inputs": [
        {
          "internalType": "address",
          "name": "to",
          "type": "address"
        },
        {
          "internalType": "uint256",
          "name": "tokenId",
          "type": "uint256"
        }
      ],
      "name": "approve",
      "outputs": [],
      "stateMutability": "nonpayable",
      "type": "function"
    },
    {
      "inputs": [
        {
          "internalType": "address",
          "name": "owner",
          "type": "address"
        }
      ],
      "name": "balanceOf",
      "outputs": [
        {
          "internalType": "uint256",
          "name": "",
          "type": "uint256"
        }
      ],
      "stateMutability": "view",
      "type": "function"
    },
    {
      "inputs": [],
      "name": "contractURI",
      "outputs": [
        {
          "internalType": "string",
          "name": "",
          "type": "string"
        }
      ],
      "stateMutability": "view",
      "type": "function"
    },
    {
      "inputs": [],
      "name": "darkThemeTokensLastID",
      "outputs": [
        {
          "internalType": "uint256",
          "name": "",
          "type": "uint256"
        }
      ],
      "stateMutability": "view",
      "type": "function"
    },
    {
      "inputs": [
        {
          "internalType": "uint256",
          "name": "tokenId",
          "type": "uint256"
        }
      ],
      "name": "getApproved",
      "outputs": [
        {
          "internalType": "address",
          "name": "",
          "type": "address"
        }
      ],
      "stateMutability": "view",
      "type": "function"
    },
    {
      "inputs": [
        {
          "internalType": "address",
          "name": "owner",
          "type": "address"
        },
        {
          "internalType": "address",
          "name": "operator",
          "type": "address"
        }
      ],
      "name": "isApprovedForAll",
      "outputs": [
        {
          "internalType": "bool",
          "name": "",
          "type": "bool"
        }
      ],
      "stateMutability": "view",
      "type": "function"
    },
    {
      "inputs": [],
      "name": "isSaleOn",
      "outputs": [
        {
          "internalType": "bool",
          "name": "",
          "type": "bool"
        }
      ],
      "stateMutability": "view",
      "type": "function"
    },
    {
      "inputs": [],
      "name": "limitedDarkThemeTokensEnabled",
      "outputs": [
        {
          "internalType": "bool",
          "name": "",
          "type": "bool"
        }
      ],
      "stateMutability": "view",
      "type": "function"
    },
    {
      "inputs": [],
      "name": "name",
      "outputs": [
        {
          "internalType": "string",
          "name": "",
          "type": "string"
        }
      ],
      "stateMutability": "view",
      "type": "function"
    },
    {
      "inputs": [],
      "name": "owner",
      "outputs": [
        {
          "internalType": "address",
          "name": "",
          "type": "address"
        }
      ],
      "stateMutability": "view",
      "type": "function"
    },
    {
      "inputs": [
        {
          "internalType": "uint256",
          "name": "tokenId",
          "type": "uint256"
        }
      ],
      "name": "ownerOf",
      "outputs": [
        {
          "internalType": "address",
          "name": "",
          "type": "address"
        }
      ],
      "stateMutability": "view",
      "type": "function"
    },
    {
      "inputs": [],
      "name": "renounceOwnership",
      "outputs": [],
      "stateMutability": "nonpayable",
      "type": "function"
    },
    {
      "inputs": [
        {
          "internalType": "address",
          "name": "from",
          "type": "address"
        },
        {
          "internalType": "address",
          "name": "to",
          "type": "address"
        },
        {
          "internalType": "uint256",
          "name": "tokenId",
          "type": "uint256"
        }
      ],
      "name": "safeTransferFrom",
      "outputs": [],
      "stateMutability": "nonpayable",
      "type": "function"
    },
    {
      "inputs": [
        {
          "internalType": "address",
          "name": "from",
          "type": "address"
        },
        {
          "internalType": "address",
          "name": "to",
          "type": "address"
        },
        {
          "internalType": "uint256",
          "name": "tokenId",
          "type": "uint256"
        },
        {
          "internalType": "bytes",
          "name": "_data",
          "type": "bytes"
        }
      ],
      "name": "safeTransferFrom",
      "outputs": [],
      "stateMutability": "nonpayable",
      "type": "function"
    },
    {
      "inputs": [
        {
          "internalType": "address",
          "name": "operator",
          "type": "address"
        },
        {
          "internalType": "bool",
          "name": "approved",
          "type": "bool"
        }
      ],
      "name": "setApprovalForAll",
      "outputs": [],
      "stateMutability": "nonpayable",
      "type": "function"
    },
    {
      "inputs": [
        {
          "internalType": "bytes4",
          "name": "interfaceId",
          "type": "bytes4"
        }
      ],
      "name": "supportsInterface",
      "outputs": [
        {
          "internalType": "bool",
          "name": "",
          "type": "bool"
        }
      ],
      "stateMutability": "view",
      "type": "function"
    },
    {
      "inputs": [],
      "name": "symbol",
      "outputs": [
        {
          "internalType": "string",
          "name": "",
          "type": "string"
        }
      ],
      "stateMutability": "view",
      "type": "function"
    },
    {
      "inputs": [
        {
          "internalType": "uint256",
          "name": "index",
          "type": "uint256"
        }
      ],
      "name": "tokenByIndex",
      "outputs": [
        {
          "internalType": "uint256",
          "name": "",
          "type": "uint256"
        }
      ],
      "stateMutability": "view",
      "type": "function"
    },
    {
      "inputs": [
        {
          "internalType": "address",
          "name": "owner",
          "type": "address"
        },
        {
          "internalType": "uint256",
          "name": "index",
          "type": "uint256"
        }
      ],
      "name": "tokenOfOwnerByIndex",
      "outputs": [
        {
          "internalType": "uint256",
          "name": "",
          "type": "uint256"
        }
      ],
      "stateMutability": "view",
      "type": "function"
    },
    {
      "inputs": [],
      "name": "totalSupply",
      "outputs": [
        {
          "internalType": "uint256",
          "name": "",
          "type": "uint256"
        }
      ],
      "stateMutability": "view",
      "type": "function"
    },
    {
      "inputs": [
        {
          "internalType": "address",
          "name": "from",
          "type": "address"
        },
        {
          "internalType": "address",
          "name": "to",
          "type": "address"
        },
        {
          "internalType": "uint256",
          "name": "tokenId",
          "type": "uint256"
        }
      ],
      "name": "transferFrom",
      "outputs": [],
      "stateMutability": "nonpayable",
      "type": "function"
    },
    {
      "inputs": [
        {
          "internalType": "address",
          "name": "newOwner",
          "type": "address"
        }
      ],
      "name": "transferOwnership",
      "outputs": [],
      "stateMutability": "nonpayable",
      "type": "function"
    },
    {
      "inputs": [
        {
          "internalType": "uint256",
          "name": "_numToMint",
          "type": "uint256"
        }
      ],
      "name": "buyWithETH",
      "outputs": [],
      "stateMutability": "payable",
      "type": "function"
    },
    {
      "inputs": [
        {
          "internalType": "uint256",
          "name": "_numToMint",
          "type": "uint256"
        }
      ],
      "name": "buyWithK9WT",
      "outputs": [],
      "stateMutability": "nonpayable",
      "type": "function"
    },
    {
      "inputs": [
        {
          "internalType": "uint256",
          "name": "_numToPurchase",
          "type": "uint256"
        }
      ],
      "name": "approveK9WTForPurchasing",
      "outputs": [],
      "stateMutability": "nonpayable",
      "type": "function"
    },
    {
      "inputs": [
        {
          "internalType": "address",
          "name": "buyer",
          "type": "address"
        }
      ],
      "name": "K9WTApprovalAmount",
      "outputs": [
        {
          "internalType": "uint256",
          "name": "",
          "type": "uint256"
        }
      ],
      "stateMutability": "view",
      "type": "function"
    },
    {
      "inputs": [
        {
          "internalType": "uint256",
          "name": "_numToMint",
          "type": "uint256"
        }
      ],
      "name": "getETHPriceForTokens",
      "outputs": [
        {
          "internalType": "uint256",
          "name": "",
          "type": "uint256"
        }
      ],
      "stateMutability": "view",
      "type": "function"
    },
    {
      "inputs": [
        {
          "internalType": "uint256",
          "name": "_numToMint",
          "type": "uint256"
        }
      ],
      "name": "getK9WTPriceForTokens",
      "outputs": [
        {
          "internalType": "uint256",
          "name": "",
          "type": "uint256"
        }
      ],
      "stateMutability": "view",
      "type": "function"
    },
    {
      "inputs": [],
      "name": "numMaxGuardians",
      "outputs": [
        {
          "internalType": "uint256",
          "name": "",
          "type": "uint256"
        }
      ],
      "stateMutability": "view",
      "type": "function"
    },
    {
      "inputs": [],
      "name": "currencK9WTRate",
      "outputs": [
        {
          "internalType": "uint256",
          "name": "",
          "type": "uint256"
        }
      ],
      "stateMutability": "view",
      "type": "function"
    },
    {
      "inputs": [
        {
          "internalType": "string",
          "name": "baseURI",
          "type": "string"
        }
      ],
      "name": "setBaseURI",
      "outputs": [],
      "stateMutability": "nonpayable",
      "type": "function"
    },
    {
      "inputs": [
        {
          "internalType": "string",
          "name": "darkURI",
          "type": "string"
        }
      ],
      "name": "setDarkThemeURI",
      "outputs": [],
      "stateMutability": "nonpayable",
      "type": "function"
    },
    {
      "inputs": [
        {
          "internalType": "uint256",
          "name": "_tokenId",
          "type": "uint256"
        }
      ],
      "name": "tokenURI",
      "outputs": [
        {
          "internalType": "string",
          "name": "",
          "type": "string"
        }
      ],
      "stateMutability": "view",
      "type": "function"
    },
    {
      "inputs": [],
      "name": "startSale",
      "outputs": [],
      "stateMutability": "nonpayable",
      "type": "function"
    },
    {
      "inputs": [],
      "name": "endSale",
      "outputs": [],
      "stateMutability": "nonpayable",
      "type": "function"
    },
    {
      "inputs": [
        {
          "internalType": "uint256",
          "name": "_newRate",
          "type": "uint256"
        }
      ],
      "name": "setK9WalletTokenRate",
      "outputs": [],
      "stateMutability": "nonpayable",
      "type": "function"
    },
    {
      "inputs": [],
      "name": "burnAvailableK9WT",
      "outputs": [],
      "stateMutability": "nonpayable",
      "type": "function"
    },
    {
      "inputs": [
        {
          "internalType": "string",
          "name": "_contractURI",
          "type": "string"
        }
      ],
      "name": "setContractURI",
      "outputs": [],
      "stateMutability": "nonpayable",
      "type": "function"
    },
    {
      "inputs": [
        {
          "internalType": "contract IERC20",
          "name": "token",
          "type": "address"
        }
      ],
      "name": "withdrawAnyERC20",
      "outputs": [],
      "stateMutability": "nonpayable",
      "type": "function"
    },
    {
      "inputs": [
        {
          "internalType": "bool",
          "name": "toDeveloper",
          "type": "bool"
        }
      ],
      "name": "withdrawMoney",
      "outputs": [],
      "stateMutability": "payable",
      "type": "function"
    }
  ],
  "bytecode": "0x60e0604052612710600c5566354a6ba7a18000608090815250612710600d556000601160006101000a81548160ff0219169083151502179055506000601360006101000a81548160ff021916908315150217905550606460c0908152503480156200006957600080fd5b5060405162005a9e38038062005a9e83398181016040528101906200008f91906200038b565b6040518060400160405280601381526020017f4b392057616c6c657420477561726469616e73000000000000000000000000008152506040518060400160405280600481526020017f4b395747000000000000000000000000000000000000000000000000000000008152506200011b6200010f620001e160201b60201c565b620001e960201b60201c565b816001908051906020019062000133929190620002ad565b5080600290805190602001906200014c929190620002ad565b5050506001600b819055508073ffffffffffffffffffffffffffffffffffffffff1660a08173ffffffffffffffffffffffffffffffffffffffff1660601b8152505081600f60006101000a81548173ffffffffffffffffffffffffffffffffffffffff021916908373ffffffffffffffffffffffffffffffffffffffff16021790555062030d406010819055505050620004b8565b600033905090565b60008060009054906101000a900473ffffffffffffffffffffffffffffffffffffffff169050816000806101000a81548173ffffffffffffffffffffffffffffffffffffffff021916908373ffffffffffffffffffffffffffffffffffffffff1602179055508173ffffffffffffffffffffffffffffffffffffffff168173ffffffffffffffffffffffffffffffffffffffff167f8be0079c531659141344cd1fd0a4f28419497f9722a3daafe3b4186f6b6457e060405160405180910390a35050565b828054620002bb906200041a565b90600052602060002090601f016020900481019282620002df57600085556200032b565b82601f10620002fa57805160ff19168380011785556200032b565b828001600101855582156200032b579182015b828111156200032a5782518255916020019190600101906200030d565b5b5090506200033a91906200033e565b5090565b5b80821115620003595760008160009055506001016200033f565b5090565b6000815190506200036e8162000484565b92915050565b60008151905062000385816200049e565b92915050565b60008060408385031215620003a557620003a46200047f565b5b6000620003b58582860162000374565b9250506020620003c8858286016200035d565b9150509250929050565b6000620003df82620003fa565b9050919050565b6000620003f382620003d2565b9050919050565b600073ffffffffffffffffffffffffffffffffffffffff82169050919050565b600060028204905060018216806200043357607f821691505b602082108114156200044a576200044962000450565b5b50919050565b7f4e487b7100000000000000000000000000000000000000000000000000000000600052602260045260246000fd5b600080fd5b6200048f81620003d2565b81146200049b57600080fd5b50565b620004a981620003e6565b8114620004b557600080fd5b50565b60805160a05160601c60c0516155a5620004f96000396000818161152c01526120f3015260008181610ea001526115d4015260006117b301526155a56000f3fe6080604052600436106102465760003560e01c806368f1f2bc11610139578063a22cb465116100b6578063c87b56dd1161007a578063c87b56dd1461084a578063e8a3d48514610887578063e985e9c5146108b2578063f2fde38b146108ef578063fd47d4fc14610918578063ffe1b4261461094157610246565b8063a22cb465146107a1578063b13b4695146107ca578063b66a0e5d146107f3578063b88d4fde1461080a578063c701d20d1461083357610246565b80638a1783fe116100fd5780638a1783fe146106c95780638da5cb5b14610706578063938e3d7b1461073157806394dc9cf31461075a57806395d89b411461077657610246565b806368f1f2bc146105f15780636c281d611461060d57806370a082311461064a578063715018a614610687578063779e170d1461069e57610246565b806336eba11b116101c757806355f804b31161018b57806355f804b31461050c5780635c292b6614610535578063602334231461055e5780636352211e1461058957806365e80465146105c657610246565b806336eba11b14610429578063380d831b1461046657806342842e0e1461047d57806344d9ebde146104a65780634f6ccce7146104cf57610246565b806318160ddd1161020e57806318160ddd1461034457806323b872dd1461036f5780632f745c5914610398578063340e3047146103d5578063369fa61d1461040057610246565b806301ffc9a71461024b578063027752401461028857806306fdde03146102b3578063081812fc146102de578063095ea7b31461031b575b600080fd5b34801561025757600080fd5b50610272600480360381019061026d9190613e25565b61096c565b60405161027f9190614532565b60405180910390f35b34801561029457600080fd5b5061029d6109e6565b6040516102aa91906148ef565b60405180910390f35b3480156102bf57600080fd5b506102c86109eb565b6040516102d5919061454d565b60405180910390f35b3480156102ea57600080fd5b5061030560048036038101906103009190613ef5565b610a7d565b6040516103129190614442565b60405180910390f35b34801561032757600080fd5b50610342600480360381019061033d9190613d8b565b610b02565b005b34801561035057600080fd5b50610359610c1a565b60405161036691906148ef565b60405180910390f35b34801561037b57600080fd5b5061039660048036038101906103919190613c75565b610c27565b005b3480156103a457600080fd5b506103bf60048036038101906103ba9190613d8b565b610c87565b6040516103cc91906148ef565b60405180910390f35b3480156103e157600080fd5b506103ea610d2c565b6040516103f791906148ef565b60405180910390f35b34801561040c57600080fd5b5061042760048036038101906104229190613e7f565b610d36565b005b34801561043557600080fd5b50610450600480360381019061044b9190613c08565b610f34565b60405161045d91906148ef565b60405180910390f35b34801561047257600080fd5b5061047b610fea565b005b34801561048957600080fd5b506104a4600480360381019061049f9190613c75565b611083565b005b3480156104b257600080fd5b506104cd60048036038101906104c89190613ef5565b6110a3565b005b3480156104db57600080fd5b506104f660048036038101906104f19190613ef5565b611129565b60405161050391906148ef565b60405180910390f35b34801561051857600080fd5b50610533600480360381019061052e9190613eac565b61119a565b005b34801561054157600080fd5b5061055c60048036038101906105579190613ef5565b611230565b005b34801561056a57600080fd5b5061057361146e565b60405161058091906148ef565b60405180910390f35b34801561059557600080fd5b506105b060048036038101906105ab9190613ef5565b611478565b6040516105bd9190614442565b60405180910390f35b3480156105d257600080fd5b506105db61152a565b6040516105e891906148ef565b60405180910390f35b61060b60048036038101906106069190613dcb565b61154e565b005b34801561061957600080fd5b50610634600480360381019061062f9190613ef5565b611753565b60405161064191906148ef565b60405180910390f35b34801561065657600080fd5b50610671600480360381019061066c9190613c08565b6117e4565b60405161067e91906148ef565b60405180910390f35b34801561069357600080fd5b5061069c61189c565b005b3480156106aa57600080fd5b506106b3611924565b6040516106c09190614532565b60405180910390f35b3480156106d557600080fd5b506106f060048036038101906106eb9190613ef5565b611937565b6040516106fd91906148ef565b60405180910390f35b34801561071257600080fd5b5061071b6119aa565b6040516107289190614442565b60405180910390f35b34801561073d57600080fd5b5061075860048036038101906107539190613eac565b6119d3565b005b610774600480360381019061076f9190613ef5565b611a69565b005b34801561078257600080fd5b5061078b611c28565b604051610798919061454d565b60405180910390f35b3480156107ad57600080fd5b506107c860048036038101906107c39190613d4b565b611cba565b005b3480156107d657600080fd5b506107f160048036038101906107ec9190613ef5565b611e3b565b005b3480156107ff57600080fd5b50610808611efc565b005b34801561081657600080fd5b50610831600480360381019061082c9190613cc8565b611f95565b005b34801561083f57600080fd5b50610848611ff7565b005b34801561085657600080fd5b50610871600480360381019061086c9190613ef5565b6120d8565b60405161087e919061454d565b60405180910390f35b34801561089357600080fd5b5061089c612211565b6040516108a9919061454d565b60405180910390f35b3480156108be57600080fd5b506108d960048036038101906108d49190613c35565b61229f565b6040516108e69190614532565b60405180910390f35b3480156108fb57600080fd5b5061091660048036038101906109119190613c08565b612333565b005b34801561092457600080fd5b5061093f600480360381019061093a9190613eac565b61242b565b005b34801561094d57600080fd5b506109566124c1565b6040516109639190614532565b60405180910390f35b60007f780e9d63000000000000000000000000000000000000000000000000000000007bffffffffffffffffffffffffffffffffffffffffffffffffffffffff1916827bffffffffffffffffffffffffffffffffffffffffffffffffffffffff191614806109df57506109de826124d4565b5b9050919050565b603281565b6060600180546109fa90614bdb565b80601f0160208091040260200160405190810160405280929190818152602001828054610a2690614bdb565b8015610a735780601f10610a4857610100808354040283529160200191610a73565b820191906000526020600020905b815481529060010190602001808311610a5657829003601f168201915b5050505050905090565b6000610a88826125b6565b610ac7576040517f08c379a0000000000000000000000000000000000000000000000000000000008152600401610abe9061478f565b60405180910390fd5b6005600083815260200190815260200160002060009054906101000a900473ffffffffffffffffffffffffffffffffffffffff169050919050565b6000610b0d82611478565b90508073ffffffffffffffffffffffffffffffffffffffff168373ffffffffffffffffffffffffffffffffffffffff161415610b7e576040517f08c379a0000000000000000000000000000000000000000000000000000000008152600401610b75906147ef565b60405180910390fd5b8073ffffffffffffffffffffffffffffffffffffffff16610b9d612622565b73ffffffffffffffffffffffffffffffffffffffff161480610bcc5750610bcb81610bc6612622565b61229f565b5b610c0b576040517f08c379a0000000000000000000000000000000000000000000000000000000008152600401610c02906146cf565b60405180910390fd5b610c15838361262a565b505050565b6000600980549050905090565b610c38610c32612622565b826126e3565b610c77576040517f08c379a0000000000000000000000000000000000000000000000000000000008152600401610c6e9061484f565b60405180910390fd5b610c828383836127c1565b505050565b6000610c92836117e4565b8210610cd3576040517f08c379a0000000000000000000000000000000000000000000000000000000008152600401610cca906145af565b60405180910390fd5b600760008473ffffffffffffffffffffffffffffffffffffffff1673ffffffffffffffffffffffffffffffffffffffff168152602001908152602001600020600083815260200190815260200160002054905092915050565b6000600d54905090565b610d3e612622565b73ffffffffffffffffffffffffffffffffffffffff16610d5c6119aa565b73ffffffffffffffffffffffffffffffffffffffff1614610db2576040517f08c379a0000000000000000000000000000000000000000000000000000000008152600401610da9906147af565b60405180910390fd5b60008173ffffffffffffffffffffffffffffffffffffffff166370a08231306040518263ffffffff1660e01b8152600401610ded9190614442565b60206040518083038186803b158015610e0557600080fd5b505afa158015610e19573d6000803e3d6000fd5b505050506040513d601f19601f82011682018060405250810190610e3d9190613f22565b905060008111610e82576040517f08c379a0000000000000000000000000000000000000000000000000000000008152600401610e799061474f565b60405180910390fd5b8173ffffffffffffffffffffffffffffffffffffffff1663a9059cbb7f0000000000000000000000000000000000000000000000000000000000000000836040518363ffffffff1660e01b8152600401610edd929190614509565b602060405180830381600087803b158015610ef757600080fd5b505af1158015610f0b573d6000803e3d6000fd5b505050506040513d601f19601f82011682018060405250810190610f2f9190613df8565b505050565b6000600f60009054906101000a900473ffffffffffffffffffffffffffffffffffffffff1673ffffffffffffffffffffffffffffffffffffffff1663dd62ed3e83306040518363ffffffff1660e01b8152600401610f9392919061445d565b60206040518083038186803b158015610fab57600080fd5b505afa158015610fbf573d6000803e3d6000fd5b505050506040513d601f19601f82011682018060405250810190610fe39190613f22565b9050919050565b610ff2612622565b73ffffffffffffffffffffffffffffffffffffffff166110106119aa565b73ffffffffffffffffffffffffffffffffffffffff1614611066576040517f08c379a000000000000000000000000000000000000000000000000000000000815260040161105d906147af565b60405180910390fd5b6000601160006101000a81548160ff021916908315150217905550565b61109e83838360405180602001604052806000815250611f95565b505050565b6110ab612622565b73ffffffffffffffffffffffffffffffffffffffff166110c96119aa565b73ffffffffffffffffffffffffffffffffffffffff161461111f576040517f08c379a0000000000000000000000000000000000000000000000000000000008152600401611116906147af565b60405180910390fd5b8060108190555050565b6000611133610c1a565b8210611174576040517f08c379a000000000000000000000000000000000000000000000000000000000815260040161116b9061488f565b60405180910390fd5b6009828154811061118857611187614d74565b5b90600052602060002001549050919050565b6111a2612622565b73ffffffffffffffffffffffffffffffffffffffff166111c06119aa565b73ffffffffffffffffffffffffffffffffffffffff1614611216576040517f08c379a000000000000000000000000000000000000000000000000000000000815260040161120d906147af565b60405180910390fd5b806014908051906020019061122c9291906139dd565b5050565b6002600b541415611276576040517f08c379a000000000000000000000000000000000000000000000000000000000815260040161126d906148cf565b60405180910390fd5b6002600b81905550601160009054906101000a900460ff166112cd576040517f08c379a00000000000000000000000000000000000000000000000000000000081526004016112c49061456f565b60405180910390fd5b60006112d7610c1a565b90506112e1610d2c565b82826112ed91906149d4565b111561132e576040517f08c379a00000000000000000000000000000000000000000000000000000000081526004016113259061462f565b60405180910390fd5b600061133983611937565b905080600f60009054906101000a900473ffffffffffffffffffffffffffffffffffffffff1673ffffffffffffffffffffffffffffffffffffffff1663dd62ed3e33306040518363ffffffff1660e01b815260040161139992919061445d565b60206040518083038186803b1580156113b157600080fd5b505afa1580156113c5573d6000803e3d6000fd5b505050506040513d601f19601f820116820180604052508101906113e99190613f22565b101561142a576040517f08c379a00000000000000000000000000000000000000000000000000000000081526004016114219061458f565b60405180910390fd5b611458600f60009054906101000a900473ffffffffffffffffffffffffffffffffffffffff16333084612a1d565b61146183612aa6565b50506001600b8190555050565b6000601054905090565b6000806003600084815260200190815260200160002060009054906101000a900473ffffffffffffffffffffffffffffffffffffffff169050600073ffffffffffffffffffffffffffffffffffffffff168173ffffffffffffffffffffffffffffffffffffffff161415611521576040517f08c379a00000000000000000000000000000000000000000000000000000000081526004016115189061470f565b60405180910390fd5b80915050919050565b7f000000000000000000000000000000000000000000000000000000000000000081565b611556612622565b73ffffffffffffffffffffffffffffffffffffffff166115746119aa565b73ffffffffffffffffffffffffffffffffffffffff16146115ca576040517f08c379a00000000000000000000000000000000000000000000000000000000081526004016115c1906147af565b60405180910390fd5b80156116a25760007f000000000000000000000000000000000000000000000000000000000000000073ffffffffffffffffffffffffffffffffffffffff16476040516116169061442d565b60006040518083038185875af1925050503d8060008114611653576040519150601f19603f3d011682016040523d82523d6000602084013e611658565b606091505b505090508061169c576040517f08c379a00000000000000000000000000000000000000000000000000000000081526004016116939061482f565b60405180910390fd5b50611750565b60003373ffffffffffffffffffffffffffffffffffffffff16476040516116c89061442d565b60006040518083038185875af1925050503d8060008114611705576040519150601f19603f3d011682016040523d82523d6000602084013e61170a565b606091505b505090508061174e576040517f08c379a00000000000000000000000000000000000000000000000000000000081526004016117459061482f565b60405180910390fd5b505b50565b600061175d610d2c565b82611766610c1a565b61177091906149d4565b11156117b1576040517f08c379a00000000000000000000000000000000000000000000000000000000081526004016117a89061462f565b60405180910390fd5b7f0000000000000000000000000000000000000000000000000000000000000000826117dd9190614a5b565b9050919050565b60008073ffffffffffffffffffffffffffffffffffffffff168273ffffffffffffffffffffffffffffffffffffffff161415611855576040517f08c379a000000000000000000000000000000000000000000000000000000000815260040161184c906146ef565b60405180910390fd5b600460008373ffffffffffffffffffffffffffffffffffffffff1673ffffffffffffffffffffffffffffffffffffffff168152602001908152602001600020549050919050565b6118a4612622565b73ffffffffffffffffffffffffffffffffffffffff166118c26119aa565b73ffffffffffffffffffffffffffffffffffffffff1614611918576040517f08c379a000000000000000000000000000000000000000000000000000000000815260040161190f906147af565b60405180910390fd5b6119226000612b4c565b565b601160009054906101000a900460ff1681565b6000611941610d2c565b8261194a610c1a565b61195491906149d4565b1115611995576040517f08c379a000000000000000000000000000000000000000000000000000000000815260040161198c9061462f565b60405180910390fd5b601054826119a39190614a5b565b9050919050565b60008060009054906101000a900473ffffffffffffffffffffffffffffffffffffffff16905090565b6119db612622565b73ffffffffffffffffffffffffffffffffffffffff166119f96119aa565b73ffffffffffffffffffffffffffffffffffffffff1614611a4f576040517f08c379a0000000000000000000000000000000000000000000000000000000008152600401611a46906147af565b60405180910390fd5b8060129080519060200190611a659291906139dd565b5050565b6002600b541415611aaf576040517f08c379a0000000000000000000000000000000000000000000000000000000008152600401611aa6906148cf565b60405180910390fd5b6002600b81905550601160009054906101000a900460ff16611b06576040517f08c379a0000000000000000000000000000000000000000000000000000000008152600401611afd9061456f565b60405180910390fd5b6000611b10610c1a565b9050611b1a610d2c565b8282611b2691906149d4565b1115611b67576040517f08c379a0000000000000000000000000000000000000000000000000000000008152600401611b5e9061462f565b60405180910390fd5b6000611b7283611753565b905080341015611bb7576040517f08c379a0000000000000000000000000000000000000000000000000000000008152600401611bae9061472f565b60405180910390fd5b80341115611c12573373ffffffffffffffffffffffffffffffffffffffff166108fc8234611be59190614ab5565b9081150290604051600060405180830381858888f19350505050158015611c10573d6000803e3d6000fd5b505b611c1b83612aa6565b50506001600b8190555050565b606060028054611c3790614bdb565b80601f0160208091040260200160405190810160405280929190818152602001828054611c6390614bdb565b8015611cb05780601f10611c8557610100808354040283529160200191611cb0565b820191906000526020600020905b815481529060010190602001808311611c9357829003601f168201915b5050505050905090565b611cc2612622565b73ffffffffffffffffffffffffffffffffffffffff168273ffffffffffffffffffffffffffffffffffffffff161415611d30576040517f08c379a0000000000000000000000000000000000000000000000000000000008152600401611d279061466f565b60405180910390fd5b8060066000611d3d612622565b73ffffffffffffffffffffffffffffffffffffffff1673ffffffffffffffffffffffffffffffffffffffff16815260200190815260200160002060008473ffffffffffffffffffffffffffffffffffffffff1673ffffffffffffffffffffffffffffffffffffffff16815260200190815260200160002060006101000a81548160ff0219169083151502179055508173ffffffffffffffffffffffffffffffffffffffff16611dea612622565b73ffffffffffffffffffffffffffffffffffffffff167f17307eab39ab6107e8899845ad3d59bd9653f200f220920489ca2b5937696c3183604051611e2f9190614532565b60405180910390a35050565b6000611e4682611937565b9050600f60009054906101000a900473ffffffffffffffffffffffffffffffffffffffff1673ffffffffffffffffffffffffffffffffffffffff1663095ea7b330836040518363ffffffff1660e01b8152600401611ea5929190614509565b602060405180830381600087803b158015611ebf57600080fd5b505af1158015611ed3573d6000803e3d6000fd5b505050506040513d601f19601f82011682018060405250810190611ef79190613df8565b505050565b611f04612622565b73ffffffffffffffffffffffffffffffffffffffff16611f226119aa565b73ffffffffffffffffffffffffffffffffffffffff1614611f78576040517f08c379a0000000000000000000000000000000000000000000000000000000008152600401611f6f906147af565b60405180910390fd5b6001601160006101000a81548160ff021916908315150217905550565b611fa6611fa0612622565b836126e3565b611fe5576040517f08c379a0000000000000000000000000000000000000000000000000000000008152600401611fdc9061484f565b60405180910390fd5b611ff184848484612c10565b50505050565b6000600f60009054906101000a900473ffffffffffffffffffffffffffffffffffffffff1673ffffffffffffffffffffffffffffffffffffffff166370a08231306040518263ffffffff1660e01b81526004016120549190614442565b60206040518083038186803b15801561206c57600080fd5b505afa158015612080573d6000803e3d6000fd5b505050506040513d601f19601f820116820180604052508101906120a49190613f22565b90506120d5600f60009054906101000a900473ffffffffffffffffffffffffffffffffffffffff1661dead83612c6c565b50565b6060601360009054906101000a900460ff16801561211657507f00000000000000000000000000000000000000000000000000000000000000008211155b156121da5760006015805461212a90614bdb565b9050141561214857600061213d83612cf2565b90508091505061220c565b6015805461215590614bdb565b80601f016020809104026020016040519081016040528092919081815260200182805461218190614bdb565b80156121ce5780601f106121a3576101008083540402835291602001916121ce565b820191906000526020600020905b8154815290600101906020018083116121b157829003601f168201915b5050505050905061220c565b60006121e4612e53565b90506000815114156122075760006121fb84612cf2565b9050809250505061220c565b809150505b919050565b6012805461221e90614bdb565b80601f016020809104026020016040519081016040528092919081815260200182805461224a90614bdb565b80156122975780601f1061226c57610100808354040283529160200191612297565b820191906000526020600020905b81548152906001019060200180831161227a57829003601f168201915b505050505081565b6000600660008473ffffffffffffffffffffffffffffffffffffffff1673ffffffffffffffffffffffffffffffffffffffff16815260200190815260200160002060008373ffffffffffffffffffffffffffffffffffffffff1673ffffffffffffffffffffffffffffffffffffffff16815260200190815260200160002060009054906101000a900460ff16905092915050565b61233b612622565b73ffffffffffffffffffffffffffffffffffffffff166123596119aa565b73ffffffffffffffffffffffffffffffffffffffff16146123af576040517f08c379a00000000000000000000000000000000000000000000000000000000081526004016123a6906147af565b60405180910390fd5b600073ffffffffffffffffffffffffffffffffffffffff168173ffffffffffffffffffffffffffffffffffffffff16141561241f576040517f08c379a0000000000000000000000000000000000000000000000000000000008152600401612416906145ef565b60405180910390fd5b61242881612b4c565b50565b612433612622565b73ffffffffffffffffffffffffffffffffffffffff166124516119aa565b73ffffffffffffffffffffffffffffffffffffffff16146124a7576040517f08c379a000000000000000000000000000000000000000000000000000000000815260040161249e906147af565b60405180910390fd5b80601590805190602001906124bd9291906139dd565b5050565b601360009054906101000a900460ff1681565b60007f80ac58cd000000000000000000000000000000000000000000000000000000007bffffffffffffffffffffffffffffffffffffffffffffffffffffffff1916827bffffffffffffffffffffffffffffffffffffffffffffffffffffffff1916148061259f57507f5b5e139f000000000000000000000000000000000000000000000000000000007bffffffffffffffffffffffffffffffffffffffffffffffffffffffff1916827bffffffffffffffffffffffffffffffffffffffffffffffffffffffff1916145b806125af57506125ae82612ee5565b5b9050919050565b60008073ffffffffffffffffffffffffffffffffffffffff166003600084815260200190815260200160002060009054906101000a900473ffffffffffffffffffffffffffffffffffffffff1673ffffffffffffffffffffffffffffffffffffffff1614159050919050565b600033905090565b816005600083815260200190815260200160002060006101000a81548173ffffffffffffffffffffffffffffffffffffffff021916908373ffffffffffffffffffffffffffffffffffffffff160217905550808273ffffffffffffffffffffffffffffffffffffffff1661269d83611478565b73ffffffffffffffffffffffffffffffffffffffff167f8c5be1e5ebec7d5bd14f71427d1e84f3dd0314c0f7b2291e5b200ac8c7c3b92560405160405180910390a45050565b60006126ee826125b6565b61272d576040517f08c379a0000000000000000000000000000000000000000000000000000000008152600401612724906146af565b60405180910390fd5b600061273883611478565b90508073ffffffffffffffffffffffffffffffffffffffff168473ffffffffffffffffffffffffffffffffffffffff1614806127a757508373ffffffffffffffffffffffffffffffffffffffff1661278f84610a7d565b73ffffffffffffffffffffffffffffffffffffffff16145b806127b857506127b7818561229f565b5b91505092915050565b8273ffffffffffffffffffffffffffffffffffffffff166127e182611478565b73ffffffffffffffffffffffffffffffffffffffff1614612837576040517f08c379a000000000000000000000000000000000000000000000000000000000815260040161282e906147cf565b60405180910390fd5b600073ffffffffffffffffffffffffffffffffffffffff168273ffffffffffffffffffffffffffffffffffffffff1614156128a7576040517f08c379a000000000000000000000000000000000000000000000000000000000815260040161289e9061464f565b60405180910390fd5b6128b2838383612f4f565b6128bd60008261262a565b6001600460008573ffffffffffffffffffffffffffffffffffffffff1673ffffffffffffffffffffffffffffffffffffffff168152602001908152602001600020600082825461290d9190614ab5565b925050819055506001600460008473ffffffffffffffffffffffffffffffffffffffff1673ffffffffffffffffffffffffffffffffffffffff168152602001908152602001600020600082825461296491906149d4565b92505081905550816003600083815260200190815260200160002060006101000a81548173ffffffffffffffffffffffffffffffffffffffff021916908373ffffffffffffffffffffffffffffffffffffffff160217905550808273ffffffffffffffffffffffffffffffffffffffff168473ffffffffffffffffffffffffffffffffffffffff167fddf252ad1be2c89b69c2b068fc378daa952ba7f163c4a11628f55a4df523b3ef60405160405180910390a4505050565b612aa0846323b872dd60e01b858585604051602401612a3e93929190614486565b604051602081830303815290604052907bffffffffffffffffffffffffffffffffffffffffffffffffffffffff19166020820180517bffffffffffffffffffffffffffffffffffffffffffffffffffffffff8381831617835250505050613063565b50505050565b6032811115612aea576040517f08c379a0000000000000000000000000000000000000000000000000000000008152600401612ae19061480f565b60405180910390fd5b6000600c54905060005b82811015612b40576000612b08600e61312a565b9050612b143382613138565b612b1e600e613156565b8280612b2990614bb1565b935050508080612b3890614c3e565b915050612af4565b5080600c819055505050565b60008060009054906101000a900473ffffffffffffffffffffffffffffffffffffffff169050816000806101000a81548173ffffffffffffffffffffffffffffffffffffffff021916908373ffffffffffffffffffffffffffffffffffffffff1602179055508173ffffffffffffffffffffffffffffffffffffffff168173ffffffffffffffffffffffffffffffffffffffff167f8be0079c531659141344cd1fd0a4f28419497f9722a3daafe3b4186f6b6457e060405160405180910390a35050565b612c1b8484846127c1565b612c278484848461316c565b612c66576040517f08c379a0000000000000000000000000000000000000000000000000000000008152600401612c5d906145cf565b60405180910390fd5b50505050565b612ced8363a9059cbb60e01b8484604051602401612c8b929190614509565b604051602081830303815290604052907bffffffffffffffffffffffffffffffffffffffffffffffffffffffff19166020820180517bffffffffffffffffffffffffffffffffffffffffffffffffffffffff8381831617835250505050613063565b505050565b60606000821415612d3a576040518060400160405280600181526020017f30000000000000000000000000000000000000000000000000000000000000008152509050612e4e565b600082905060005b60008214612d6c578080612d5590614c3e565b915050600a82612d659190614a2a565b9150612d42565b60008167ffffffffffffffff811115612d8857612d87614da3565b5b6040519080825280601f01601f191660200182016040528015612dba5781602001600182028036833780820191505090505b5090505b60008514612e4757600182612dd39190614ab5565b9150600a85612de29190614c87565b6030612dee91906149d4565b60f81b818381518110612e0457612e03614d74565b5b60200101907effffffffffffffffffffffffffffffffffffffffffffffffffffffffffffff1916908160001a905350600a85612e409190614a2a565b9450612dbe565b8093505050505b919050565b606060148054612e6290614bdb565b80601f0160208091040260200160405190810160405280929190818152602001828054612e8e90614bdb565b8015612edb5780601f10612eb057610100808354040283529160200191612edb565b820191906000526020600020905b815481529060010190602001808311612ebe57829003601f168201915b5050505050905090565b60007f01ffc9a7000000000000000000000000000000000000000000000000000000007bffffffffffffffffffffffffffffffffffffffffffffffffffffffff1916827bffffffffffffffffffffffffffffffffffffffffffffffffffffffff1916149050919050565b612f5a838383613303565b600073ffffffffffffffffffffffffffffffffffffffff168373ffffffffffffffffffffffffffffffffffffffff161415612f9d57612f9881613308565b612fdc565b8173ffffffffffffffffffffffffffffffffffffffff168373ffffffffffffffffffffffffffffffffffffffff1614612fdb57612fda8382613351565b5b5b600073ffffffffffffffffffffffffffffffffffffffff168273ffffffffffffffffffffffffffffffffffffffff16141561301f5761301a816134be565b61305e565b8273ffffffffffffffffffffffffffffffffffffffff168273ffffffffffffffffffffffffffffffffffffffff161461305d5761305c828261358f565b5b5b505050565b60006130c5826040518060400160405280602081526020017f5361666545524332303a206c6f772d6c6576656c2063616c6c206661696c65648152508573ffffffffffffffffffffffffffffffffffffffff1661360e9092919063ffffffff16565b905060008151111561312557808060200190518101906130e59190613df8565b613124576040517f08c379a000000000000000000000000000000000000000000000000000000000815260040161311b906148af565b60405180910390fd5b5b505050565b600081600001549050919050565b613152828260405180602001604052806000815250613626565b5050565b6001816000016000828254019250508190555050565b600061318d8473ffffffffffffffffffffffffffffffffffffffff16613681565b156132f6578373ffffffffffffffffffffffffffffffffffffffff1663150b7a026131b6612622565b8786866040518563ffffffff1660e01b81526004016131d894939291906144bd565b602060405180830381600087803b1580156131f257600080fd5b505af192505050801561322357506040513d601f19601f820116820180604052508101906132209190613e52565b60015b6132a6573d8060008114613253576040519150601f19603f3d011682016040523d82523d6000602084013e613258565b606091505b5060008151141561329e576040517f08c379a0000000000000000000000000000000000000000000000000000000008152600401613295906145cf565b60405180910390fd5b805181602001fd5b63150b7a0260e01b7bffffffffffffffffffffffffffffffffffffffffffffffffffffffff1916817bffffffffffffffffffffffffffffffffffffffffffffffffffffffff1916149150506132fb565b600190505b949350505050565b505050565b600980549050600a600083815260200190815260200160002081905550600981908060018154018082558091505060019003906000526020600020016000909190919091505550565b6000600161335e846117e4565b6133689190614ab5565b905060006008600084815260200190815260200160002054905081811461344d576000600760008673ffffffffffffffffffffffffffffffffffffffff1673ffffffffffffffffffffffffffffffffffffffff168152602001908152602001600020600084815260200190815260200160002054905080600760008773ffffffffffffffffffffffffffffffffffffffff1673ffffffffffffffffffffffffffffffffffffffff168152602001908152602001600020600084815260200190815260200160002081905550816008600083815260200190815260200160002081905550505b6008600084815260200190815260200160002060009055600760008573ffffffffffffffffffffffffffffffffffffffff1673ffffffffffffffffffffffffffffffffffffffff16815260200190815260200160002060008381526020019081526020016000206000905550505050565b600060016009805490506134d29190614ab5565b90506000600a600084815260200190815260200160002054905060006009838154811061350257613501614d74565b5b90600052602060002001549050806009838154811061352457613523614d74565b5b906000526020600020018190555081600a600083815260200190815260200160002081905550600a600085815260200190815260200160002060009055600980548061357357613572614d45565b5b6001900381819060005260206000200160009055905550505050565b600061359a836117e4565b905081600760008573ffffffffffffffffffffffffffffffffffffffff1673ffffffffffffffffffffffffffffffffffffffff168152602001908152602001600020600083815260200190815260200160002081905550806008600084815260200190815260200160002081905550505050565b606061361d8484600085613694565b90509392505050565b61363083836137a8565b61363d600084848461316c565b61367c576040517f08c379a0000000000000000000000000000000000000000000000000000000008152600401613673906145cf565b60405180910390fd5b505050565b600080823b905060008111915050919050565b6060824710156136d9576040517f08c379a00000000000000000000000000000000000000000000000000000000081526004016136d09061468f565b60405180910390fd5b6136e285613681565b613721576040517f08c379a00000000000000000000000000000000000000000000000000000000081526004016137189061486f565b60405180910390fd5b6000808673ffffffffffffffffffffffffffffffffffffffff16858760405161374a9190614416565b60006040518083038185875af1925050503d8060008114613787576040519150601f19603f3d011682016040523d82523d6000602084013e61378c565b606091505b509150915061379c828286613976565b92505050949350505050565b600073ffffffffffffffffffffffffffffffffffffffff168273ffffffffffffffffffffffffffffffffffffffff161415613818576040517f08c379a000000000000000000000000000000000000000000000000000000000815260040161380f9061476f565b60405180910390fd5b613821816125b6565b15613861576040517f08c379a00000000000000000000000000000000000000000000000000000000081526004016138589061460f565b60405180910390fd5b61386d60008383612f4f565b6001600460008473ffffffffffffffffffffffffffffffffffffffff1673ffffffffffffffffffffffffffffffffffffffff16815260200190815260200160002060008282546138bd91906149d4565b92505081905550816003600083815260200190815260200160002060006101000a81548173ffffffffffffffffffffffffffffffffffffffff021916908373ffffffffffffffffffffffffffffffffffffffff160217905550808273ffffffffffffffffffffffffffffffffffffffff16600073ffffffffffffffffffffffffffffffffffffffff167fddf252ad1be2c89b69c2b068fc378daa952ba7f163c4a11628f55a4df523b3ef60405160405180910390a45050565b60608315613986578290506139d6565b6000835111156139995782518084602001fd5b816040517f08c379a00000000000000000000000000000000000000000000000000000000081526004016139cd919061454d565b60405180910390fd5b9392505050565b8280546139e990614bdb565b90600052602060002090601f016020900481019282613a0b5760008555613a52565b82601f10613a2457805160ff1916838001178555613a52565b82800160010185558215613a52579182015b82811115613a51578251825591602001919060010190613a36565b5b509050613a5f9190613a63565b5090565b5b80821115613a7c576000816000905550600101613a64565b5090565b6000613a93613a8e8461492f565b61490a565b905082815260208101848484011115613aaf57613aae614dd7565b5b613aba848285614b6f565b509392505050565b6000613ad5613ad084614960565b61490a565b905082815260208101848484011115613af157613af0614dd7565b5b613afc848285614b6f565b509392505050565b600081359050613b13816154fc565b92915050565b600081359050613b2881615513565b92915050565b600081519050613b3d81615513565b92915050565b600081359050613b528161552a565b92915050565b600081519050613b678161552a565b92915050565b600082601f830112613b8257613b81614dd2565b5b8135613b92848260208601613a80565b91505092915050565b600081359050613baa81615541565b92915050565b600082601f830112613bc557613bc4614dd2565b5b8135613bd5848260208601613ac2565b91505092915050565b600081359050613bed81615558565b92915050565b600081519050613c0281615558565b92915050565b600060208284031215613c1e57613c1d614de1565b5b6000613c2c84828501613b04565b91505092915050565b60008060408385031215613c4c57613c4b614de1565b5b6000613c5a85828601613b04565b9250506020613c6b85828601613b04565b9150509250929050565b600080600060608486031215613c8e57613c8d614de1565b5b6000613c9c86828701613b04565b9350506020613cad86828701613b04565b9250506040613cbe86828701613bde565b9150509250925092565b60008060008060808587031215613ce257613ce1614de1565b5b6000613cf087828801613b04565b9450506020613d0187828801613b04565b9350506040613d1287828801613bde565b925050606085013567ffffffffffffffff811115613d3357613d32614ddc565b5b613d3f87828801613b6d565b91505092959194509250565b60008060408385031215613d6257613d61614de1565b5b6000613d7085828601613b04565b9250506020613d8185828601613b19565b9150509250929050565b60008060408385031215613da257613da1614de1565b5b6000613db085828601613b04565b9250506020613dc185828601613bde565b9150509250929050565b600060208284031215613de157613de0614de1565b5b6000613def84828501613b19565b91505092915050565b600060208284031215613e0e57613e0d614de1565b5b6000613e1c84828501613b2e565b91505092915050565b600060208284031215613e3b57613e3a614de1565b5b6000613e4984828501613b43565b91505092915050565b600060208284031215613e6857613e67614de1565b5b6000613e7684828501613b58565b91505092915050565b600060208284031215613e9557613e94614de1565b5b6000613ea384828501613b9b565b91505092915050565b600060208284031215613ec257613ec1614de1565b5b600082013567ffffffffffffffff811115613ee057613edf614ddc565b5b613eec84828501613bb0565b91505092915050565b600060208284031215613f0b57613f0a614de1565b5b6000613f1984828501613bde565b91505092915050565b600060208284031215613f3857613f37614de1565b5b6000613f4684828501613bf3565b91505092915050565b613f5881614ae9565b82525050565b613f6781614afb565b82525050565b6000613f7882614991565b613f8281856149a7565b9350613f92818560208601614b7e565b613f9b81614de6565b840191505092915050565b6000613fb182614991565b613fbb81856149b8565b9350613fcb818560208601614b7e565b80840191505092915050565b6000613fe28261499c565b613fec81856149c3565b9350613ffc818560208601614b7e565b61400581614de6565b840191505092915050565b600061401d6014836149c3565b915061402882614df7565b602082019050919050565b60006140406019836149c3565b915061404b82614e20565b602082019050919050565b6000614063602b836149c3565b915061406e82614e49565b604082019050919050565b60006140866032836149c3565b915061409182614e98565b604082019050919050565b60006140a96026836149c3565b91506140b482614ee7565b604082019050919050565b60006140cc601c836149c3565b91506140d782614f36565b602082019050919050565b60006140ef6023836149c3565b91506140fa82614f5f565b604082019050919050565b60006141126024836149c3565b915061411d82614fae565b604082019050919050565b60006141356019836149c3565b915061414082614ffd565b602082019050919050565b60006141586026836149c3565b915061416382615026565b604082019050919050565b600061417b602c836149c3565b915061418682615075565b604082019050919050565b600061419e6038836149c3565b91506141a9826150c4565b604082019050919050565b60006141c1602a836149c3565b91506141cc82615113565b604082019050919050565b60006141e46029836149c3565b91506141ef82615162565b604082019050919050565b60006142076026836149c3565b9150614212826151b1565b604082019050919050565b600061422a6015836149c3565b915061423582615200565b602082019050919050565b600061424d6020836149c3565b915061425882615229565b602082019050919050565b6000614270602c836149c3565b915061427b82615252565b604082019050919050565b60006142936020836149c3565b915061429e826152a1565b602082019050919050565b60006142b66029836149c3565b91506142c1826152ca565b604082019050919050565b60006142d96021836149c3565b91506142e482615319565b604082019050919050565b60006142fc6015836149c3565b915061430782615368565b602082019050919050565b600061431f6000836149b8565b915061432a82615391565b600082019050919050565b60006143426010836149c3565b915061434d82615394565b602082019050919050565b60006143656031836149c3565b9150614370826153bd565b604082019050919050565b6000614388601d836149c3565b91506143938261540c565b602082019050919050565b60006143ab602c836149c3565b91506143b682615435565b604082019050919050565b60006143ce602a836149c3565b91506143d982615484565b604082019050919050565b60006143f1601f836149c3565b91506143fc826154d3565b602082019050919050565b61441081614b65565b82525050565b60006144228284613fa6565b915081905092915050565b600061443882614312565b9150819050919050565b60006020820190506144576000830184613f4f565b92915050565b60006040820190506144726000830185613f4f565b61447f6020830184613f4f565b9392505050565b600060608201905061449b6000830186613f4f565b6144a86020830185613f4f565b6144b56040830184614407565b949350505050565b60006080820190506144d26000830187613f4f565b6144df6020830186613f4f565b6144ec6040830185614407565b81810360608301526144fe8184613f6d565b905095945050505050565b600060408201905061451e6000830185613f4f565b61452b6020830184614407565b9392505050565b60006020820190506145476000830184613f5e565b92915050565b600060208201905081810360008301526145678184613fd7565b905092915050565b6000602082019050818103600083015261458881614010565b9050919050565b600060208201905081810360008301526145a881614033565b9050919050565b600060208201905081810360008301526145c881614056565b9050919050565b600060208201905081810360008301526145e881614079565b9050919050565b600060208201905081810360008301526146088161409c565b9050919050565b60006020820190508181036000830152614628816140bf565b9050919050565b60006020820190508181036000830152614648816140e2565b9050919050565b6000602082019050818103600083015261466881614105565b9050919050565b6000602082019050818103600083015261468881614128565b9050919050565b600060208201905081810360008301526146a88161414b565b9050919050565b600060208201905081810360008301526146c88161416e565b9050919050565b600060208201905081810360008301526146e881614191565b9050919050565b60006020820190508181036000830152614708816141b4565b9050919050565b60006020820190508181036000830152614728816141d7565b9050919050565b60006020820190508181036000830152614748816141fa565b9050919050565b600060208201905081810360008301526147688161421d565b9050919050565b6000602082019050818103600083015261478881614240565b9050919050565b600060208201905081810360008301526147a881614263565b9050919050565b600060208201905081810360008301526147c881614286565b9050919050565b600060208201905081810360008301526147e8816142a9565b9050919050565b60006020820190508181036000830152614808816142cc565b9050919050565b60006020820190508181036000830152614828816142ef565b9050919050565b6000602082019050818103600083015261484881614335565b9050919050565b6000602082019050818103600083015261486881614358565b9050919050565b600060208201905081810360008301526148888161437b565b9050919050565b600060208201905081810360008301526148a88161439e565b9050919050565b600060208201905081810360008301526148c8816143c1565b9050919050565b600060208201905081810360008301526148e8816143e4565b9050919050565b60006020820190506149046000830184614407565b92915050565b6000614914614925565b90506149208282614c0d565b919050565b6000604051905090565b600067ffffffffffffffff82111561494a57614949614da3565b5b61495382614de6565b9050602081019050919050565b600067ffffffffffffffff82111561497b5761497a614da3565b5b61498482614de6565b9050602081019050919050565b600081519050919050565b600081519050919050565b600082825260208201905092915050565b600081905092915050565b600082825260208201905092915050565b60006149df82614b65565b91506149ea83614b65565b9250827fffffffffffffffffffffffffffffffffffffffffffffffffffffffffffffffff03821115614a1f57614a1e614cb8565b5b828201905092915050565b6000614a3582614b65565b9150614a4083614b65565b925082614a5057614a4f614ce7565b5b828204905092915050565b6000614a6682614b65565b9150614a7183614b65565b9250817fffffffffffffffffffffffffffffffffffffffffffffffffffffffffffffffff0483118215151615614aaa57614aa9614cb8565b5b828202905092915050565b6000614ac082614b65565b9150614acb83614b65565b925082821015614ade57614add614cb8565b5b828203905092915050565b6000614af482614b45565b9050919050565b60008115159050919050565b60007fffffffff0000000000000000000000000000000000000000000000000000000082169050919050565b6000614b3e82614ae9565b9050919050565b600073ffffffffffffffffffffffffffffffffffffffff82169050919050565b6000819050919050565b82818337600083830152505050565b60005b83811015614b9c578082015181840152602081019050614b81565b83811115614bab576000848401525b50505050565b6000614bbc82614b65565b91506000821415614bd057614bcf614cb8565b5b600182039050919050565b60006002820490506001821680614bf357607f821691505b60208210811415614c0757614c06614d16565b5b50919050565b614c1682614de6565b810181811067ffffffffffffffff82111715614c3557614c34614da3565b5b80604052505050565b6000614c4982614b65565b91507fffffffffffffffffffffffffffffffffffffffffffffffffffffffffffffffff821415614c7c57614c7b614cb8565b5b600182019050919050565b6000614c9282614b65565b9150614c9d83614b65565b925082614cad57614cac614ce7565b5b828206905092915050565b7f4e487b7100000000000000000000000000000000000000000000000000000000600052601160045260246000fd5b7f4e487b7100000000000000000000000000000000000000000000000000000000600052601260045260246000fd5b7f4e487b7100000000000000000000000000000000000000000000000000000000600052602260045260246000fd5b7f4e487b7100000000000000000000000000000000000000000000000000000000600052603160045260246000fd5b7f4e487b7100000000000000000000000000000000000000000000000000000000600052603260045260246000fd5b7f4e487b7100000000000000000000000000000000000000000000000000000000600052604160045260246000fd5b600080fd5b600080fd5b600080fd5b600080fd5b6000601f19601f8301169050919050565b7f53616c65206861736e277420737461727465642e000000000000000000000000600082015250565b7f417070726f7665204b39575420666f72207370656e64696e6700000000000000600082015250565b7f455243373231456e756d657261626c653a206f776e657220696e646578206f7560008201527f74206f6620626f756e6473000000000000000000000000000000000000000000602082015250565b7f4552433732313a207472616e7366657220746f206e6f6e20455243373231526560008201527f63656976657220696d706c656d656e7465720000000000000000000000000000602082015250565b7f4f776e61626c653a206e6577206f776e657220697320746865207a65726f206160008201527f6464726573730000000000000000000000000000000000000000000000000000602082015250565b7f4552433732313a20746f6b656e20616c7265616479206d696e74656400000000600082015250565b7f5468657265206172656e27742074686973206d616e7920746f6b656e73206c6560008201527f66742e0000000000000000000000000000000000000000000000000000000000602082015250565b7f4552433732313a207472616e7366657220746f20746865207a65726f2061646460008201527f7265737300000000000000000000000000000000000000000000000000000000602082015250565b7f4552433732313a20617070726f766520746f2063616c6c657200000000000000600082015250565b7f416464726573733a20696e73756666696369656e742062616c616e636520666f60008201527f722063616c6c0000000000000000000000000000000000000000000000000000602082015250565b7f4552433732313a206f70657261746f7220717565727920666f72206e6f6e657860008201527f697374656e7420746f6b656e0000000000000000000000000000000000000000602082015250565b7f4552433732313a20617070726f76652063616c6c6572206973206e6f74206f7760008201527f6e6572206e6f7220617070726f76656420666f7220616c6c0000000000000000602082015250565b7f4552433732313a2062616c616e636520717565727920666f7220746865207a6560008201527f726f206164647265737300000000000000000000000000000000000000000000602082015250565b7f4552433732313a206f776e657220717565727920666f72206e6f6e657869737460008201527f656e7420746f6b656e0000000000000000000000000000000000000000000000602082015250565b7f546f6f206c6974746c652073656e742c20706c656173652073656e64206d6f7260008201527f65206574682e0000000000000000000000000000000000000000000000000000602082015250565b7f4e6f20746f6b656e7320746f2077697468647261770000000000000000000000600082015250565b7f4552433732313a206d696e7420746f20746865207a65726f2061646472657373600082015250565b7f4552433732313a20617070726f76656420717565727920666f72206e6f6e657860008201527f697374656e7420746f6b656e0000000000000000000000000000000000000000602082015250565b7f4f776e61626c653a2063616c6c6572206973206e6f7420746865206f776e6572600082015250565b7f4552433732313a207472616e73666572206f6620746f6b656e2074686174206960008201527f73206e6f74206f776e0000000000000000000000000000000000000000000000602082015250565b7f4552433732313a20617070726f76616c20746f2063757272656e74206f776e6560008201527f7200000000000000000000000000000000000000000000000000000000000000602082015250565b7f4d696e74696e67204c696d697420526561636865640000000000000000000000600082015250565b50565b7f5472616e73666572206661696c65642e00000000000000000000000000000000600082015250565b7f4552433732313a207472616e736665722063616c6c6572206973206e6f74206f60008201527f776e6572206e6f7220617070726f766564000000000000000000000000000000602082015250565b7f416464726573733a2063616c6c20746f206e6f6e2d636f6e7472616374000000600082015250565b7f455243373231456e756d657261626c653a20676c6f62616c20696e646578206f60008201527f7574206f6620626f756e64730000000000000000000000000000000000000000602082015250565b7f5361666545524332303a204552433230206f7065726174696f6e20646964206e60008201527f6f74207375636365656400000000000000000000000000000000000000000000602082015250565b7f5265656e7472616e637947756172643a207265656e7472616e742063616c6c00600082015250565b61550581614ae9565b811461551057600080fd5b50565b61551c81614afb565b811461552757600080fd5b50565b61553381614b07565b811461553e57600080fd5b50565b61554a81614b33565b811461555557600080fd5b50565b61556181614b65565b811461556c57600080fd5b5056fea26469706673582212209cf31f64bdf0e3f75323f10ecc31ba97ac227ddfe39b3bde4d00c35c10c233fc64736f6c63430008070033",
  "immutableReferences": {
    "2476": [
      {
        "length": 32,
        "start": 6067
      }
    ],
    "2492": [
      {
        "length": 32,
        "start": 3744
      },
      {
        "length": 32,
        "start": 5588
      }
    ],
    "2500": [
      {
        "length": 32,
        "start": 5420
      },
      {
        "length": 32,
        "start": 8435
      }
    ]
  },
  "source": "// SPDX-License-Identifier: MIT\n\npragma solidity ^0.8.7;\n\nimport \"@openzeppelin/contracts/access/Ownable.sol\";\nimport \"@openzeppelin/contracts/token/ERC721/ERC721.sol\";\nimport \"@openzeppelin/contracts/token/ERC721/extensions/ERC721Enumerable.sol\";\nimport \"@openzeppelin/contracts/security/ReentrancyGuard.sol\";\nimport \"@openzeppelin/contracts/utils/Counters.sol\";\nimport \"@openzeppelin/contracts/token/ERC20/IERC20.sol\";\nimport \"@openzeppelin/contracts/token/ERC20/utils/SafeERC20.sol\";\n\ncontract K9WalletGuardians is Ownable, ERC721Enumerable, ReentrancyGuard {\n    using Counters for Counters.Counter;\n\n    constructor(IERC20 _token, address _dev)\n        ERC721(\"K9 Wallet Guardians\", \"K9WG\")\n    {\n        _developer = _dev;\n        _k9WalletToken = _token;\n        // Set initial Rate to 200,000 K9WT\n        _K9WTRate = 200000;\n    }\n\n    uint256 public constant MINT_LIMIT = 50;\n    uint256 private _numAvailableTokens = 10000;\n    // 0.015 ETH per token\n    uint256 private immutable _ethRate = 0.015 ether;\n    // max Guardians available\n    uint256 private _maxGuardians = 10000;\n    Counters.Counter private _tokenIdTracker;\n    IERC20 private _k9WalletToken;\n    // K9Wallet Tokens per Guardian\n    uint256 private _K9WTRate;\n    bool public isSaleOn = false;\n    address private immutable _developer;\n    // contract metadata URI for opensea\n    string public contractURI;\n\n    bool public limitedDarkThemeTokensEnabled = false;\n    // Only Tokens with id 1 - 100 are Dark Theme enabled\n    uint256 public immutable darkThemeTokensLastID = 100;\n\n    function buyWithETH(uint256 _numToMint) public payable nonReentrant {\n        require(isSaleOn, \"Sale hasn't started.\");\n        uint256 totalSupply = totalSupply();\n        require(\n            totalSupply + _numToMint <= numMaxGuardians(),\n            \"There aren't this many tokens left.\"\n        );\n        uint256 costForMintingTokens = getETHPriceForTokens(_numToMint);\n        require(\n            msg.value >= costForMintingTokens,\n            \"Too little sent, please send more eth.\"\n        );\n        if (msg.value > costForMintingTokens) {\n            payable(msg.sender).transfer(msg.value - costForMintingTokens);\n        }\n\n        _mint(_numToMint);\n    }\n\n    function buyWithK9WT(uint256 _numToMint) public nonReentrant {\n        require(isSaleOn, \"Sale hasn't started.\");\n        uint256 totalSupply = totalSupply();\n        require(\n            totalSupply + _numToMint <= numMaxGuardians(),\n            \"There aren't this many tokens left.\"\n        );\n        uint256 costForMintingTokens = getK9WTPriceForTokens(_numToMint);\n\n        require(\n            _k9WalletToken.allowance(msg.sender, address(this)) >=\n                costForMintingTokens,\n            \"Approve K9WT for spending\"\n        );\n\n        SafeERC20.safeTransferFrom(\n            _k9WalletToken,\n            msg.sender,\n            address(this),\n            costForMintingTokens\n        );\n\n        _mint(_numToMint);\n    }\n\n    function approveK9WTForPurchasing(uint256 _numToPurchase) external {\n        uint256 costForMintingTokens = getK9WTPriceForTokens(_numToPurchase);\n        _k9WalletToken.approve(address(this), costForMintingTokens);\n    }\n\n    function K9WTApprovalAmount(address buyer) external view returns (uint256) {\n        return _k9WalletToken.allowance(buyer, address(this));\n    }\n\n    // internal minting function\n    function _mint(uint256 _numToMint) internal {\n        require(_numToMint <= MINT_LIMIT, \"Minting Limit Reached\");\n\n        uint256 updatedNumAvailableTokens = _numAvailableTokens;\n        for (uint256 i = 0; i < _numToMint; i++) {\n            uint256 newTokenId = _tokenIdTracker.current();\n            _safeMint(msg.sender, newTokenId);\n            _tokenIdTracker.increment();\n            updatedNumAvailableTokens--;\n        }\n        _numAvailableTokens = updatedNumAvailableTokens;\n    }\n\n    function getETHPriceForTokens(uint256 _numToMint)\n        public\n        view\n        returns (uint256)\n    {\n        require(\n            totalSupply() + _numToMint <= numMaxGuardians(),\n            \"There aren't this many tokens left.\"\n        );\n\n        return _numToMint * _ethRate;\n    }\n\n    function getK9WTPriceForTokens(uint256 _numToMint)\n        public\n        view\n        returns (uint256)\n    {\n        require(\n            totalSupply() + _numToMint <= numMaxGuardians(),\n            \"There aren't this many tokens left.\"\n        );\n\n        return _numToMint * _K9WTRate;\n    }\n\n    function numMaxGuardians() public view virtual returns (uint256) {\n        return _maxGuardians;\n    }\n\n    function currencK9WTRate() public view virtual returns (uint256) {\n        return _K9WTRate;\n    }\n\n    /*\n     * Dev stuff\n     */\n\n    // metadata URI\n    string private _baseTokenURI;\n    string private _darkThemeURI;\n\n    function _baseURI() internal view virtual override returns (string memory) {\n        return _baseTokenURI;\n    }\n\n    function setBaseURI(string memory baseURI) external onlyOwner {\n        _baseTokenURI = baseURI;\n    }\n\n    function setDarkThemeURI(string memory darkURI) external onlyOwner {\n        _darkThemeURI = darkURI;\n    }\n\n    function tokenURI(uint256 _tokenId)\n        public\n        view\n        override\n        returns (string memory)\n    {\n        if (\n            limitedDarkThemeTokensEnabled && _tokenId <= darkThemeTokensLastID\n        ) {\n            if (bytes(_darkThemeURI).length == 0) {\n                string memory _darkTokenURI = Strings.toString(_tokenId);\n                return _darkTokenURI;\n            }\n\n            return _darkThemeURI;\n        }\n        string memory base = _baseURI();\n        \n\n        // If there is no base URI, return the token URI.\n        if (bytes(base).length == 0) {\n            string memory _tokenURI = Strings.toString(_tokenId);\n            return _tokenURI;\n        }\n\n        return base;\n    }\n\n    function startSale() public onlyOwner {\n        isSaleOn = true;\n    }\n\n    function endSale() public onlyOwner {\n        isSaleOn = false;\n    }\n\n    // Given the fluctuating price of K9WT, the rate may need to be updated\n    function setK9WalletTokenRate(uint256 _newRate) public onlyOwner {\n        _K9WTRate = _newRate;\n    }\n\n    function burnAvailableK9WT() public {\n        uint256 amount = _k9WalletToken.balanceOf(address(this));\n        SafeERC20.safeTransfer(\n            _k9WalletToken,\n            0x000000000000000000000000000000000000dEaD,\n            amount\n        );\n    }\n\n    function setContractURI(string memory _contractURI) external onlyOwner {\n        contractURI = _contractURI;\n    }\n\n    // withdraw ERC20 tokens\n    function withdrawAnyERC20(IERC20 token) external onlyOwner {\n        uint256 amount = token.balanceOf(address(this));\n        require(amount > 0, \"No tokens to withdraw\");\n        token.transfer(_developer, amount);\n    }\n\n    function withdrawMoney(bool toDeveloper) public payable onlyOwner {\n        if (toDeveloper) {\n            (bool success, ) = _developer.call{value: address(this).balance}(\n                \"\"\n            );\n            require(success, \"Transfer failed.\");\n        } else {\n            (bool success, ) = msg.sender.call{value: address(this).balance}(\n                \"\"\n            );\n            require(success, \"Transfer failed.\");\n        }\n    }\n}\n",
  "sourcePath": "/Users/edgartremillo/Dev/blockchain/k9wallet_nft/contracts/K9Guardians.sol",
  "compiler": {
    "name": "solc",
    "version": "0.8.7+commit.e28d00a7.Emscripten.clang"
  },
  "schemaVersion": "3.4.3",
  "updatedAt": "2021-08-19T08:28:20.954Z",
  "devdoc": {
    "kind": "dev",
    "methods": {
      "approve(address,uint256)": {
        "details": "See {IERC721-approve}."
      },
      "balanceOf(address)": {
        "details": "See {IERC721-balanceOf}."
      },
      "getApproved(uint256)": {
        "details": "See {IERC721-getApproved}."
      },
      "isApprovedForAll(address,address)": {
        "details": "See {IERC721-isApprovedForAll}."
      },
      "name()": {
        "details": "See {IERC721Metadata-name}."
      },
      "owner()": {
        "details": "Returns the address of the current owner."
      },
      "ownerOf(uint256)": {
        "details": "See {IERC721-ownerOf}."
      },
      "renounceOwnership()": {
        "details": "Leaves the contract without owner. It will not be possible to call `onlyOwner` functions anymore. Can only be called by the current owner. NOTE: Renouncing ownership will leave the contract without an owner, thereby removing any functionality that is only available to the owner."
      },
      "safeTransferFrom(address,address,uint256)": {
        "details": "See {IERC721-safeTransferFrom}."
      },
      "safeTransferFrom(address,address,uint256,bytes)": {
        "details": "See {IERC721-safeTransferFrom}."
      },
      "setApprovalForAll(address,bool)": {
        "details": "See {IERC721-setApprovalForAll}."
      },
      "supportsInterface(bytes4)": {
        "details": "See {IERC165-supportsInterface}."
      },
      "symbol()": {
        "details": "See {IERC721Metadata-symbol}."
      },
      "tokenByIndex(uint256)": {
        "details": "See {IERC721Enumerable-tokenByIndex}."
      },
      "tokenOfOwnerByIndex(address,uint256)": {
        "details": "See {IERC721Enumerable-tokenOfOwnerByIndex}."
      },
      "totalSupply()": {
        "details": "See {IERC721Enumerable-totalSupply}."
      },
      "transferFrom(address,address,uint256)": {
        "details": "See {IERC721-transferFrom}."
      },
      "transferOwnership(address)": {
        "details": "Transfers ownership of the contract to a new account (`newOwner`). Can only be called by the current owner."
      }
    },
    "version": 1
  },
  "userdoc": {
    "kind": "user",
    "methods": {},
    "version": 1
  }
}